:020000040800F2
:1000000000000A208D370008CD360008D3360008DE
:10001000D9360008DF360008E53600080000000089
:10002000000000000000000000000000EB360008A7
:10003000F9360008000000000737000815370008EF
:10004000DD370008DD370008DD370008DD37000840
:10005000DD370008DD370008DD370008DD37000830
:10006000DD370008DD370008DD370008DD37000820
:10007000DD370008DD370008DD370008DD37000810
:10008000DD370008DD370008DD370008DD37000800
:10009000DD370008DD370008DD37000821370008AC
:1000A000DD370008DD370008DD370008DD370008E0
:1000B000DD370008DD370008DD370008DD370008D0
:1000C000DD370008DD370008DD370008DD370008C0
:1000D000DD370008DD370008DD370008DD370008B0
:1000E00031370008DD370008DD370008DD3700084C
:1000F000DD370008DD370008DD37000800000000AC
:10010000DD370008DD370008DD370008413700081B
:10011000DD370008DD370008DD370008DD3700086F
:10012000DD370008DD370008DD370008DD3700085F
:10013000DD370008DD370008DD370008DD3700084F
:10014000DD370008DD370008DD370008DD3700083F
:10015000DD370008DD370008DD370008DD3700082F
:10016000DD370008DD370008DD370008DD3700081F
:10017000DD370008DD370008DD370008000000002B
:10018000DD370008DD370008DD370008DD370008FF
:10019000DD370008DD370008000000000000000027
:1001A0000000000000000000DD370008553700089F
:0C01B000DD370008DD370008DD370008EF
:1001BC0010B5054C237833B9044B13B10448AFF395
:1001CC0000800123237010BD2C00002000000000D3
:1001DC00A097000808B5034B1BB103490348AFF3C4
:1001EC00008008BD0000000030000020A09700082F
:1001FC0053B94AB9002908BF00281CBF4FF0FF3182
:10020C004FF0FF3000F074B9ADF1080C6DE904CE7D
:10021C0000F006F8DDF804E0DDE9022304B07047D5
:10022C002DE9F047089D04468E46002B4DD18A429D
:10023C00944669D9B2FA82F252B101FA02F3C2F1D0
:10024C00200120FA01F10CFA02FC41EA030E944061
:10025C004FEA1C48210CBEFBF8F61FFA8CF708FB82
:10026C0016E341EA034306FB07F199420AD91CEB5A
:10027C00030306F1FF3080F01F81994240F21C818C
:10028C00023E63445B1AA4B2B3FBF8F008FB1033D4
:10029C0044EA034400FB07F7A7420AD91CEB040409
:1002AC0000F1FF3380F00A81A74240F207816444D9
:1002BC00023840EA0640E41B00261DB1D44000235E
:1002CC00C5E900433146BDE8F0878B4209D9002DC2
:1002DC0000F0EF800026C5E9000130463146BDE84C
:1002EC00F087B3FA83F6002E4AD18B4202D38242B6
:1002FC0000F2F980841A61EB030301209E46002D65
:10030C00E0D0C5E9004EDDE702B9FFDEB2FA82F2B9
:10031C00002A40F09280A1EB0C014FEA1C471FFA17
:10032C008CFE0126200CB1FBF7F307FB131140EAFE
:10033C0001410EFB03F0884208D91CEB010103F1CB
:10034C00FF3802D2884200F2CB804346091AA4B28D
:10035C00B1FBF7F007FB101144EA01440EFB00FE61
:10036C00A64508D91CEB040400F1FF3102D2A645C6
:10037C0000F2BB800846A4EB0E0440EA03409CE765
:10038C00C6F12007B34022FA07FC4CEA030C20FA12
:10039C0007F401FA06F31C43F9404FEA1C4900FA32
:1003AC0006F3B1FBF9F8200C1FFA8CFE09FB1811AF
:1003BC0040EA014108FB0EF0884202FA06F20BD922
:1003CC001CEB010108F1FF3A80F08880884240F272
:1003DC008580A8F102086144091AA4B2B1FBF9F0B6
:1003EC0009FB101144EA014100FB0EFE8E4508D9B1
:1003FC001CEB010100F1FF346CD28E456AD9023836
:10040C00614440EA0840A0FB0294A1EB0E01A1421A
:10041C00C846A64656D353D05DB1B3EB080261EB88
:10042C000E0101FA07F722FA06F3F1401F43C5E962
:10043C00007100263146BDE8F087C2F12003D84098
:10044C000CFA02FC21FA03F3914001434FEA1C47DA
:10045C001FFA8CFEB3FBF7F007FB10360B0C43EACC
:10046C00064300FB0EF69E4204FA02F408D91CEB7C
:10047C00030300F1FF382FD29E422DD9023863447A
:10048C009B1B89B2B3FBF7F607FB163341EA03411A
:10049C0006FB0EF38B4208D91CEB010106F1FF3869
:1004AC0016D28B4214D9023E6144C91A46EA004660
:1004BC0038E72E46284605E70646E3E61846F8E6F2
:1004CC004B45A9D2B9EB020864EB0C0E0138A3E73B
:1004DC004646EAE7204694E74046D1E7D0467BE71C
:1004EC00023B614432E7304609E76444023842E794
:1004FC00704700BF80B58EB000AF03F06AF900F012
:10050C006FFA00F027FD00F0F7FA00F0E1FB00F0C5
:10051C005FFC00F09BFC00F0D1FC00F0AFFA00F0A7
:10052C00F9FD4FF47A730722A049A14808F0BAFAF2
:10053C00A04B03221A70A04B00221A7001F0C4FCCD
:10054C0001F058FE00237B630DE07B6B5B009B4A44
:10055C000021D1547B6B5B000133984A0021D154AC
:10056C007B6B01337B637B6B372BEEDD934B002274
:10057C0083F86D2001F00CFF904B93F86420904BA6
:10058C001A708F4B1B781A4613469B0013445B0062
:10059C003B630023FB620EE0884A3B6B13441978E3
:1005AC00884AFB6A13440A461A70FB6A0133FB62E1
:1005BC003B6B01333B63824B1B785A1C13469B00ED
:1005CC0013445B001A463B6B9342E5DB7E4B0022E7
:1005DC001A700023BB620EE0BB6A5B00794AD35CE5
:1005EC00FF2B05D0784B1B780133DAB2764B1A709F
:1005FC00BB6A0133BB62BB6A042BEDDD00237B625B
:10060C0011E07B6A4DF6A86202FB03F36F4A1A44B1
:10061C007B6A5B006B49CB5C1946104602F0ACF868
:10062C007B6A01337B62684B1B781A467B6A934268
:10063C00E7DB01220221664804F0C4FD01224FF4DD
:10064C008051644804F0BEFD02226349634807F000
:10065C00C9FB00233B6207E0614A3B6A1344FF225B
:10066C001A703B6A01333B625E4B1B685E4A126830
:10067C0003FB02F213465B001A443B6A9A42EBD826
:10068C004D4B1B78002B40F0ED804A4B1B78002B18
:10069C0009D1564B1B781946554801F0D7FF5448E1
:1006AC0001F05EFB18E1434B1B78012B39D1002381
:1006BC00FB77504B1B78BB6121E0052003F0FEF863
:1006CC003D4B1B78002B07D13A4B1B78012B03D1E8
:1006DC00494B1B78012B02D10123FB7715E0BB6939
:1006EC00DBB21946424801F0B1FF414801F038FB3A
:1006FC00BB69DAB23D4B1A70BB690133BB613F4B2E
:10070C001B781A46BB699342D7DDFB7F002B03D1C4
:10071C00364B00221A70CCE7FB7F012B00F0DB80FC
:10072C00C7E7244B1B78032B40F0D6800023FB71CA
:10073C00334B1B78002BFBD001F05CFD01F028FE45
:10074C001E4B93F864201E4B1A701D4B1B781A46D7
:10075C0013469B0013445B007B6100233B610EE05E
:10076C00164A7B6913441978164A3B6913440A46A6
:10077C001A703B6901333B617B6901337B61104B20
:10078C001B785A1C13469B0013445B001A467B696A
:10079C009342E5DB1B4B00221A70194B00221A7096
:1007AC00094B00221A700023FB603CE0B89700084C
:1007BC003402002080DE072081DE072038BD0820AF
:1007CC0033BD0820A8BD0820B3BD0820687D0320D8
:1007DC00000800480014004830BD0820D00100205B
:1007EC0084DE072000000020040000202CBD08201F
:1007FC00C09E0220C402002032BD08200A00002046
:10080C0034BD0820B2BD0820FB685B00614AD35C94
:10081C00FF2B05D0604B1B780133DAB25E4B1A709C
:10082C00FB680133FB60FB68042BEDDD0023BB6030
:10083C0011E0BB684DF6A86202FB03F3574A1A4459
:10084C00BB685B005349CB5C1946104601F094FF22
:10085C00BB680133BB60504B1B781A46BB68934294
:10086C00E7DB65E74E4B1B78012B2CD14D4B1B78EE
:10087C00022B24D1052003F021F8494B1B78012BC6
:10088C002AD1484B1B78022B26D1474B1B78012BC6
:10089C0022D0464801F064FA052003F00FF8404BD3
:1008AC001B78012B18D13F4B1B78022B14D13E4BDC
:1008BC001B78012B10D03E4801F052FADAE73B4886
:1008CC0001F04EFA08E0364B1B78022B04D1384865
:1008DC0001F046FA00E000BF334B1B78012B55D1D9
:1008EC00344B1B789BB21B029AB2334B1B789BB2D6
:1008FC001344BB80BB88314AA2FB03235B089AB22A
:10090C002F4B1A80BB882D4AA2FB03235B089AB29B
:10091C002C4B1A802A4B1A882A4B1B8813449BB2E7
:10092C00BA88D31A9AB2284B1A80284B1B789BB2E0
:10093C001B029AB2264B1B789BB213447B807B889C
:10094C001E4AA2FB03235B089AB2224B1A807B88B7
:10095C001A4AA2FB03235B089AB21F4B1A801D4B49
:10096C001A881D4B1B8813449BB27A88D31A9AB2EF
:10097C001A4B1A8002F05EFA02F06AFB00F0CAFB16
:10098C000A2002F09BFF084B00221A700A2002F08A
:10099C0095FF75E6A8BD0820B3BD0820687D03202F
:1009AC0081DE072080DE072032BD082070E10020A8
:1009BC0018C001200C0000200D000020ABAAAAAA30
:1009CC001200002014000020100000200E00002057
:1009DC000F000020180000201A0000201600002034
:1009EC0080B596B000AF07F11403442200211846DD
:1009FC0008F0C8FE3B4600221A605A609A60DA6022
:100A0C001A61002004F096FF0346002B01D002F07F
:100A1C0091FC01237B614FF48033BB610223FB63A8
:100A2C0003233B6401237B641E23BB640223FB640E
:100A3C0002233B6502237B6507F11403184605F07E
:100A4C002DF80346002B01D002F074FC0F233B6001
:100A5C0003237B600023BB600023FB6000233B610E
:100A6C003B460521184605F033FC0346002B01D00C
:100A7C0002F060FC00BF5837BD4680BD80B500AFAA
:100A8C001B4B1C4A1A601A4B00225A60184B01224D
:100A9C009A60174B0022DA60154B00229A61144BB6
:100AAC000022DA61124B00221A64114B01225A64A3
:100ABC000F4B00229A640E4B0022DA640C4B00227E
:100ACC001A650B4B00225A65094803F08BF8034654
:100ADC00002B01D002F02EFC0121054803F0F8F99F
:100AEC000346002B01D002F025FC00BF80BD00BFE7
:100AFC004800002000B0024080B5AEB000AF07F156
:100B0C00AC0300221A605A609A6007F18803242211
:100B1C000021184608F036FE07F1700300221A6017
:100B2C005A609A60DA601A615A613B1D6C2200218E
:100B3C00184608F027FE644B644A1A60624B002288
:100B4C005A60614B02229A605F4B0022DA603223BA
:100B5C00C7F8AC300123C7F8B0300123C7F8B43064
:100B6C0007F1AC031946584803F03EFB0346002B33
:100B7C0001D002F0DFFB0123C7F888300023C7F84F
:100B8C008C300023C7F890300023C7F89430002332
:100B9C00C7F898300023C7F89C300023C7F8A03062
:100BAC000023C7F8A4300023C7F8A83007F1880346
:100BBC001946454803F08BFF0346002B01D002F089
:100BCC00B9FB13233B670F237B670923BB670A23FE
:100BDC00FB670023C7F880300023C7F8843007F187
:100BEC0070031946384803F008FF0346002B01D068
:100BFC0002F0A0FB42F21071334804F024F90346D2
:100C0C00002B01D002F096FB00212F4803F008FCCA
:100C1C000346002B01D002F08DFB00237B600523E3
:100C2C00BB600023FB6001233B6178237B610123C4
:100C3C00BB610023FB6100233B6200237B6200232A
:100C4C00BB62B823FB62B4233B634FF426737B6314
:100C5C000923BB630823FB6308233B649C237B644D
:100C6C004FF40043BB641C23FB6450233B654FF4DF
:100C7C0000537B654FF48053BB654FF40063FB65F9
:100C8C004FF480633B664FF400737B664FF48073C4
:100C9C00BB660023FB663B1D19460B4803F0A5FC05
:100CAC000346002B01D002F045FB0021064803F05F
:100CBC0074FC0346002B01D002F03CFB00F036FC28
:100CCC0000BFB837BD4680BDA8000020006C0140B5
:100CDC0080B58EB000AF3B1D34220021184608F0C1
:100CEC0051FD384B384A1A60364B4FF000425A606F
:100CFC00344B4FF080429A60324B0022DA60314B19
:100D0C0000221A612F4BB7225A612E4B08229A618E
:100D1C002C4B40F26B12DA612A4B10221A62294BCF
:100D2C0040F2E3125A62274BAC229A62254B40F2F6
:100D3C009722DA62234BB4221A63224BFF2283F8E8
:100D4C003420204BFF2283F835201E4BFF2283F8E2
:100D5C0036201C4804F066FA0346002B01D002F042
:100D6C00E9FA00237B607823BB600023FB609C23A3
:100D7C003B6101237B61FF23BB610023FB614FF4CB
:100D8C0080633B6205237B62104BBB627823FB6262
:100D9C009C233B63FF2387F83430FF2387F83530DF
:100DAC00FF2387F836303B1D00221946054804F016
:100DBC00CBFB0346002B01D002F0BCFA00BF383746
:100DCC00BD4680BDC40000200068014084DE0720C1
:100DDC0080B500AF1B4B1C4A1A601A4B4FF4827241
:100DEC005A60184B00229A60164B4FF4E062DA609E
:100DFC00144B00221A61134B00225A61114B4FF411
:100E0C0000729A610F4B0822DA610E4B00221A62B3
:100E1C000C4B00225A620B4B00229A62094B0722A0
:100E2C00DA62084B00221A63064B08225A63054803
:100E3C0006F084FA0346002B01D002F07BFA00BFC7
:100E4C0080BD00BF6C0100200038004080B500AFB1
:100E5C00184B194A1A60174B00225A60154B002286
:100E6C009A60144B4FF4E062DA60124B00221A6164
:100E7C00104B00225A610F4B00229A610D4B00223D
:100E8C001A620C4B00225A620A4B00229A62094BDE
:100E9C000722DA62074B00221A63064B00225A63C0
:100EAC00044806F04BFA0346002B01D002F042FA3C
:100EBC0000BF80BDD0010020003C004080B500AFD9
:100ECC00224B234A1A60214B4FF4E1325A601F4BDC
:100EDC0000229A601D4B0022DA601C4B00221A6122
:100EEC001A4B0C225A61194B00229A61174B0022A3
:100EFC00DA61164B00221A62144B00225A62134B11
:100F0C0000229A62114807F07DFD0346002B01D0A8
:100F1C0002F010FA00210D4808F046FB0346002BA6
:100F2C0001D002F007FA0021084808F07BFB0346C9
:100F3C00002B01D002F0FEF9044808F0FCFA03463D
:100F4C00002B01D002F0F6F900BF80BD3402002066
:100F5C00004C004080B58CB000AF07F11C030022A0
:100F6C001A605A609A60DA601A61654BDB6C644AED
:100F7C0043F04003D364624BDB6C03F04003BB6172
:100F8C00BB6904F07BFD5E4BDB6C5D4A43F00403F4
:100F9C00D3645B4BDB6C03F004037B617B69584BC4
:100FAC00DB6C574A43F00203D364554BDB6C03F004
:100FBC0002033B613B69524BDB6C514A43F0080323
:100FCC00D3644F4BDB6C03F00803FB60FB684C4BAA
:100FDC00DB6C4B4A43F00103D364494BDB6C03F0ED
:100FEC000103BB60BB68464BDB6C454A43F0800396
:100FFC00D364434BDB6C03F080037B607B68404B1A
:10100C00DB6C3F4A43F02003D3643D4BDB6C03F0B5
:10101C0020033B603B6800224FF40071394804F018
:10102C00D1F801224FF48251364804F0CBF800225B
:10103C000221354804F0C6F800224FF480513348A1
:10104C0004F0C0F84FF49253FB6101233B62002380
:10105C007B620323BB6207F11C031946294803F08A
:10106C001FFF4FF48073FB614FF488133B62022324
:10107C007B6207F11C0319464FF0904003F010FF00
:10108C004FF48053FB614FF488133B6202237B6265
:10109C0007F11C0319461E4803F002FF0223FB61F3
:1010AC0001233B6200237B620323BB6207F11C0319
:1010BC001946154803F0F4FE4FF48053FB610123ED
:1010CC003B6200237B620323BB6207F11C031946BE
:1010DC000E4803F0E5FE00220021172002F0EDFC83
:1010EC00172002F006FD00220321282002F0E5FC67
:1010FC00282002F0FEFC00BF3037BD4680BD00BF8B
:10110C000010024000040048000800480014004889
:10111C00000C004890B5AFB002AFC44803F09DFD81
:10112C000346002B01D002F005F9C3230093F023F2
:10113C0015220021BD4803F0CCFD96230093F0232B
:10114C0015220021B94803F0C4FDB94A07F1A803E0
:10115C0092E8030018600433198002330A0C1A70E9
:10116C0007F1A8030193E7230093082339220021F8
:10117C00AE4803F0D0FDAF4A07F1A4031268114644
:10118C0019800233120C1A7007F1A4030193A423E3
:10119C000093042339220021A44803F0BCFDA64B84
:1011AC00C7F8A03007F1A0030193C32300930523D4
:1011BC00392200219D4803F0AEFD9F4BC7F89C30AF
:1011CC0007F19C030193C4230093052339220021CA
:1011DC00964803F0A0FD994A07F1900307CA83E8EB
:1011EC00070007F190030193E52300930D233922A7
:1011FC0000218E4803F08FFD904A07F1840307CA43
:10120C0083E8070007F184030193E62300930D2381
:10121C0039220021854803F07EFD894A07F17C03C1
:10122C0092E8030018600433198002330A0C1A7018
:10123C0007F17C030193EC2300930823392200214E
:10124C007A4803F068FD7F4BBB6707F17803019385
:10125C00C1230093052339220021744803F05BFD60
:10126C00784B7B6707F174030193C223009305232A
:10127C00392200216D4803F04EFD082300933623DC
:10128C0015220021694803F024FD072300933A231B
:10129C0015220021654803F01CFDBE230093C523D5
:1012AC0015220021614803F014FD674B07F164041B
:1012BC000FCB07C4238007F164030193E023009351
:1012CC000F2339220021594803F025FD5F4B07F10C
:1012DC0054040FCB07C4238007F154030193E1237B
:1012EC0000930F2339220021504803F014FD1023E2
:1012FC000093B223152200214C4803F0EAFC012391
:10130C000093B32315220021484803F0E2FC01238B
:10131C000093B42315220021444803F0DAFC40F674
:10132C004D63A7F8503007F150030193B623009397
:10133C000323392200213D4803F0EDFC4FF05423E8
:10134C00FB6407F14C030193B52300930523392269
:10135C000021364803F0DFFC3D4A07F1400307CA81
:10136C0003C31A7007F140030193A52300930A23CA
:10137C00392200212D4803F0CEFC354A07F1340305
:10138C0007CA03C31A7007F134030193A623009311
:10139C000A2339220021254803F0BDFC2D4A07F110
:1013AC002C0392E8030018600433198002330A0CF2
:1013BC001A7007F12C030193BA23009308233922E6
:1013CC0000211A4803F0A7FC234A07F1240392E8F2
:1013DC00030083E8030007F124030193BB2300936C
:1013EC00092339220021114803F095FC1A4A07F110
:1013FC001C0392E8030083E8030007F11C0301932C
:10140C00BC230093092339220021084803F083FCF4
:10141C00124A07F1100307CA03C31A800233120CD5
:10142C001A7007F1100301931AE000BFA800002006
:10143C00C0970008C897000842052403CC97000801
:10144C00D897000888050F18E0970008F097000857
:10145C00009800080C980008149800081C980008C4
:10146C00BD2300930C23392200212D4803F053FC9B
:10147C00C3230093ED2315220021294803F029FCF6
:10148C00284A07F10C031268114619800233120C1A
:10149C001A7007F10C030193E423009304233922FF
:1014AC0000211F4803F037FC1F4A3B4607CA03C301
:1014BC001A703B460193CC2300930A233922002156
:1014CC00174803F028FC0023009335231522002134
:1014DC00134803F0FEFB002002F0F0F90023009308
:1014EC001123052200210E4803F0F3FB782002F0B3
:1014FC00E5F900230093292305220021084803F075
:10150C00E8FB782002F0DAF900230093352315224A
:10151C000021034803F0DDFB00BFB437BD4690BD8E
:10152C00A8000020289800082C98000880B500AF6F
:10153C0000224021074803F045FE142002F0BEF9BA
:10154C0001224021034803F03DFE782002F0B6F959
:10155C0000BF80BD0004004880B584B000AF0346D6
:10156C00FB7100233B7300233B7207F10C014FF41A
:10157C007A730122784806F0F2F807F108014FF46B
:10158C007A730122744806F0EAF8FB79012B40F0DB
:10159C00DA803B7B212B00F2DB8001A252F823F096
:1015AC003516000845160008551600086316000885
:1015BC00711600087F1600088D1600089516000895
:1015CC005717000857170008571700089D160008F2
:1015DC00A5160008AD160008B5160008BD160008C3
:1015EC00C5160008571700085717000857170008AA
:1015FC005717000857170008571700085717000807
:10160C00271700082F1700085D1700085D17000842
:10161C005D1700085D1700085D1700085D170008CE
:10162C005D1700083D1700083B7A1A464B4B1A60B1
:10163C004B4B01221A708BE03B7A1A46494B1A60CD
:10164C00474B01221A7083E03A7A474B1A70444B8D
:10165C0001221A707CE03A7A444B1A70404B0122FA
:10166C001A7075E03A7A424B1A703D4B01221A708F
:10167C006EE03A7A3F4B1A70394B01221A7067E0D0
:10168C003A7A3D4B1A7063E03A7A3C4B1A705FE041
:10169C003A7A3B4B1A705BE03A7A3A4B1A7057E045
:1016AC003A7A394B1A7053E03A7A384B1A704FE049
:1016BC003A7A374B1A704BE03B7A03F00303032B57
:1016CC000ED0032B10DC002B02D0012B04D00BE02E
:1016DC00304B01221A7007E02E4B02221A7003E0E5
:1016EC002C4B00221A7000BF3B7A03F00C03082B22
:1016FC000ED0082B2BDC002B02D0042B04D026E0C0
:10170C00254B00221A7007E0234B02221A7003E0CB
:10171C00214B01221A7000BF19E03A7A1F4B1A7044
:10172C0016E01C4B01221A701B4B02221A700FE0A0
:10173C003A7A1B4B83F86420174B03221A70194B0F
:10174C0001221A7004E000BF02E000BF00E000BFFD
:10175C0000BF1037BD4680BDD00100200000002026
:10176C0032BD0820040000200C0000200D000020D9
:10177C000E0000200F0000200800002009000020AF
:10178C001C0000201D000020C40200202CBD0820DD
:10179C000A00002081DE072080DE07200B000020DD
:1017AC0038BD082034BD082080B584B000AF786007
:1017BC007B68AE4A934201D10223FB607B68AC4A42
:1017CC00934201D10323BB60AA4B1B7803F0C003E7
:1017DC00C02B00F0E981C02B00F3A082802B00F01D
:1017EC00D781802B00F39A82002B03D0402B00F082
:1017FC00718193E29F4B1B7803F03803382B00F276
:10180C00868201A252F823F0F91800081B1D00086B
:10181C001B1D00081B1D00081B1D00081B1D0008BC
:10182C001B1D00081B1D0008AB1900081B1D000820
:10183C001B1D00081B1D00081B1D00081B1D00089C
:10184C001B1D00081B1D00085D1A00081B1D00084D
:10185C001B1D00081B1D00081B1D00081B1D00087C
:10186C001B1D00081B1D0008DD1A00081B1D0008AD
:10187C001B1D00081B1D00081B1D00081B1D00085C
:10188C001B1D00081B1D0008DD1A00081B1D00088D
:10189C001B1D00081B1D00081B1D00081B1D00083C
:1018AC001B1D00081B1D0008DD1A00081B1D00086D
:1018BC001B1D00081B1D00081B1D00081B1D00081C
:1018CC001B1D00081B1D0008DD1A00081B1D00084D
:1018DC001B1D00081B1D00081B1D00081B1D0008FC
:1018EC001B1D00081B1D0008DD1A0008614B1B782E
:1018FC0003F00703042B3ED0042B4CDC002B02D04E
:10190C00012B14D047E05C4B1B78012B45D15B4B72
:10191C001B689AB25A4B1B689BB212FB03F39AB228
:10192C004FF47A735749584805F019FF35E0524B7C
:10193C001B78022B0FD1514B1B689AB2504B1B6872
:10194C009BB212FB03F39AB24FF47A734D494E4893
:10195C0005F005FF22E0494B1B689AB2484B1B6807
:10196C009BB212FB03F39AB24FF47A734749464881
:10197C0005F0F5FE12E0414B1B689AB2404B1B6818
:10198C009BB212FB03F39AB24FF47A733D493E4873
:10199C0005F0E5FE02E000BF9BE000BF99E0354B8F
:1019AC001B7803F00703042B3ED0042B4CDC002BDC
:1019BC0002D0012B14D047E02F4B1B78012B45D1C3
:1019CC002E4B1B689AB22E4B1B689BB212FB03F377
:1019DC009AB24FF47A732E492B4805F0C0FE35E0CD
:1019EC00254B1B78022B0FD1244B1B689AB2244B2E
:1019FC001B689BB212FB03F39AB24FF47A7324491F
:101A0C00214805F0ACFE22E01C4B1B689AB21C4B23
:101A1C001B689BB212FB03F39AB24FF47A731B4907
:101A2C00194805F09CFE12E0144B1B689AB2144B3B
:101A3C001B689BB212FB03F39AB24FF47A731449EE
:101A4C00114805F08CFE02E000BF42E000BF40E010
:101A5C00084B1B7803F00703042B33D0042B35DC25
:101A6C00002B17D0012B21D030E000BF00380040F4
:101A7C00003C004030BD08201E000020000000206B
:101A8C000400002070E10020D0010020C8020020DA
:101A9C0018C00120AC4B1B78012B03D10120FFF7A0
:101AAC005BFD14E00020FFF757FD10E0A64B1B7800
:101ABC00022B03D10120FFF74FFD08E00020FFF7B8
:101ACC004BFD04E00120FFF747FD00E000BF00E004
:101ADC0000BF1CE19D4B1B7803F03803282B00F250
:101AEC00188101A252F823F0991B00081F1D000851
:101AFC001F1D00081F1D00081F1D00081F1D0008CA
:101B0C001F1D00081F1D0008991B00081F1D000841
:101B1C001F1D00081F1D00081F1D00081F1D0008A9
:101B2C001F1D00081F1D0008991B00081F1D000821
:101B3C001F1D00081F1D00081F1D00081F1D000889
:101B4C001F1D00081F1D0008991B00081F1D000801
:101B5C001F1D00081F1D00081F1D00081F1D000869
:101B6C001F1D00081F1D0008991B00081F1D0008E1
:101B7C001F1D00081F1D00081F1D00081F1D000849
:101B8C001F1D00081F1D0008991B000800BFC0E0A6
:101B9C006E4B1B7803F03803002B03D0202B40F046
:101BAC00BA8000E000BFB6E0684B1B7803F0380346
:101BBC00202B00F0AA80202B00F3AF80002B02D04A
:101BCC00082B78D0A9E0614B1B7803F00703042B9A
:101BDC004CD0042B69DC002B02D0012B23D064E009
:101BEC005B4B1B689AB25B4B1B689BB212FB03F3FB
:101BFC009AB24FF47A735849584805F0B0FD524BDD
:101C0C001B78012B53D1514B5B78013BDBB218464F
:101C1C0000F0FAFF4D4B5B78013BDBB219464E48A6
:101C2C0000F044FC43E04A4B1B689AB2494B1B68DA
:101C3C009BB212FB03F39AB24FF47A7346494748AE
:101C4C0005F08DFD404B1B78022B32D13F4B5B785E
:101C5C00013BDBB2184600F0D7FF3C4B5B78013BF5
:101C6C00DBB219463C4800F021FC22E0384B1B68E3
:101C7C009AB2384B1B689BB212FB03F39AB24FF427
:101C8C007A733549354805F06AFD304B5B78013B7A
:101C9C00DBB2184600F0B8FF2C4B5B78013BDBB293
:101CAC0019462D4800F002FC04E000BF2EE000BFF6
:101CBC002CE000BF2AE0254B1B7803F00703042B14
:101CCC0014D0042B1DDC002B01D0012B1CE01E4B6F
:101CDC001B78012B17D101F06DF81C4B5B78013B85
:101CEC00DBB219461C4800F0B1FC0CE001F062F8C4
:101CFC00164B5B78013BDBB21946174800F0A6FC8B
:101D0C0002E000BF02E000BF00E000BF05E000BF42
:101D1C0004E000BF02E000BF00E000BF0B4B1B78EB
:101D2C0003F00703002B02D0012B02D002E000BF0E
:101D3C0000E000BF02220549084806F053F800BF36
:101D4C001037BD4680BD00BF1E00002030BD0820EE
:101D5C000000002004000020C8020020D001002058
:101D6C0080B48BB000AF786000237B62354B1B785E
:101D7C001AB2354B1B781B021BB213431BB27B816F
:101D8C0000233B620DE07A893B6A42FA03F303F0CD
:101D9C000103002B02D07B6A01337B623B6A013367
:101DAC003B623B6A0B2BEEDD0023FB610023BB6126
:101DBC0000237B6100233B6134E00023BB610023E3
:101DCC007B610023FB6022E07A89FB6842FA03F313
:101DDC0003F00103002B14D0FA69BB691344FB61B7
:101DEC003A697B6913441A467B6813441978174A7D
:101DFC00FB6913440A461A707B6901337B6100232B
:101E0C00BB61BB690133BB61FB680133FB60FB68E1
:101E1C000B2BD9DDFA69BB691344FB613A697B6A08
:101E2C0013443B610A4B1B680A4A126803FB02F21B
:101E3C003B699A42C1D800BF00BF2C37BD465DF844
:101E4C00047B70471C0000201D00002084DE07204E
:101E5C00000000200400002080B582B000AF0023F9
:101E6C003B7100224FF480510E4803F0ABF905236F
:101E7C003B7039464FF47A7301220B4805F001FB95
:101E8C00391D4FF47A730122074805F068FC0122D2
:101E9C004FF48051034803F095F93B791846083705
:101EAC00BD4680BD000400486C01002080B500AF29
:101EBC0000BFFFF7D1FF034603F00103012BF8D05D
:101ECC0000BF00BF80BD000080B483B000AF002312
:101EDC007B600FE07B685B007A68D1B2C44AD15456
:101EEC007B685B0001337A68D1B2C14AD1547B68FC
:101EFC0001337B607B686E2BECDDBD4B002283F8DD
:101F0C006420BB4B00221A70B94B02225A70B84B9A
:101F1C0001229A70B64B0222DA70B54BFF221A716D
:101F2C00B34B01225A71B24BFF229A71B04B012272
:101F3C00DA71AF4BFF221A72AD4B01225A72AC4BC5
:101F4C0000229A72AA4B0422DA72A94B01221A734C
:101F5C00A74B04225A73A64BFF229A73A44B01225F
:101F6C00DA73A34BFF221A74A14B01225A74A04BB3
:101F7C00FF229A749E4B0122DA749D4B02221A7531
:101F8C009B4B02225A759A4B03229A75984B02224C
:101F9C00DA75974B04221A76954B02225A76944B9B
:101FAC0005229A76924B0222DA76914BFF221A770F
:101FBC008F4B01225A778E4B02229A778C4B04223C
:101FCC00DA778B4B032283F82020894B042283F889
:101FDC002120874B042283F82220854B042283F88E
:101FEC002320834B052283F82420814B042283F881
:101FFC0025207F4BFF2283F826207D4B012283F87E
:10200C0027207B4B072283F82820794B022283F868
:10201C002920774B082283F82A20754B022283F85B
:10202C002B20734B092283F82C20714B022283F84E
:10203C002D206F4B0A2283F82E206D4B022283F841
:10204C002F206B4BFF2283F83020694B012283F841
:10205C003120674B072283F83220654B042283F82A
:10206C003320634B082283F83420614B042283F81D
:10207C0035205F4B092283F836205D4B042283F810
:10208C0037205B4B0A2283F83820594B042283F803
:10209C003920574BFF2283F83A20554B042283F802
:1020AC003B20534B0B2283F83C20514B022283F8EC
:1020BC003D204F4B0C2283F83E204D4B022283F8DF
:1020CC003F204B4BFF2283F84020494B012283F8E1
:1020DC004120474BFF2283F84220454B012283F8D5
:1020EC004320434BFF2283F84420414B012283F8C9
:1020FC0045203F4B0B2283F846203D4B042283F8AE
:10210C0047203B4B0C2283F84820394B042283F8A0
:10211C004920374BFF2283F84A20354B012283F8A4
:10212C004B20334BFF2283F84C20314B012283F898
:10213C004D202F4BFF2283F84E202D4B012283F88C
:10214C004F202B4B0D2283F85020294B022283F871
:10215C005120274B0E2283F85220254B022283F864
:10216C005320234BFF2283F85420214B012283F868
:10217C0055201F4BFF2283F856201D4B012283F85C
:10218C0057201B4BFF2283F85820194B012283F850
:10219C005920174B0D2283F85A20154B042283F833
:1021AC005B20134B0E2283F85C20114B042283F826
:1021BC005D200F4BFF2283F85E200D4B012283F82C
:1021CC005F200B4BFF2283F86020094B012283F820
:1021DC006120074BFF2283F86220054B012283F814
:1021EC00632000BF0C37BD465DF8047B704700BF11
:1021FC0038BD082080B58CB000AF0023FB62604B6B
:10220C001B78002B02D10423FB620CE05C4B1B7887
:10221C00012B02D10223FB6205E0594B1B78022BE8
:10222C0001D10123FB621F233B623B6ADBB21846E0
:10223C0000F0EAFC3A6AFB6A92FBF3F3FB613B6A3F
:10224C00FA6A93FBF2F2F96A01FB02F29B1ABB6188
:10225C000023BB624FF48072FB6A92FBF3F3BA6902
:10226C0002FB03F37B6276E000224FF48051454879
:10227C0002F0A8FF06233B7507F114014FF47A73A3
:10228C000122414805F0FDF801224FF480513D48F0
:10229C0002F098FF0A2000F0AFFF00224FF48051AB
:1022AC00384802F08FFF02233B7407F110014FF402
:1022BC007A730122344805F0E4F8FB69DBB23B7316
:1022CC0007F10C014FF47A7301222F4805F0D9F86D
:1022DC007B6ADBB23B7207F108014FF47A7301227F
:1022EC00294805F0CEF800233B71391D4FF47A7361
:1022FC000122254805F0C5F84FF47A736E22234964
:10230C00214805F0BEF801224FF480511D4802F01F
:10231C0059FF0A2000F070FF00224FF48051194839
:10232C0002F050FF04233B7039464FF47A730122BC
:10233C00154805F0A6F801224FF48051114802F01F
:10234C0041FF4FF47A7000F057FFBB6A0133BB6258
:10235C007B6A01337B62BB6901334FF48071FA6A8B
:10236C0091FBF2F202FB03F31A467B6A9342FFF4F1
:10237C007BAFFFF79BFD00BF3037BD4680BD00BF74
:10238C000B000020000400486C01002038BD082020
:10239C0080B58AB000AF00237B62404B1B78002BCA
:1023AC0002D104237B620CE03C4B1B78012B02D145
:1023BC0002237B6205E0394B1B78022B01D10123F0
:1023CC007B621F23FB61FA697B6A92FBF3F3BB61AF
:1023DC00FB697A6A93FBF2F2796A01FB02F29B1AAF
:1023EC007B6100233B614FF480727B6A92FBF3F3B9
:1023FC007A6902FB03F33B623DE000224FF480510B
:10240C00274802F0DFFE03233B7307F10C014FF466
:10241C007A730122234805F034F8BB69DBB23B72B6
:10242C0007F108014FF47A7301221E4805F029F8D0
:10243C003B6ADBB23B71391D4FF47A7301221948A8
:10244C0005F01FF800233B7039464FF47A730122D4
:10245C00144805F016F84FF47A736E22124911489D
:10246C0005F07DF901224FF480510D4802F0AAFECF
:10247C003B6A01333B627B6901334FF480717A6AAA
:10248C0091FBF2F202FB03F31A463B6A9342B4D37C
:10249C0000BF00BF2837BD4680BD00BF0B00002029
:1024AC00000400486C01002038BD082080B58EB0B7
:1024BC0000AF78600B46FB7000237B63604B1B788E
:1024CC00002B02D104237B630CE05D4B1B78012BAA
:1024DC0002D102237B6305E0594B1B78022B01D1FF
:1024EC0001237B63FA787B6B92FBF3F3BB62FB7883
:1024FC007A6B93FBF2F2796B01FB02F29B1A7B6213
:10250C0000233B634FF480727B6B92FBF3F37A6A8C
:10251C0002FB03F3FB627EE000224FF4805149483A
:10252C0002F050FE062387F8203007F120014FF40B
:10253C007A730122444804F0A4FF01224FF4805125
:10254C00404802F03FFE0A2000F056FE00224FF4F5
:10255C0080513C4802F036FE02233B7707F11C0108
:10256C004FF47A730122384804F08BFFBB6ADBB25C
:10257C003B7607F118014FF47A730122324804F0CC
:10258C0080FFFB6ADBB23B7507F114014FF47A73E1
:10259C0001222D4804F075FF00233B7407F1100154
:1025AC004FF47A730122284804F06BFF3B6B1B023B
:1025BC001A467B6899184FF47A734FF4807222484C
:1025CC0004F05FFF01224FF480511E4802F0FAFD27
:1025DC000A2000F011FE00224FF48051194802F03D
:1025EC00F1FD04233B7307F10C014FF47A730122C4
:1025FC00154804F046FF01224FF48051114802F0B7
:10260C00E1FD4FF47A7000F0F7FD3B6B01333B6357
:10261C00FB6A0133FB627B6A01334FF480717A6B86
:10262C0091FBF2F202FB03F31A46FB6A9342FFF4AE
:10263C0073AFFFF73BFC00BF3837BD4680BD00BF12
:10264C000B000020000400486C01002080B58CB009
:10265C0000AF78600B46FB700023FB62434B1B788A
:10266C00002B02D10423FB620CE0404B1B78012BA6
:10267C0002D10223FB6205E03C4B1B78022B01D1FB
:10268C000123FB62FA78FB6A92FBF3F33B62FB7863
:10269C00FA6A93FBF2F2F96A01FB02F29B1AFB61F4
:1026AC000023BB624FF48072FB6A92FBF3F3FA696E
:1026BC0002FB03F37B6247E000224FF480512C486D
:1026CC0002F080FD03233B7607F118014FF47A7377
:1026DC000122284804F0D5FE3B6ADBB23B7507F1BA
:1026EC0014014FF47A730122224804F0CAFE7B6A6B
:1026FC00DBB23B7407F110014FF47A7301221D48D1
:10270C0004F0BFFE00233B7307F10C014FF47A7306
:10271C000122184804F0B5FEBB6A1B021A467B68FE
:10272C0099184FF47A734FF48072124805F017F829
:10273C0001224FF480510E4802F044FDBB6A013374
:10274C00BB627B6A01337B62FB6901334FF480719E
:10275C00FA6A91FBF2F202FB03F31A467B6A93428C
:10276C00AAD300BF00BF3037BD4680BD0B00002090
:10277C00000400486C01002080B5ADF55E4DBEB084
:10278C0000AF07F6F863A3F6F46318600A4607F681
:10279C00F863A3F6F5631A70002307F55E4202F1A5
:1027AC00F4021360C14B1B78002B06D1042307F5F0
:1027BC005E4202F1F402136014E0BC4B1B78012B57
:1027CC0006D1022307F55E4202F1F402136009E020
:1027DC00B64B1B78022B05D1012307F55E4202F1A3
:1027EC00F402136007F6F863A3F6DC6300221A60A8
:1027FC0004334DF6A4620021184606F0C3FF07F11E
:10280C00F803DC3B4DF6A8620021184606F0BAFF2F
:10281C0007F6F863A3F6F5631A7807F55E4303F140
:10282C00F4031B6892FBF3F307F55E4202F1CC0252
:10283C00136007F6F863A3F6F5631B7807F55E42A1
:10284C0002F1F402126893FBF2F207F55E4101F11A
:10285C00F401096801FB02F29B1A07F55E4202F1D2
:10286C00C8021360002307F55E4202F1F002136008
:10287C004FF4807207F55E4303F1F4031B6892FB7F
:10288C00F3F307F55E4202F1C802126802FB03F390
:10289C0007F55E4202F1EC02136078E000224FF47F
:1028AC008051834802F08EFC07F6F863A3F56E6343
:1028BC0003221A7007F1F801E0394FF47A73012200
:1028CC007C4804F0DEFD07F55E4303F1CC031B6886
:1028DC00DAB207F6F863A3F6E4631A7007F1F801AD
:1028EC00E4394FF47A730122724804F0CAFD07F5FB
:1028FC005E4303F1EC031B68DAB207F6F863A3F648
:10290C00E8631A7007F1F801E8394FF47A73012281
:10291C00684804F0B6FD07F6F863A3F6EC630022F2
:10292C001A7007F1F801EC394FF47A7301226148FF
:10293C0004F0A7FD07F55E4303F1F0031B681A02D0
:10294C0007F1F803DC3B99184FF47A734FF480725B
:10295C00584804F004FF01224FF48051544802F00F
:10296C0031FC07F55E4303F1F0031B68013307F5F7
:10297C005E4202F1F002136007F55E4303F1EC03D3
:10298C001B68013307F55E4202F1EC02136007F598
:10299C005E4303F1C8031B6801334FF4807107F5E4
:1029AC005E4202F1F402126891FBF2F202FB03F3B5
:1029BC001A4607F55E4303F1EC031B689342FFF4E0
:1029CC006DAF002307F55E4202F1E80213603A4B4B
:1029DC001B781AB2394B1B781B021BB213431BB268
:1029EC0007F55E4202F1C6021380002307F55E4232
:1029FC0002F1E402136025E007F55E4303F1C60320
:102A0C001A8807F55E4303F1E4031B6842FA03F3EB
:102A1C0003F00103002B0AD007F55E4303F1E80332
:102A2C001B68013307F55E4202F1E802136007F5FB
:102A3C005E4303F1E4031B68013307F55E4202F1C8
:102A4C00E402136007F55E4303F1E4031B680B2BF0
:102A5C00D2DD002307F55E4202F1E0021360002391
:102A6C0007F55E4202F1DC021360002307F55E42BB
:102A7C0002F1D8021360002307F55E4202F1D40282
:102A8C001360A7E0002307F55E4202F1DC0213603D
:102A9C00002307F55E4202F1D8021360002307F50C
:102AAC005E4202F1D00213606DE000BF0B0000200B
:102ABC00000400486C0100201C0000201D000020B8
:102ACC0007F55E4303F1C6031A8807F55E4303F16D
:102ADC00D0031B6842FA03F303F00103002B3CD034
:102AEC0007F55E4303F1E0031A6807F55E4303F153
:102AFC00DC031B68134407F55E4202F1E00213602D
:102B0C0007F55E4303F1D4031A6807F55E4303F13E
:102B1C00D8031B681A4407F55E4303F1E0031B68F6
:102B2C0007F6F861A1F6F46109680B4407F6F86141
:102B3C00A1F6DC618A5C1A7007F55E4303F1D803D9
:102B4C001B68013307F55E4202F1D80213600023C3
:102B5C0007F55E4202F1DC02136007F55E4303F1F8
:102B6C00DC031B68013307F55E4202F1DC021360E3
:102B7C0007F55E4303F1D0031B68013307F55E4292
:102B8C0002F1D002136007F55E4303F1D0031B681A
:102B9C000B2B95DD07F55E4303F1E0031A6807F58F
:102BAC005E4303F1DC031B68134407F55E4202F13C
:102BBC00E002136007F55E4303F1D4031A6807F5CE
:102BCC005E4303F1E8031B68134407F55E4202F110
:102BDC00D40213600A4B1B680A4A126803FB02F208
:102BEC0007F55E4303F1D4031B689A423FF64AAFE4
:102BFC0000BF00BF07F55E47F837BD4680BD00BF7C
:102C0C00000000200400002080B58CB000AF03460B
:102C1C00FB710023FB62644B1B78002B02D1042355
:102C2C00FB620CE0604B1B78012B02D10223FB6290
:102C3C0005E05D4B1B78022B01D10123FB620023C5
:102C4C0087F82B30584B1B78002B03D1042387F8C3
:102C5C002B300EE0544B1B78012B03D1082387F843
:102C6C002B3006E0504B1B78022B02D1102387F837
:102C7C002B30FA79FB6A92FBF3F37B62FB79FA6AED
:102C8C0093FBF2F2F96A01FB02F29B1A3B6200F031
:102C9C0091F8002387F82A307AE000224FF4805113
:102CAC00424802F08FFA06233B7707F11C014FF4E0
:102CBC007A7301223E4804F0E4FB01224FF4805168
:102CCC003A4802F07FFA0A2000F096FA00224FF4FC
:102CDC008051364802F076FA20233B7607F1180132
:102CEC004FF47A730122324804F0CBFB7B6ADBB2DF
:102CFC003B7507F114014FF47A7301222C4804F050
:102D0C00C0FB97F82B303A6A03FB02F297F82A3093
:102D1C001344DBB21B01DBB23B7407F110014FF41F
:102D2C007A730122224804F0ACFB00233B7307F1B9
:102D3C000C014FF47A7301221D4804F0A2FB01220E
:102D4C004FF48051194802F03DFA0A2000F054FA71
:102D5C0000224FF48051154802F034FA04233B72E0
:102D6C0007F108014FF47A730122114804F089FB32
:102D7C0001224FF480510D4802F024FA0A2000F091
:102D8C003BFAFFF793F897F82A30013387F82A308B
:102D9C0097F82A2097F82B309A42FFF47EAF00BFA9
:102DAC0000BF3037BD4680BD0B000020000400483A
:102DBC006C01002080B582B000AF00224FF480512E
:102DCC001A4802F0FFF966233B71391D4FF47A73F0
:102DDC000122174804F055FB01224FF4805113488F
:102DEC0002F0F0F9012000F022FA00224FF4805199
:102DFC000E4802F0E7F999233B7039464FF47A7389
:102E0C0001220B4804F03DFB01224FF4805107488E
:102E1C0002F0D8F9012000F00AFA4FF47A7000F0B1
:102E2C00EBF900BF0837BD4680BD00BF0004004869
:102E3C006C01002080B5AEB000AF07F1AC030022EE
:102E4C001A605A609A6007F1880324220021184600
:102E5C0006F098FC07F1700300221A605A609A6021
:102E6C00DA601A615A613B1D6C220021184606F08B
:102E7C0089FC6D4B6D4A1A606B4B00225A606A4B91
:102E8C0002229A60684B0022DA603223C7F8AC3019
:102E9C000123C7F8B0300123C7F8B43007F1AC03F5
:102EAC001946614801F0A0F90346002B01D000F04F
:102EBC0041FA0123C7F888300023C7F88C3000236F
:102ECC00C7F890300023C7F894300023C7F8983027
:102EDC000023C7F89C300023C7F8A0300023C7F8A4
:102EEC00A4300023C7F8A83007F1880319464E48D0
:102EFC0001F0EDFD0346002B01D000F01BFA13236B
:102F0C003B670F237B670923BB670A23FB670023FF
:102F1C00C7F880300023C7F8843007F170031946D6
:102F2C00414801F06AFD0346002B01D000F002FA83
:102F3C0042F210713C4801F086FF0346002B01D091
:102F4C0000F0F8F90021384801F06AFA0346002B2A
:102F5C0001D000F0EFF900237B600523BB60002358
:102F6C00FB6001233B6178237B610123BB61002360
:102F7C00FB6100233B6200237B620023BB622C4B72
:102F8C001B88FB622B4B1B883B63294B1B881A4607
:102F9C00284B1B8813441A46274B1B681344274A9B
:102FAC00128813447B63264B1B88BB63254B1B8801
:102FBC00FB63254B1B883B64244B1B687B644FF4E1
:102FCC000043BB641C23FB6450233B654FF400534C
:102FDC007B654FF48053BB654FF40063FB654FF486
:102FEC0080633B664FF400737B664FF48073BB6663
:102FFC000023FB663B1D19460B4801F0F6FA03460D
:10300C00002B01D000F096F90021074801F0C5FA19
:10301C000346002B01D000F08DF9FEF787FA00BFB4
:10302C00B837BD4680BD00BFA8000020006C014031
:10303C0010000020120000200000002014000020CE
:10304C0016000020180000201A00002004000020A8
:10305C0080B58EB000AF3B1D34220021184606F01F
:10306C0091FB5A4B5A4A1A60584B4FF000425A6027
:10307C00564B4FF080429A60544B0022DA60534B0F
:10308C0000221A61534B1B88013B1A464F4B5A6165
:10309C00514B1B88013B1A464C4B9A614D4B1B887C
:1030AC001A464E4B1B881344013B1A46474BDA61B8
:1030BC00494B1B881A464A4B1B881344013B1A4642
:1030CC00424B1A62434B1B881A46444B1B881344D1
:1030DC001A46444B1B681344013B3C4A53623E4B1B
:1030EC001B881A463E4B1B8813441A463E4B1B68E2
:1030FC001344013B354A9362364B1B881A46374BB7
:10310C001B8813441A46374B1B681344374A1288E2
:10311C001344013B2D4AD3622F4B1B881A46304B6C
:10312C001B8813441A46304B1B681344304A1288D0
:10313C001344013B254A1363244BFF2283F83420AC
:10314C00224BFF2283F83520204BFF2283F83620B8
:10315C001E4802F067F80346002B01D000F0EAF895
:10316C0000237B601F4B1B68BB600023FB601E4B66
:10317C001B683B6101237B61FF23BB610023FB6167
:10318C004FF480633B6205237B621A4BBB62154B89
:10319C001B68FB62144B1B683B63FF2387F83430BE
:1031AC00FF2387F83530FF2387F836303B1D00228C
:1031BC001946064802F0C8F90346002B01D000F06E
:1031CC00B9F800BF3837BD4680BD00BFC400002031
:1031DC0000680140100000201600002012000020A2
:1031EC001800002000000020040000201400002023
:1031FC001A00002084DE072080B485B000AF786010
:10320C000023FB6007E00D23FB6000BFFB685A1E28
:10321C00FA60002BFAD17B685A1E7A60002BF2D12F
:10322C0000BF00BF1437BD465DF8047B704780B407
:10323C0085B000AF78600023FB6007E00123FB60E2
:10324C0000BFFB685A1EFA60002BFAD17B685A1E2D
:10325C007A60002BF2D100BF00BF1437BD465DF879
:10326C00047B704780B584B002AF0346FB80FB88BB
:10327C00B3F5805F03D1264B03221A7033E0FB8831
:10328C00B3F5807F2FD1234B1B78002B2BD1224BF6
:10329C001A78224B1B789A4202D8204B00221A70C3
:1032AC001E4B1B781A464DF6A86302FB03F31C4A0F
:1032BC00134418461B491C4B1A681C4B1B68009383
:1032CC0013460A4601461A4800F0EDFC0346002B53
:1032DC0003D13221164800F011FD104B1B7801333D
:1032EC00DAB20E4B1A70FB88B3F5807F0CD1094B08
:1032FC001B78012B08D1094B1B780133DAB2074B31
:10330C001A70642000F0DAFA00BF0837BD4680BDA1
:10331C0080DE072034BD0820B3BD0820B2BD0820D4
:10332C00687D032084DE07200400002000000020BC
:10333C004800002080B400AF72B600BFFEE700006A
:10334C0080B483B000AF0F4B1B6E0E4A43F00103E9
:10335C0013660C4B1B6E03F001037B607B68094BFF
:10336C009B6D084A43F080539365064B9B6D03F0AD
:10337C0080533B603B6800BF0C37BD465DF8047B57
:10338C00704700BF0010024080B485B000AF786079
:10339C007B681B680A4A93420BD10A4B9B6C094A07
:1033AC0043F400339364074B9B6C03F40033FB60D2
:1033BC00FB6800BF1437BD465DF8047B704700BF47
:1033CC0000B002400010024080B5AAB000AF786097
:1033DC0007F10C039C220021184606F0D3F97B68F8
:1033EC001B68114A93421BD14FF40003FB6000236E
:1033FC00C7F89C3007F10C03184603F027FA034674
:10340C00002B01D0FFF796FF084B1B6E074A43F0C9
:10341C0000631366054B1B6E03F00063BB60BB6857
:10342C0000BFA837BD4680BD006C014000100240B3
:10343C0080B5AAB000AF786007F10C039C22002184
:10344C00184606F09FF97B681B681D4A934233D1DE
:10345C004FF48003FB604FF48033C7F8983003239C
:10346C00FB6201233B6308237B630223BB630223C0
:10347C003B640223FB634FF080737B6407F10C0306
:10348C00184603F0E3F90346002B01D0FFF752FF77
:10349C000C4B1B6E0B4A43F080631366094B1B6E7F
:1034AC0003F08063BB60BB68002200215B2000F04E
:1034BC0004FB5B2000F01DFB00BFA837BD4680BDA0
:1034CC00006801400010024080B58CB000AF7860FD
:1034DC0007F11C0300221A605A609A60DA601A61C4
:1034EC007B681B68424A934228D1424B9B6D414AF0
:1034FC0043F4804393653F4B9B6D03F48043BB6166
:10350C00BB693C4BDB6C3B4A43F00803D364394B3F
:10351C00DB6C03F008037B617B691A23FB610223DC
:10352C003B6200237B620323BB620523FB6207F132
:10353C001C031946304801F0B3FC54E07B681B684F
:10354C002E4A93424FD12B4B9B6D2A4A43F4004396
:10355C009365284B9B6D03F400433B613B69254B02
:10356C00DB6C244A43F04003D364224BDB6C03F046
:10357C004003FB60FB6802F081FA1E4BDB6C1D4ABA
:10358C0043F00403D3641B4BDB6C03F00403BB60FC
:10359C00BB684FF4A053FB6102233B6200237B62A8
:1035AC000323BB620623FB6207F11C031946144874
:1035BC0001F076FC4FF4A053FB6102233B62002325
:1035CC007B620323BB620623FB6207F11C031946D3
:1035DC000C4801F065FC00220021332000F06DFA4C
:1035EC00332000F086FA00BF3037BD4680BD00BFE7
:1035FC000038004000100240000C0048003C004025
:10360C00001800480008004880B5B0B000AF7860E2
:10361C0007F1AC0300221A605A609A60DA601A61F2
:10362C0007F110039C220021184606F0ABF87B68CA
:10363C001B68214A93423BD108233B610023BB65A5
:10364C0007F11003184603F001F90346002B01D0D3
:10365C00FFF770FE194B9B6D184A43F400239365DA
:10366C00164B9B6D03F40023FB60FB68134BDB6C68
:10367C00124A43F00103D364104BDB6C03F00103DB
:10368C00BB60BB680323C7F8AC300223C7F8B0306B
:10369C000023C7F8B4300323C7F8B8300823C7F8A1
:1036AC00BC3007F1AC0319464FF0904001F0F8FB29
:1036BC0000BFC037BD4680BD004C0040001002402A
:1036CC0080B400AFFEE780B400AFFEE780B400AF7B
:1036DC00FEE780B400AFFEE780B400AFFEE780B435
:1036EC0000AF00BFBD465DF8047B704780B400AFEF
:1036FC0000BFBD465DF8047B704780B400AF00BFCF
:10370C00BD465DF8047B704780B500AF00F0B6F89D
:10371C0000BF80BD80B500AF4FF4807001F06AFD32
:10372C0000BF80BD80B500AF4FF4805001F062FD4A
:10373C0000BF80BD80B500AF024804F0B3FC00BFF1
:10374C0080BD00BFD001002080B500AF024801F061
:10375C0039FE00BF80BD00BFC400002080B400AFA4
:10376C00064BD3F88830054A43F47003C2F888300E
:10377C0000BFBD465DF8047B704700BF00ED00E064
:10378C00DFF834D0FFF7EAFF0C480D490D4A00234F
:10379C0002E0D458C4500433C4188C42F9D30A4AFA
:1037AC000A4C002301E013600432A242FBD305F063
:1037BC00C5FFFCF79FFEFEE700000A20000000207A
:1037CC002C000020B89800082C000020B8BD082060
:1037DC00FEE780B582B000AF0023FB71032000F040
:1037EC0061F9022000F00EF80346002B02D00123F1
:1037FC00FB7101E0FFF7A4FDFB7918460837BD46C5
:10380C0080BD000080B584B000AF78600023FB73EE
:10381C00174B1B78002B23D0164B1A68144B1B78B4
:10382C0019464FF47A73B3FBF1F3B2FBF3F318467A
:10383C0000F06DF90346002B0FD17B680F2B09D8D4
:10384C00002279684FF0FF3000F037F90A4A7B68A4
:10385C00136007E00123FB7304E00123FB7301E019
:10386C000123FB73FB7B18461037BD4680BD00BFA0
:10387C0028000020200000202400002080B400AF8D
:10388C00064B1B781A46064B1B681344044A1360FC
:10389C0000BFBD465DF8047B704700BF28000020C8
:1038AC00B4BD082080B400AF034B1B681846BD465E
:1038BC005DF8047B704700BFB4BD082080B584B0B0
:1038CC0000AF7860FFF7EEFFB8607B68FB60FB68C9
:1038DC00B3F1FF3F05D00A4B1B781A46FB68134423
:1038EC00FB6000BFFFF7DEFF0246BB68D31AFA6825
:1038FC009A42F7D800BF00BF1037BD4680BD00BF4D
:10390C002800002080B485B000AF78607B6803F09D
:10391C000703FB600C4BDB68BB60BA684FF6FF0318
:10392C001340BB60FB681A02BB68134343F0BF63D0
:10393C0043F40033BB60044ABB68D36000BF143748
:10394C00BD465DF8047B704700ED00E080B400AF2D
:10395C00044BDB681B0A03F007031846BD465DF8F1
:10396C00047B704700ED00E080B483B000AF0346E9
:10397C00FB7197F90730002B0BDBFB7903F01F026F
:10398C00074997F907305B09012000FA02F241F868
:10399C00232000BF0C37BD465DF8047B704700BF89
:1039AC0000E100E080B483B000AF03463960FB71E6
:1039BC0097F90730002B0ADB3B68DAB20C4997F910
:1039CC0007301201D2B20B4483F800230AE03B68A3
:1039DC00DAB20849FB7903F00F03043B1201D2B2AF
:1039EC000B441A7600BF0C37BD465DF8047B70475C
:1039FC0000E100E000ED00E080B489B000AFF860B9
:103A0C00B9607A60FB6803F00703FB61FB69C3F1E3
:103A1C000703042B28BF0423BB61FB690433062B6B
:103A2C0002D9FB69033B00E000237B614FF0FF32BE
:103A3C00BB6902FA03F3DA43BB681A407B699A400C
:103A4C004FF0FF317B6901FA03F3D9437B680B40DC
:103A5C00134318462437BD465DF8047B70470000BD
:103A6C0080B582B000AF78607B68013BB3F1807F9A
:103A7C0001D301230FE00A4A7B68013B53600F21FD
:103A8C004FF0FF30FFF78EFF054B00229A60044B7E
:103A9C0007221A60002318460837BD4680BD00BFB8
:103AAC0010E000E080B582B000AF78607868FFF776
:103ABC0029FF00BF0837BD4680BD80B586B000AF7A
:103ACC000346B9607A60FB7300237B61FFF73EFF0E
:103ADC0078617A68B9687869FFF78EFF024697F9C2
:103AEC000F3011461846FFF75DFF00BF1837BD4673
:103AFC0080BD80B582B000AF0346FB7197F90730EB
:103B0C001846FFF731FF00BF0837BD4680BD80B5B2
:103B1C0082B000AF78607868FFF7A2FF03461846C2
:103B2C000837BD4680BD80B584B000AF78600023F7
:103B3C00FB737B6893F82530DBB2022B05D07B68D6
:103B4C000422DA630123FB7347E07B681B681A6865
:103B5C007B681B6822F00E021A607B681B681A686F
:103B6C007B681B6822F001021A607B689B6C1A68E8
:103B7C007B689B6C22F480721A607B685B6C03F030
:103B8C001C027B681B6C012101FA02F25A607B68F3
:103B9C00DB6C7A68126D5A607B685B6D002B0CD005
:103BAC007B685B6D1A687B685B6D22F480721A60AF
:103BBC007B689B6D7A68D26D5A607B68012283F8B2
:103BCC0025207B68002283F824207B689B6B002BCC
:103BDC0003D07B689B6B78689847FB7B1846103743
:103BEC00BD4680BD80B582B000AF78607B68002B8D
:103BFC0001D1012353E07B6893F85930DBB2002BE1
:103C0C0006D17B68002283F858207868FFF7BCFB4C
:103C1C007B68022283F859207B681B681B6823F49D
:103C2C00E02323F040037A6851687A68D269114323
:103C3C007A6812680B4313607B681B685B6B23F418
:103C4C00837323F001037A6891687A68926911434F
:103C5C007A6812680B4353637B681B681B6C1B0CE4
:103C6C001B047A68D1687A6812680B4313647B680A
:103C7C001B685B6B23F440117B681B691A057B681E
:103C8C005B695B051A437B681B680A435A637B6854
:103C9C000022DA657B68012283F85920002318463C
:103CAC000837BD4680BD80B586B002AFF860B960FC
:103CBC007A603B60FB6893F85830012B01D10223EA
:103CCC0018E0FB68012283F85820FB68022283F875
:103CDC005920BB6900933B687A68B968F86800F0B2
:103CEC0095F9FB681B681A68FB681B6842F00102B7
:103CFC001A60002318461037BD4680BD80B586B0CB
:103D0C0000AF786039600023FB607B681B681B6820
:103D1C0003F00103002B56D0FFF7C4FD78614BE094
:103D2C007B681B685B68FB60FB6803F02103002B5E
:103D3C0023D0FB6803F02003002B05D07B68DB6DE0
:103D4C0043F002027B68DA65FB6803F00103002B89
:103D5C0005D07B68DB6D43F001027B68DA657B681C
:103D6C001B6821229A607B68042283F859207B68A7
:103D7C00002283F858200123A5E03B68B3F1FF3FF4
:103D8C001AD0FFF78FFD02467B69D31A3A689A4224
:103D9C0002D33B68002B0FD17B68DB6D43F0200214
:103DAC007B68DA657B68032283F859207B680022E4
:103DBC0083F85820032386E07B681B685B6803F05C
:103DCC000203002BACD07B681B68DB6903F020037B
:103DDC003B617B681B685B6A03F020033A69134301
:103DEC003B613B69002B61D0FFF75CFD786156E0CD
:103DFC007B681B685B68FB60FB6803F02903002B86
:103E0C002ED0FB6803F00803002B05D07B68DB6D1C
:103E1C0043F004027B68DA65FB6803F02003002B97
:103E2C0005D07B68DB6D43F002027B68DA65FB68CA
:103E3C0003F00103002B05D07B68DB6D43F001021E
:103E4C007B68DA657B681B6829229A607B68042290
:103E5C0083F859207B68002283F85820012332E034
:103E6C003B68B3F1FF3F1AD0FFF71CFD02467B699C
:103E7C00D31A3A689A4202D33B68002B0FD17B6865
:103E8C00DB6D43F020027B68DA657B68032283F8E4
:103E9C0059207B68002283F85820032313E07B68A9
:103EAC001B685B6803F01003002BA1D07B681B68B8
:103EBC0012229A607B68012283F859207B680022C9
:103ECC0083F85820002318461837BD4680BD0000E3
:103EDC0080B487B000AF786039607B685B68B3F5FD
:103EEC00403F7B6893F85830012B01D1022384E0CA
:103EFC007B68012283F858207B68022283F85920C2
:103F0C003A6813465B001344DB0028337A68134489
:103F1C003B613B695A683B699B681B041A433B69CC
:103F2C001B691B051A433B695B695B0513437B618A
:103F3C00354BFB603B695B680A2B03D03B695B68C4
:103F4C00092B07D13B69DB6803F07F437A69134384
:103F5C007B6105E03B69DB681B067A6913437B6177
:103F6C003B68002B20D17B681B685A6AFB68DB43DB
:103F7C0002EA03017B681B687A690A435A627B6810
:103F8C001B683A6912689A613B695B680A2B03D01B
:103F9C003B695B68092B27D13B69DA687B681B6836
:103FAC0022F07F429A621FE07B681B68DA69FB682B
:103FBC00DB4302EA03017B681B687A690A43DA6116
:103FCC007B681B683A6912681A613B695B680A2B4B
:103FDC0003D03B695B68092B06D13B69DA687B68C7
:103FEC001B6822F07F421A627B68012283F85920F9
:103FFC007B68002283F85820002318461C37BD46E6
:10400C005DF8047B704700BF0F0033FF80B48BB0AA
:10401C0000AFF860B9607A603B60FB681B685B6C52
:10402C0003F040413B681A043B6B1A43FB681B6866
:10403C000A435A64FB681B687A68DA63FB685B683E
:10404C00B3F5403F74D1BB6803F07F433B62BB6860
:10405C0003F47F03FB61BB6803F47F43BB61BB6864
:10406C00DBB27B61FB689B68002B08D1BA69FB69EA
:10407C001A433B6A13437A6913437B6253E0FB6830
:10408C009B68012B06D1BA69FB6913437A69134308
:10409C007B6248E0FB689B68022B11D1FB69DB0C4F
:1040AC00FB61BB699B0ABB617B69DB087B61BB69FC
:1040BC005A01FB69DB0213437A6913437B6232E0DA
:1040CC00FB689B68032B17D13B6ADB0F3B62FB69D8
:1040DC00DB0CFB61BB69DB0ABB617B69DB087B61C9
:1040EC00BB695A01FB699B021A433B6ADB0313430E
:1040FC007A6913437B6216E03B6A1B0F3B62FB69D8
:10410C001B0DFB61BB691B0BBB617B691B097B61D5
:10411C00BB691A01FB691B021A433B6A1B0313435D
:10412C007A6913437B62FB681B687A6A9A630DE0B9
:10413C00FB685B68B3F5802F04D1FB681B68BA6819
:10414C005A6103E0FB681B68BA68DA6000BF2C3761
:10415C00BD465DF8047B704780B485B000AFF86055
:10416C00B9607A603B60BB689A017B681A433B6814
:10417C001B021A43BB691B041A43FB68DA6600BFB7
:10418C001437BD465DF8047B704780B586B000AF30
:10419C00F860B9607A603B60FFF784FB786109E0F6
:1041AC00FFF780FB02467B69D31AB3F57A7F01D9FE
:1041BC00032315E0FB681B685B6F03F00103002B06
:1041CC00EED0BB689A017B681A433B681B0242EA3B
:1041DC0003013B6A1A04FB681B680A43DA66002376
:1041EC0018461837BD4680BD80B588B000AF7860E2
:1041FC0039607B68002B01D101230BE17B685B7C70
:10420C00DBB2002B02D17868FFF7DEF87B68032263
:10421C005A7400233B617B681B68D3F830247B689D
:10422C001B6842F08072C3F830247B681B68D3F89B
:10423C00303403F080733B613B69FFF733FBF8616B
:10424C0009E0FFF72FFB0246FB69D31AB3F57A7F1F
:10425C0001D90323DEE07B681B68D3F80C3403F42C
:10426C008053002BEDD07B681B68D3F830347A6810
:10427C00126823F45E3323F4FE73C2F830347B6887
:10428C001B68D3F830143B681B689A003B685B686A
:10429C00DB021A433B689B681B041A437B681B6850
:1042AC000A43C3F830240023FB607B681B68D3F8F7
:1042BC0030247B681B6842F00102C3F830247B6811
:1042CC001B68D3F8303403F00103FB60FB6801205A
:1042DC00FFF7F4FAFFF7E6FAF86109E0FFF7E2FA04
:1042EC000246FB69D31AB3F57A7F01D9032391E017
:1042FC007B681B68D3F80C3403F48073002BEDD06F
:10430C007B681B68D3F8A0207B681B6842F0060210
:10431C00C3F8A0207B681B68D3F894207B681B68CB
:10432C0022F00302C3F894207B681B68D3F8942016
:10433C007B685B681A437B681B6842F00102C3F818
:10434C0094207B681B68D3F8A4207B681B6822F040
:10435C000302C3F8A4207B681B68D3F8A4107B6805
:10436C00DA687B681B680A43C3F8A4207B681B6867
:10437C009A687B681B6822F0FF029A607B681B6856
:10438C0099687B689A687B681B680A439A603B68EB
:10439C005B68002B02D03B685B6800E00123BB61CB
:1043AC00BB691E4A03FB02F23B689B6803F00303E4
:1043BC009A403B681B684FF4FA5101FB03F3B2FBC4
:1043CC00F3F37B617B681B68D3F818247B681B684C
:1043DC0022F03F02C3F818247B681B68D3F818142A
:1043EC007B681B687A690A43C3F818247B681B68CE
:1043FC000022C3F8C4207B681B680022C3F8C820C5
:10440C007B6800229A617B6800225A617B680122DA
:10441C005A74002318462037BD4680BD00093D0064
:10442C0080B483B000AF786039607B681B7C012B53
:10443C0001D10223ABE07B6801221A747B681B68F4
:10444C000022C3F8C4207B681B680022C3F8C82074
:10445C007B683A689A613B6803F00103002B0BD030
:10446C007B681B68D3F8C4307A6812686FEA134310
:10447C006FEA0343C2F8C4303B6803F00203002B1D
:10448C0009D07B681B68D3F8C4207B681B6842F496
:10449C00F812C3F8C4203B6803F00403002B09D0C6
:1044AC007B681B68D3F8C8207B681B6842F001024C
:1044BC00C3F8C8203B6803F00803002B09D07B68C5
:1044CC001B68D3F8C8207B681B6842F00202C3F853
:1044DC00C8203B6803F01003002B09D07B681B68D5
:1044EC00D3F8C8207B681B6842F00C02C3F8C820C4
:1044FC003B6803F02003002B09D07B681B68D3F8C2
:10450C00C8207B681B6842F01002C3F8C8203B68C7
:10451C0003F04003002B09D07B681B68D3F8C8203C
:10452C007B681B6842F02002C3F8C8203B6803F08C
:10453C008003002B09D07B681B68D3F8C8207B68EC
:10454C001B6842F04002C3F8C8203B6803F4807338
:10455C00002B09D07B681B68D3F8C8207B681B68CC
:10456C0042F08002C3F8C8203B6803F40073002BB0
:10457C0009D07B681B68D3F8C8207B681B6842F4A1
:10458C00F852C3F8C8207B6800221A74002318461E
:10459C000C37BD465DF8047B704780B483B000AF28
:1045AC00786039607B681B7C012B01D1022316E0FB
:1045BC007B6801221A747B681B681A6B7B681B680A
:1045CC0022F003021A637B681B68196B7B681B68FB
:1045DC003A680A431A637B6800221A74002318464F
:1045EC000C37BD465DF8047B704780B483B000AFD8
:1045FC00786039607B681B7C012B01D10223F6E1CA
:10460C007B6801221A747B681B685A6B7B681B6879
:10461C0022F001025A637B681B68D3F800247B6884
:10462C001B6822F00102C3F800247B681B689A6B9C
:10463C007B681B6822F003029A637B681B68996B8A
:10464C003B68DA687B681B680A439A637B681B6863
:10465C00DB6B7A68126823F47F5323F03F03D36338
:10466C007B681B68D96B3B681A697B681B680A43BB
:10467C00DA637B681B681B6C7A68126823F4FF533F
:10468C0023F01F0313647B681B68196C3B685A6921
:10469C007B681B680A431A647B681B685B6C7A68CE
:1046AC00126823F4FF5323F01F0353647B681B68C9
:1046BC00596C3B689A697B681B680A435A647B682F
:1046CC001B68DA687B681B6822F00302DA607B687F
:1046DC001B68D9683B681A687B681B680A43DA60F8
:1046EC007B681B685A697B681B6822F007025A6159
:1046FC007B681B6859693B685A6A3B681B6A1A439A
:10470C003B68DB691A437B681B680A435A617B6808
:10471C001B681A697B681B6822F00F021A617B68A0
:10472C001B6819693B685A687B681B680A431A61E5
:10473C007B681B68D3F800247B681B6822F00E0290
:10474C00C3F800247B681B68D3F800143B685B68D3
:10475C005A007B681B680A43C3F800243B685B68FB
:10476C00032B10D17B681B681A697B681B6822F4C9
:10477C0080721A617B681B6819693B689A687B6850
:10478C001B680A431A617B681B689B6C7A68126809
:10479C0023F47F6323F00F0393647B681B68996C8D
:1047AC003B689A6A7B681B680A439A647B681B683F
:1047BC00DB6C7A68126823F47F6323F00F03D364F5
:1047CC007B681B68D96C3B68DA6A7B681B680A4398
:1047DC00DA647B681B681B6D7A68126823F4FF43EC
:1047EC0023F07F0313657B681B68196D3B681A6B9C
:1047FC007B681B680A431A657B681B685B6D7A686B
:10480C00126823F47F7323F0030353657B681B68E2
:10481C00596D3B685A6B7B681B680A435A657B6809
:10482C001B689B6D7A68126823F47F7323F0030373
:10483C0093657B681B68996D3B689A6B7B681B68FA
:10484C000A439A657B681B68DB6D7A68126823F4EF
:10485C007F7323F00303D3657B681B68D96D3B68BA
:10486C00DA6B7B681B680A43DA657B681B681B6E16
:10487C007A68126823F47F5323F03F0313667B6836
:10488C001B68196E3B681A6C7B681B680A431A66B6
:10489C007B681B689A6B7B681B6822F400429A63E6
:1048AC007B681B68996B3B685A6C7B681B680A4376
:1048BC009A637B681B689A697B681B6822F47F0289
:1048CC009A617B681B6899693B689B6C1A047B68CE
:1048DC001B680A439A617B681B689A697B681B6832
:1048EC0022F0FF029A617B681B6899693B68DA6C5D
:1048FC007B681B680A439A617B681B689A6B7B68B0
:10490C001B6822F400529A637B681B68996B3B68A6
:10491C001A6D7B681B680A439A637B681B689A6BE9
:10492C007B681B6822F480529A637B681B68996BC6
:10493C003B685A6D7B681B680A439A637B681B68EB
:10494C009A6B7B681B6822F400629A637B681B6815
:10495C00996B3B689A6D7B681B680A439A637B680A
:10496C001B689A6B7B681B6822F480629A637B6875
:10497C001B68996B3B68DA6D7B681B680A439A630A
:10498C007B681B689A6B7B681B6822F400729A63C5
:10499C007B681B68996B3B681A6E7B681B680A43C3
:1049AC009A637B681B689A6B7B681B6822F4807225
:1049BC009A637B681B68996B3B685A6E7B681B68B3
:1049CC000A439A637B681B689A6B7B681B6822F4AA
:1049DC0080429A637B681B68996B3B689A6E7B6814
:1049EC001B680A439A637B6800221A7400231846DA
:1049FC000C37BD465DF8047B704780B485B000AFC2
:104A0C00786039607B681B7C012B01D1022358E054
:104A1C007B6801221A743B681A683B685B68934296
:104A2C0038BF1346FB607B681B68D3F898207B6803
:104A3C001B6802F0FC22C3F898207B681B68D3F833
:104A4C009810FB681A04FB681A437B681B680A43BE
:104A5C00C3F898207B681B68D3F89C207B681B6884
:104A6C0002F40042C3F89C207B681B68D3F89C10AE
:104A7C003B681A693B68DB681B041A433B689B68FC
:104A8C001B061A437B681B680A43C3F89C207B688F
:104A9C001B68D3F8A4207B681B6822F47F42C3F800
:104AAC00A4207B681B68D3F8A4103B685B691A02CE
:104ABC007B681B680A43C3F8A4207B6800221A7425
:104ACC00002318461437BD465DF8047B704780B44C
:104ADC0083B000AF786039607B681B7C012B01D1FF
:104AEC000223B4E07B6801221A747B681B689A6805
:104AFC007B681B6822F47F429A607B681B6899680C
:104B0C003B681B681A027B681B680A439A607B68C7
:104B1C001B689A6F7B681B6892B29A677B681B68EC
:104B2C00996F3B685B681A047B681B680A439A6739
:104B3C007B681B689B6F7A6812681B0C1B0493675D
:104B4C007B681B68996F3B689A687B681B680A4393
:104B5C009A677B681B68DB6F7A6812681B0C1B04F6
:104B6C00D3677B681B68D96F3B68DA687B681B6806
:104B7C000A43DA677B681B68D3F880307A6812685E
:104B8C001B0C1B04C2F880307B681B68D3F88010A8
:104B9C003B681A697B681B680A43C3F880207B68F2
:104BAC001B68D3F884307A6812681B0C1B04C2F89B
:104BBC0084307B681B68D3F884103B685A697B6827
:104BCC001B680A43C3F884207B681B68D3F88420D5
:104BDC007B681B6822F08072C3F884207B681B689A
:104BEC00D3F884103B689A697B681B680A43C3F846
:104BFC0084207B681B68D3F888307A6812681B0C99
:104C0C001B04C2F888307B681B68D3F888103B689B
:104C1C00DA697B681B680A43C3F888207B681B68C9
:104C2C00D3F88C307A6812681B0C1B04C2F88C30D9
:104C3C007B681B68D3F88C103B681A6A7B681B680E
:104C4C000A43C3F88C207B6800221A740023184690
:104C5C000C37BD465DF8047B704780B485B000AF5F
:104C6C0078607B681B7C012B01D102232BE07B68D5
:104C7C0001221A740023FB607B681B685A687B68EE
:104C8C001B6842F001025A607B681B685B6803F08A
:104C9C000103FB60FB680023BB607B681B68D3F8D7
:104CAC0004247B681B6842F00802C3F804247B6868
:104CBC001B68D3F8043403F00803BB60BB687B6843
:104CCC0000221A74002318461437BD465DF8047B85
:104CDC00704780B588B002AFF860B9607A603B600D
:104CEC00FB681B7C012B01D1022310E0FB68012225
:104CFC001A743B6A00933B687A68B968F868FFF7E6
:104D0C0044FA0346FB75FB6800221A74FB7D1846B7
:104D1C001837BD4680BD80B58CB002AFF860B96065
:104D2C007A603B607B6BBB61FB681B7C012B01D108
:104D3C00022384E0FB6801221A74FEF7B3FD78614C
:104D4C000CE0FEF7AFFD02467B69D31AB3F57A7F10
:104D5C0004D9FB6800221A74032370E0FB681B68FB
:104D6C005B6F03F00103002BEBD03B6BFB613B68EB
:104D7C00032B28BF03233B6100233B620FE0BA697E
:104D8C003B6A13441B781A463B6A0133DB0002FA78
:104D9C0003F3FA691343FB613B6A01333B623A6AE2
:104DAC003B699A42EBD3FB681B68FA691A673A684D
:104DBC003B69D31A7B62BA693B691344BB6128E037
:104DCC007B6A042B28BF04233B610023FB61002377
:104DDC003B620EE0BA693B6A13441B781A463B6A85
:104DEC00DB0002FA03F3FA691343FB613B6A0133FC
:104DFC003B623A6A3B699A42ECD3FB681B68FA69DE
:104E0C001A677A6A3B69D31A7B62BA693B691344A5
:104E1C00BB617B6A002BD3D1FB6818683B680133FC
:104E2C00DAB23B6801331B0ADBB2009313467A6893
:104E3C00B968FFF791F9FB6800221A740023184631
:104E4C002837BD4680BD80B483B000AF7860396030
:104E5C007B681B7C012B01D102231BE07B680122A8
:104E6C001A747B681B68D3F81C247B681B6822F0BF
:104E7C00C062C3F81C247B681B68D3F81C143B6805
:104E8C005A067B681B680A43C3F81C247B68002203
:104E9C001A74002318460C37BD465DF8047B704726
:104EAC0080B487B000AF7860396000237B6166E125
:104EBC003B681A6801217B6901FA03F31340FB601C
:104ECC00FB68002B00F058813B685B6803F0030320
:104EDC00012B05D03B685B6803F00303022B30D138
:104EEC007B689B683B617B695B00032202FA03F3DE
:104EFC00DB433A6913403B613B68DA687B695B00D2
:104F0C0002FA03F33A6913433B617B683A699A608E
:104F1C007B685B683B6101227B6902FA03F3DB432C
:104F2C003A6913403B613B685B681B0903F0010263
:104F3C007B6902FA03F33A6913433B617B683A6974
:104F4C005A603B685B6803F00303032B17D07B6844
:104F5C00DB683B617B695B00032202FA03F3DB43F2
:104F6C003A6913403B613B689A687B695B0002FAC3
:104F7C0003F33A6913433B617B683A69DA603B6837
:104F8C005B6803F00303022B23D17B69DA087B688F
:104F9C00083253F822303B617B6903F007039B0016
:104FAC000F2202FA03F3DB433A6913403B613B687F
:104FBC001A697B6903F007039B0002FA03F33A6951
:104FCC0013433B617B69DA087B680832396943F823
:104FDC0022107B681B683B617B695B00032202FA31
:104FEC0003F3DB433A6913403B613B685B6803F0B6
:104FFC0003027B695B0002FA03F33A6913433B61DA
:10500C007B683A691A603B685B6803F44033002B99
:10501C0000F0B280614B1B6E604A43F001031366D3
:10502C005E4B1B6E03F00103BB60BB685C4A7B6983
:10503C009B08023352F823303B617B6903F0030376
:10504C009B000F2202FA03F3DB433A6913403B61E6
:10505C007B68B3F1904F2BD07B68524A934225D09A
:10506C007B68514A93421FD07B68504A934219D0B7
:10507C007B684F4A934213D07B684E4A93420DD0C3
:10508C007B684D4A934207D07B684C4A934201D1CE
:10509C0007230EE008230CE006230AE0052308E0B2
:1050AC00042306E0032304E0022302E0012300E0D2
:1050BC0000237A6902F00302920093403A69134389
:1050CC003B6137497B699B0802333A6941F82320DD
:1050DC003B4B9B683B61FB68DB433A6913403B618C
:1050EC003B685B6803F48013002B03D03A69FB68C0
:1050FC0013433B61324A3B699360314BDB683B6144
:10510C00FB68DB433A6913403B613B685B6803F423
:10511C000013002B03D03A69FB6813433B61284A08
:10512C003B69D360264B5B683B61FB68DB433A69A8
:10513C0013403B613B685B6803F40033002B03D0E6
:10514C003A69FB6813433B611D4A3B6953601C4B36
:10515C001B683B61FB68DB433A6913403B613B686E
:10516C005B6803F48033002B03D03A69FB6813436C
:10517C003B61134A3B6913607B6901337B613B687C
:10518C001A687B6922FA03F3002B7FF491AE00BFFF
:10519C0000BF1C37BD465DF8047B70470010024011
:1051AC00000001400004004800080048000C0048C2
:1051BC00001000480014004800180048001C00486B
:1051CC000004014080B483B000AF78600B467B8054
:1051DC0013467B707B78002B03D07A887B689A61AE
:1051EC0002E07A887B689A6200BF0C37BD465DF896
:1051FC00047B704780B582B000AF0346FB80084B40
:10520C005A69FB881340002B06D0054AFB88536172
:10521C00FB881846FEF726F800BF0837BD4680BD50
:10522C000004014080B584B000AF78607B68002B2F
:10523C0001D10123BFE07B6893F8A130DBB2002BD6
:10524C0006D17B68002283F8A0207868FEF7F0F87E
:10525C007B68022283F8A1207B681B689A697B68B3
:10526C001B6822F070429A617B681B6899697B68A5
:10527C005A687B689B681A437B68DB681A437B68B7
:10528C001B691A437B681B680A439A617B681B681D
:10529C0099687B681A684A4B0B4093607B685B6922
:1052AC001B04FB607B681B6899687B689A69FB68C8
:1052BC001A437B681B680A439A607B681B68D96831
:1052CC007B681A683E4B0B40D3607B68DB691B0420
:1052DC00FB607B681B68D9687B681A6AFB681A4399
:1052EC007B681B680A43DA607B681B6819697B68FA
:1052FC001A68334B0B4013617B685B6A1B04FB60C1
:10530C007B681B6819697B689A6AFB681A437B681F
:10531C001B680A431A617B681B6859697B681A68A9
:10532C00274B0B4053617B68DB6A1B04FB607B687B
:10533C001B6859697B681A6BFB681A437B681B688E
:10534C000A435A617B6893F835301B02FB607B681B
:10535C0093F836301B04BB607B681B68DA6A7B6889
:10536C001B6802F07F42DA627B681B68D96ABA68F4
:10537C00FB6813437A6892F834201A437B681B68E5
:10538C000A43DA627B681B685A6B7B681B6842F0C5
:10539C0006025A637B681B689A697B681B6842F03B
:1053AC0001029A617B680022C3F8A4207B68012269
:1053BC0083F8A120002318461037BD4680BD00BFDE
:1053CC0000F800F080B584B000AF78607B681B6893
:1053DC009B6BFB607B681B685B6BBB60FB6803F0C3
:1053EC000403002B23D0BB6803F00403002B1ED056
:1053FC007B681B685A6B7B681B6822F004025A633B
:10540C007B681B680422DA637B68D3F8A43043F012
:10541C0001027B68C3F8A4207B68042283F8A120D6
:10542C007B68002283F8A020786800F06FF8FB6896
:10543C0003F00203002B23D0BB6803F00203002B04
:10544C001ED07B681B685A6B7B681B6822F00202BB
:10545C005A637B681B680222DA637B68D3F8A4303A
:10546C0043F002027B68C3F8A4207B68042283F813
:10547C00A1207B68002283F8A020786800F046F811
:10548C00FB6803F00103002B1BD0BB6803F0010386
:10549C00002B16D07B681B685A6B7B681B6822F04C
:1054AC0001025A637B681B680122DA637B68012264
:1054BC0083F8A1207B68002283F8A020786800F094
:1054CC002FF8FB6803F00803002B1BD0BB6803F01C
:1054DC000803002B16D07B681B685A6B7B681B6813
:1054EC0022F008025A637B681B680822DA637B6827
:1054FC00012283F8A1207B68002283F8A020786821
:10550C0000F018F800BF1037BD4680BD80B483B0E2
:10551C0000AF786000BF0C37BD465DF8047B704768
:10552C0080B483B000AF786000BF0C37BD465DF827
:10553C00047B704780B483B000AF786000BF0C3739
:10554C00BD465DF8047B7047B0B584B000AFF86021
:10555C00B9607A60FB6893F8A030012B01D102236B
:10556C002CE0FB68012283F8A020FB68022283F860
:10557C00A120FA687B68342101FB03F3134403F187
:10558C003802BB6814461D460FCD0FC40FCD0FC497
:10559C000FCD0FC42B6823607A68B968F86800F0E7
:1055AC0011F8FB681B6801225A62FB68012283F820
:1055BC00A120FB68002283F8A02000231846103796
:1055CC00BD46B0BD80B489B000AFF860B9607A60F8
:1055DC00BB685A68FB681B68DB681B0CC3F30B03C6
:1055EC0013441B04FB61FB681B681A467B68DB01D8
:1055FC00134484335B68FA68126811467A68D201E6
:10560C000A44843203F0F0235360BB681A68FB68C9
:10561C001B68DB681B0CC3F30B0313445A1CFB689D
:10562C001B6819467B68DB010B4484331946FB6904
:10563C0013434B60BB68DA68FB681B68DB68C3F319
:10564C000A0313441B04FB61FB681B681A467B6846
:10565C00DB01134484339B68FA68126811467A683C
:10566C00D2010A44843203F0F0239360BB689A6839
:10567C00FB681B68DB68C3F30A0313445A1CFB6802
:10568C001B6819467B68DB010B4484331946FB69A4
:10569C0013438B60FB681B681A467B68DB01134461
:1056AC0084331B69FA68126811467A68D2010A447D
:1056BC00843223F007031361FB681B681A467B686E
:1056CC00DB01134484331A46BB681B691361BB6846
:1056DC0093F831301B02FB61BB6893F832301B042A
:1056EC00BB61BB689B691B067B61FB681B681A4628
:1056FC007B68DB01134484339B69FB681B681A4687
:10570C007B68DB01134484331A4600239361BB6826
:10571C0093F830301A46FB691A43BB691A43FB688D
:10572C001B6819467B68DB010B44843319467B6983
:10573C0013438B61FB681B681A467B68DB011344BF
:10574C0084335B69FA68126811467A68D2010A449C
:10575C00843223F0FF035361FB681B681A467B6895
:10576C00DB01134484331A46BB685B695361FB68E5
:10577C001B681A467B68DB0113448433DB69FA68C7
:10578C00126811467A68D2010A44843223F4E06329
:10579C0023F00703D361BB68DA69BB681B6AF9683D
:1057AC00096808467968C901014484311343CB6107
:1057BC00FB681B681A467B68DB01134484339B6AC5
:1057CC00FB681B681A467B68DB01134484331A465A
:1057DC0000239362FB681B681A467B68DB01134449
:1057EC0084331A46BB685B6A9362BB681B69002BE7
:1057FC0002D10423FB611BE0BB681B69012B02D1A6
:10580C000323FB6114E0BB681B69042B0BD0BB6842
:10581C001B69022B07D0BB681B69032B03D0BB6829
:10582C001B69072B02D10223FB6101E00123FB6101
:10583C00FB681B681A467B68DB0113448433DB6A04
:10584C00FA68126811467A68D2010A44843203F06D
:10585C00E023D362BB689B6AFA6902FB03F31A0468
:10586C00BB685968BB681B68CB1AF96901FB03F369
:10587C000333F968096808467968C9010144843121
:10588C001343CB62FB681B681A467B68DB0113442D
:10589C0084331B6BFA68126811467A68D2010A4489
:1058AC00843223F4FF6323F007031363FB681B6844
:1058BC001A467B68DB01134484331A46BB68DB6AE7
:1058CC001363FB681B681A467B68DB011344843343
:1058DC001B68FA68126811467A68D2010A4484324D
:1058EC0043F00103136000BF2437BD465DF8047B11
:1058FC007047000080B400AF0D4B1B6803F4C0630D
:10590C00B3F5806F02D14FF480630BE0084BD3F8F2
:10591C00803003F48073B3F5807F02D14FF40073B1
:10592C0000E000231846BD465DF8047B704700BFBD
:10593C000070004080B485B000AF78607B68002BAD
:10594C0041D14B4B1B6803F4C063B3F5806F31D16D
:10595C00474BD3F88030464A23F48073C2F880302A
:10596C00434B1B6823F4C063414A43F40073136038
:10597C00404B1B68322202FB03F33F4AA2FB03237A
:10598C009B0C0133FB6002E0FB68013BFB60384B76
:10599C005B6903F48063B3F5806F02D1FB68002B65
:1059AC00F2D1334B5B6903F48063B3F5806F58D14C
:1059BC00032357E02E4BD3F880302D4A23F4807309
:1059CC00C2F880304DE07B68B3F5007F41D1284BA5
:1059DC001B6803F4C063B3F5806F31D1244BD3F84B
:1059EC008030234A43F48073C2F88030204B1B680C
:1059FC0023F4C0631E4A43F4007313601D4B1B68F1
:105A0C00322202FB03F31C4AA2FB03239B0C01333F
:105A1C00FB6002E0FB68013BFB60154B5B6903F428
:105A2C008063B3F5806F02D1FB68002BF2D1104B71
:105A3C005B6903F48063B3F5806F12D1032311E02B
:105A4C000B4BD3F880300A4A43F48073C2F8803091
:105A5C0007E0074B1B6823F4C063054A43F48063DB
:105A6C001360002318461437BD465DF8047B70475D
:105A7C00007000402000002083DE1B4380B400AF88
:105A8C00054B5B68044A43F40073536000BFBD468A
:105A9C005DF8047B704700BF0070004080B588B093
:105AAC0000AF78607B68002B02D1012300F008BCAA
:105ABC00964B9B6803F00C03BB61944BDB6803F0C3
:105ACC0003037B617B681B6803F01003002B00F061
