:020000040800F2
:1000000000000A20BD29000821290008272900082E
:100010002D290008332900083929000800000000B4
:100020000000000000000000000000003F29000860
:100030004D290008000000005B290008692900081C
:100040000D2A00080D2A00080D2A00080D2A0008B4
:100050000D2A00080D2A00080D2A00080D2A0008A4
:100060000D2A00080D2A00080D2A00080D2A000894
:100070000D2A00080D2A00080D2A00080D2A000884
:100080000D2A00080D2A00080D2A00080D2A000874
:100090000D2A00080D2A00080D2A00080D2A000864
:1000A0000D2A00080D2A00080D2A00080D2A000854
:1000B0000D2A00080D2A00080D2A00080D2A000844
:1000C0000D2A00080D2A00080D2A00080D2A000834
:1000D0000D2A00080D2A00080D2A00080D2A000824
:1000E000752900080D2A00080D2A00080D2A0008AD
:1000F0000D2A00080D2A00080D2A00080000000043
:100100000D2A00080D2A00080D2A0008852900087C
:100110000D2A00080D2A00080D2A00080D2A0008E3
:100120000D2A00080D2A00080D2A00080D2A0008D3
:100130000D2A00080D2A00080D2A00080D2A0008C3
:100140000D2A00080D2A00080D2A00080D2A0008B3
:100150000D2A00080D2A00080D2A00080D2A0008A3
:100160000D2A00080D2A00080D2A00080D2A000893
:100170000D2A00080D2A00080D2A000800000000C2
:100180000D2A00080D2A00080D2A00080D2A000873
:100190000D2A00080D2A00080000000000000000E1
:1001A00000000000000000000D2A00080D2A0008D1
:0C01B0000D2A00080D2A00080D2A000886
:1001BC0010B5054C237833B9044B13B10448AFF395
:1001CC0000800123237010BD2C00002000000000D3
:1001DC00F483000808B5034B1BB103490348AFF384
:1001EC00008008BD0000000030000020F4830008EF
:1001FC0053B94AB9002908BF00281CBF4FF0FF3182
:10020C004FF0FF3000F074B9ADF1080C6DE904CE7D
:10021C0000F006F8DDF804E0DDE9022304B07047D5
:10022C002DE9F047089D04468E46002B4DD18A429D
:10023C00944669D9B2FA82F252B101FA02F3C2F1D0
:10024C00200120FA01F10CFA02FC41EA030E944061
:10025C004FEA1C48210CBEFBF8F61FFA8CF708FB82
:10026C0016E341EA034306FB07F199420AD91CEB5A
:10027C00030306F1FF3080F01F81994240F21C818C
:10028C00023E63445B1AA4B2B3FBF8F008FB1033D4
:10029C0044EA034400FB07F7A7420AD91CEB040409
:1002AC0000F1FF3380F00A81A74240F207816444D9
:1002BC00023840EA0640E41B00261DB1D44000235E
:1002CC00C5E900433146BDE8F0878B4209D9002DC2
:1002DC0000F0EF800026C5E9000130463146BDE84C
:1002EC00F087B3FA83F6002E4AD18B4202D38242B6
:1002FC0000F2F980841A61EB030301209E46002D65
:10030C00E0D0C5E9004EDDE702B9FFDEB2FA82F2B9
:10031C00002A40F09280A1EB0C014FEA1C471FFA17
:10032C008CFE0126200CB1FBF7F307FB131140EAFE
:10033C0001410EFB03F0884208D91CEB010103F1CB
:10034C00FF3802D2884200F2CB804346091AA4B28D
:10035C00B1FBF7F007FB101144EA01440EFB00FE61
:10036C00A64508D91CEB040400F1FF3102D2A645C6
:10037C0000F2BB800846A4EB0E0440EA03409CE765
:10038C00C6F12007B34022FA07FC4CEA030C20FA12
:10039C0007F401FA06F31C43F9404FEA1C4900FA32
:1003AC0006F3B1FBF9F8200C1FFA8CFE09FB1811AF
:1003BC0040EA014108FB0EF0884202FA06F20BD922
:1003CC001CEB010108F1FF3A80F08880884240F272
:1003DC008580A8F102086144091AA4B2B1FBF9F0B6
:1003EC0009FB101144EA014100FB0EFE8E4508D9B1
:1003FC001CEB010100F1FF346CD28E456AD9023836
:10040C00614440EA0840A0FB0294A1EB0E01A1421A
:10041C00C846A64656D353D05DB1B3EB080261EB88
:10042C000E0101FA07F722FA06F3F1401F43C5E962
:10043C00007100263146BDE8F087C2F12003D84098
:10044C000CFA02FC21FA03F3914001434FEA1C47DA
:10045C001FFA8CFEB3FBF7F007FB10360B0C43EACC
:10046C00064300FB0EF69E4204FA02F408D91CEB7C
:10047C00030300F1FF382FD29E422DD9023863447A
:10048C009B1B89B2B3FBF7F607FB163341EA03411A
:10049C0006FB0EF38B4208D91CEB010106F1FF3869
:1004AC0016D28B4214D9023E6144C91A46EA004660
:1004BC0038E72E46284605E70646E3E61846F8E6F2
:1004CC004B45A9D2B9EB020864EB0C0E0138A3E73B
:1004DC004646EAE7204694E74046D1E7D0467BE71C
:1004EC00023B614432E7304609E76444023842E794
:1004FC00704700BF80B584B000AF02F082FA00F004
:10050C007DF900F0F7FB00F0C7F900F0B1FA00F04C
:10051C002FFB00F06BFB00F0A1FB00F0C1FC4FF4D3
:10052C007A7307229849994807F08AF80122022128
:10053C00974803F0BDFC01224FF48051954803F01D
:10054C00B7FC02229449954806F01EFA0023FB6082
:10055C0007E0934AFB681344FF221A70FB680133CF
:10056C00FB60904B1B68904A126803FB02F2134627
:10057C005B001A44FB689A42EBD88C4B1B78002B1F
:10058C0055D18B4B1B78002B09D18A4B1B78194604
:10059C00894801F001FC884801F07AFA95E0844B17
:1005AC001B78012B40F091800023FB72834B1B784E
:1005BC007B602BE0052002F099FA00BF4FF48071AC
:1005CC004FF0904003F05CFC0346012BF6D0774BC8
:1005DC001B78002B07D1764B1B78012B03D1784B62
:1005EC001B78012B02D10123FB7215E07B68DBB277
:1005FC001946714801F0D0FB6F4801F049FA7B684D
:10060C00DAB26C4B1A707B6801337B606D4B1B78D4
:10061C001A467B689342CDDDFB7A002B03D1654BE8
:10062C0000221A70C2E7FB7A012B4DD0BEE75F4B5C
:10063C001B78012B40D15E4B1B78022B38D1052047
:10064C0002F054FA00BF4FF480714FF0904003F069
:10065C0017FC0346012BF6D0544B1B78012B34D1DD
:10066C00534B1B78022B30D1554B1B78012B2CD0C4
:10067C00554801F00DFA052002F038FA00BF4FF48E
:10068C0080714FF0904003F0FBFB0346012BF6D03A
:10069C00464B1B78012B18D1454B1B78022B14D1E0
:1006AC00474B1B78012B10D0484801F0F1F9C6E7F5
:1006BC00454801F0EDF908E03C4B1B78022B04D1C6
:1006CC00424801F0E5F900E000BF3D4B1B78012BDF
:1006DC0055D13F4B1B789BB21B029AB23D4B1B78FA
:1006EC009BB213447B807B883B4AA2FB03235B08B1
:1006FC009AB23A4B1A807B88374AA2FB03235B08D9
:10070C009AB2374B1A80354B1A88354B1B881344D9
:10071C009BB27A88D31A9AB2324B1A80324B1B781E
:10072C009BB21B029AB2314B1B789BB213443B8099
:10073C003B88294AA2FB03235B089AB22C4B1A80F4
:10074C003B88254AA2FB03235B089AB2294B1A80EB
:10075C00274B1A88274B1B8813449BB23A88D31A11
:10076C009AB2254B1A8001F0C3FC01F0CFFD00F0CA
:10077C0097FB0A2002F0BAF9114B00221A700A20DA
:10078C0002F0B4F9F9E600BF0C840008D401002093
:10079C000008004800140048740207207001002073
:1007AC007002042000000020040000206D020420D0
:1007BC006C020420700207206C02032068020020E7
:1007CC00760207200A0000206C0201206C02022035
:1007DC000C0000200D000020ABAAAAAA12000020D9
:1007EC0014000020100000200E0000200F0000203C
:1007FC00180000201A0000201600002080B596B0CA
:10080C0000AF07F1140344220021184607F0E4FD61
:10081C003B4600221A605A609A60DA601A61002026
:10082C0003F03CFE0346002B01D001F0D5FE012362
:10083C007B614FF48033BB610223FB6303233B6476
:10084C0001237B641E23BB640223FB6402233B65F0
:10085C0002237B6507F11403184603F0D3FE03460D
:10086C00002B01D001F0B8FE0F233B6003237B600B
:10087C000023BB600023FB6000233B613B4605214A
:10088C00184604F0D9FA0346002B01D001F0A4FE5F
:10089C0000BF5837BD4680BD80B5AEB000AF07F184
:1008AC00AC0300221A605A609A6007F18803242274
:1008BC000021184607F090FD07F1700300221A6022
:1008CC005A609A60DA601A615A613B1D6C220021F1
:1008DC00184607F081FD644B644A1A60624B002293
:1008EC005A60614B02229A605F4B0022DA6032231D
:1008FC00C7F8AC300123C7F8B0300123C7F8B430C7
:10090C0007F1AC031946584802F0CCFA0346002B09
:10091C0001D001F061FE0123C7F888300023C7F82D
:10092C008C300023C7F890300023C7F89430002394
:10093C00C7F898300023C7F89C300023C7F8A030C4
:10094C000023C7F8A4300023C7F8A83007F18803A8
:10095C001946454802F019FF0346002B01D001F05F
:10096C003BFE13233B670F237B670923BB670A23DB
:10097C00FB670023C7F880300023C7F8843007F1E9
:10098C0070031946384802F096FE0346002B01D03E
:10099C0001F022FE42F21071334803F0B2F8034624
:1009AC00002B01D001F018FE00212F4802F096FB1D
:1009BC000346002B01D001F00FFE00237B600523C2
:1009CC00BB600023FB6001233B6178237B61012327
:1009DC00BB610023FB6100233B6200237B6200238D
:1009EC00BB62B823FB62B4233B634FF426737B6377
:1009FC000923BB630823FB6308233B649C237B64B0
:100A0C004FF40043BB641C23FB6450233B654FF441
:100A1C0000537B654FF48053BB654FF40063FB655B
:100A2C004FF480633B664FF400737B664FF4807326
:100A3C00BB660023FB663B1D19460B4802F033FCDA
:100A4C000346002B01D001F0C7FD0021064802F03F
:100A5C0002FC0346002B01D001F0BEFD00F02CFC83
:100A6C0000BFB837BD4680BD48000020006C014077
:100A7C0080B58EB000AF3B1D34220021184607F024
:100A8C00ABFC384B384A1A60364B4FF000425A6078
:100A9C00344B4FF080429A60324B0022DA60314B7B
:100AAC0000221A612F4BB7225A612E4B08229A61F1
:100ABC002C4B40F26B12DA612A4B10221A62294B32
:100ACC0040F2E3125A62274BAC229A62254B40F259
:100ADC009722DA62234BB4221A63224BFF2283F84B
:100AEC003420204BFF2283F835201E4BFF2283F845
:100AFC0036201C4803F00CFA0346002B01D001F001
:100B0C006BFD00237B607823BB600023FB609C2380
:100B1C003B6101237B61FF23BB610023FB614FF42D
:100B2C0080633B6205237B62104BBB627823FB62C4
:100B3C009C233B63FF2387F83430FF2387F8353041
:100B4C00FF2387F836303B1D00221946054803F079
:100B5C00AFFA0346002B01D001F03EFD00BF383741
:100B6C00BD4680BD64000020006801407002042076
:100B7C0080B500AF1B4B1C4A1A601A4B4FF48272A3
:100B8C005A60184B00229A60164B4FF4E062DA6000
:100B9C00144B00221A61134B00225A61114B4FF473
:100BAC0000729A610F4B0822DA610E4B00221A6216
:100BBC000C4B00225A620B4B00229A62094B072203
:100BCC00DA62084B00221A63064B08225A63054866
:100BDC0005F068F90346002B01D001F0FDFC00BFC5
:100BEC0080BD00BF0C0100200038004080B500AF74
:100BFC00184B194A1A60174B00225A60154B0022E9
:100C0C009A60144B4FF4E062DA60124B00221A61C6
:100C1C00104B00225A610F4B00229A610D4B00229F
:100C2C001A620C4B00225A620A4B00229A62094B40
:100C3C000722DA62074B00221A63064B00225A6322
:100C4C00044805F02FF90346002B01D001F0C4FC39
:100C5C0000BF80BD70010020003C004080B500AF9B
:100C6C00224B234A1A60214B4FF4E1325A601F4B3E
:100C7C0000229A601D4B0022DA601C4B00221A6184
:100C8C001A4B0C225A61194B00229A61174B002205
:100C9C00DA61164B00221A62144B00225A62134B73
:100CAC0000229A62114806F07BFC0346002B01D00F
:100CBC0001F092FC00210D4807F0A0FA0346002B2E
:100CCC0001D001F089FC0021084807F0D5FA034651
:100CDC00002B01D001F080FC044807F056FA0346C3
:100CEC00002B01D001F078FC00BF80BDD4010020A6
:100CFC00004C004080B58CB000AF07F11C03002203
:100D0C001A605A609A60DA601A61604BDB6C5F4A59
:100D1C0043F04003D3645D4BDB6C03F04003BB61D9
:100D2C00BB6903F05FFC594BDB6C584A43F004037E
:100D3C00D364564BDB6C03F004037B617B69534B30
:100D4C00DB6C524A43F00203D364504BDB6C03F070
:100D5C0002033B613B694D4BDB6C4C4A43F008038F
:100D6C00D3644A4BDB6C03F00803FB60FB68474B16
:100D7C00DB6C464A43F00103D364444BDB6C03F059
:100D8C000103BB60BB68414BDB6C404A43F0800302
:100D9C00D3643E4BDB6C03F080037B607B683B4B86
:100DAC00DB6C3A4A43F02003D364384BDB6C03F022
:100DBC0020033B603B6800224FF40071344803F081
:100DCC0077F801224FF48251314803F071F8002278
:100DDC000221304803F06CF800224FF480512E4869
:100DEC0003F066F84FF49253FB6101233B6200233E
:100DFC007B620323BB6207F11C031946244802F0F3
:100E0C00ADFE4FF48073FB6100233B6200237B62D9
:100E1C0007F11C0319464FF0904002F09FFE4FF46F
:100E2C008053FB614FF488133B6202237B6207F112
:100E3C001C031946194802F091FE0223FB610123A1
:100E4C003B6200237B620323BB6207F11C03194640
:100E5C00104802F083FE4FF48053FB6101233B6288
:100E6C0000237B620323BB6207F11C0319460A486B
:100E7C0002F074FE00220321282001F036FF282006
:100E8C0001F04FFF00BF3037BD4680BD001002405F
:100E9C00000400480008004800140048000C0048FA
:100EAC0090B5AFB002AFC44802F035FD0346002B3D
:100EBC0001D001F091FBC3230093F02315220021F4
:100ECC00BD4802F064FD96230093F0231522002107
:100EDC00B94802F05CFDB94A07F1A80392E8030097
:100EEC0018600433198002330A0C1A7007F1A80336
:100EFC000193E7230093082339220021AE4802F026
:100F0C0068FDAF4A07F1A403126811461980023339
:100F1C00120C1A7007F1A4030193A4230093042369
:100F2C0039220021A44802F054FDA64BC7F8A0308A
:100F3C0007F1A0030193C323009305233922002159
:100F4C009D4802F046FD9F4BC7F89C3007F19C036F
:100F5C000193C4230093052339220021964802F003
:100F6C0038FD994A07F1900307CA83E8070007F197
:100F7C0090030193E52300930D23392200218E4821
:100F8C0002F027FD904A07F1840307CA83E80700A3
:100F9C0007F184030193E62300930D2339220021EA
:100FAC00854802F016FD894A07F17C0392E803009C
:100FBC0018600433198002330A0C1A7007F17C0391
:100FCC000193EC2300930823392200217A4802F084
:100FDC0000FD7F4BBB6707F178030193C12300939E
:100FEC00052339220021744802F0F3FC784B7B670F
:100FFC0007F174030193C2230093052339220021C6
:10100C006D4802F0E6FC08230093362315220021DC
:10101C00694802F0BCFC072300933A2315220021F7
:10102C00654802F0B4FCBE230093C52315220021B1
:10103C00614802F0ACFC674B07F164040FCB07C4AA
:10104C00238007F164030193E02300930F233922DB
:10105C000021594802F0BDFC5F4B07F154040FCB43
:10106C0007C4238007F154030193E12300930F235A
:10107C0039220021504802F0ACFC10230093B2231B
:10108C00152200214C4802F082FC01230093B3236B
:10109C0015220021484802F07AFC01230093B42366
:1010AC0015220021444802F072FC40F64D63A7F86B
:1010BC00503007F150030193B623009303233922D8
:1010CC0000213D4802F085FC4FF05423FB6407F1EE
:1010DC004C030193B5230093052339220021364894
:1010EC0002F077FC3D4A07F1400307CA03C31A70AC
:1010FC0007F140030193A52300930A233922002111
:10110C002D4802F066FC354A07F1340307CA03C3C5
:10111C001A7007F134030193A62300930A23392292
:10112C000021254802F055FC2D4A07F12C0392E8CA
:10113C00030018600433198002330A0C1A7007F18B
:10114C002C030193BA2300930823392200211A4857
:10115C0002F03FFC234A07F1240392E8030083E8E2
:10116C00030007F124030193BB23009309233922C5
:10117C000021114802F02DFC1A4A07F11C0392E8D9
:10118C00030083E8030007F11C030193BC230093C5
:10119C00092339220021084802F01BFC124A07F1EE
:1011AC00100307CA03C31A800233120C1A7007F11A
:1011BC00100301931AE000BF4800002014840008BB
:1011CC001C84000842052403208400082C84000899
:1011DC0088050F18348400084484000854840008DF
:1011EC00608400086884000870840008BD230093A4
:1011FC000C23392200212D4802F0EBFBC323009372
:10120C00ED2315220021294802F0C1FB284A07F1E1
:10121C000C031268114619800233120C1A7007F174
:10122C000C030193E42300930423392200211F486B
:10123C0002F0CFFB1F4A3B4607CA03C31A703B465A
:10124C000193CC2300930A2339220021174802F082
:10125C00C0FB00230093352315220021134802F014
:10126C0096FB002001F042FC002300931123052281
:10127C0000210E4802F08BFB782001F037FC002394
:10128C000093292305220021084802F080FB7820D6
:10129C0001F02CFC00230093352315220021034878
:1012AC0002F075FB00BFB437BD4690BD480000206E
:1012BC007C8400088084000880B500AF00224021A7
:1012CC00074802F0F5FD142001F010FC012240212A
:1012DC00034802F0EDFD782001F008FC00BF80BD52
:1012EC000004004880B584B000AF0346FB710023B6
:1012FC003B7300233B7207F10C014FF47A7301220C
:10130C006B4804F0E7FF07F108014FF47A730122F0
:10131C00674804F0DFFFFB79012B40F0BF803B7B7B
:10132C00192B00F2C08001A252F823F0A11300087F
:10133C00B1130008C1130008CF130008DD13000817
:10134C00EB130008F913000801140008AD14000891
:10135C00AD140008AD14000809140008111400089D
:10136C00191400082114000829140008311400086D
:10137C00AD140008AD140008AD140008AD1400083D
:10138C00AD140008AD140008AD1400089314000847
:10139C009B1400083B7A1A46464B1A60464B0122B6
:1013AC001A7080E03B7A1A46444B1A60424B012279
:1013BC001A7078E03A7A424B1A703F4B01221A703D
:1013CC0071E03A7A3F4B1A703B4B01221A706AE07B
:1013DC003A7A3D4B1A70384B01221A7063E03A7A14
:1013EC003A4B1A70344B01221A705CE03A7A384B43
:1013FC001A7058E03A7A374B1A7054E03A7A364BF6
:10140C001A7050E03A7A354B1A704CE03A7A344BF9
:10141C001A7048E03A7A334B1A7044E03A7A324BFD
:10142C001A7040E03B7A03F00303032B0ED0032B1E
:10143C0010DC002B02D0012B04D00BE02B4B012233
:10144C001A7007E0294B02221A7003E0274B002286
:10145C001A7000BF3B7A03F00C03082B0ED0082B3C
:10146C0020DC002B02D0042B04D01BE0204B0022EC
:10147C001A7007E01E4B02221A7003E01C4B01226B
:10148C001A7000BF0EE03A7A1A4B1A700BE0184B28
:10149C0000221A70154B01221A7004E000BF02E002
:1014AC0000BF00E000BF00BF1037BD4680BD00BFCD
:1014BC0070010020000000207602072004000020AC
:1014CC000C0000200D0000200E0000200F0000205A
:1014DC0008000020090000201C0000201D00002036
:1014EC0068020020700207200A0000206D02042010
:1014FC006C0204200B00002080B582B000AF786035
:10150C00AE4B1B7803F0C003C02B00F0E581C02B61
:10151C0000F39C82802B00F0D381802B00F3968209
:10152C00002B03D0402B00F06D818FE2A34B1B7876
:10153C0003F03803382B00F2828201A252F823F018
:10154C00311600084B1A00084B1A00084B1A0008F9
:10155C004B1A00084B1A00084B1A00084B1A0008CB
:10156C00E31600084B1A00084B1A00084B1A000827
:10157C004B1A00084B1A00084B1A00084B1A0008AB
:10158C00951700084B1A00084B1A00084B1A000854
:10159C004B1A00084B1A00084B1A00084B1A00088B
:1015AC000D1800084B1A00084B1A00084B1A0008BB
:1015BC004B1A00084B1A00084B1A00084B1A00086B
:1015CC000D1800084B1A00084B1A00084B1A00089B
:1015DC004B1A00084B1A00084B1A00084B1A00084B
:1015EC000D1800084B1A00084B1A00084B1A00087B
:1015FC004B1A00084B1A00084B1A00084B1A00082B
:10160C000D1800084B1A00084B1A00084B1A00085A
:10161C004B1A00084B1A00084B1A00084B1A00080A
:10162C000D180008654B1B7803F00703042B3ED004
:10163C00042B4CDC002B02D0012B14D047E0604B68
:10164C001B78012B45D15F4B1B689AB25E4B1B6814
:10165C009BB212FB03F39AB24FF47A735B495C486A
:10166C0004F038FE35E0564B1B78022B0FD1554B4E
:10167C001B689AB2544B1B689BB212FB03F39AB2D1
:10168C004FF47A735149524804F024FE22E04D4B3A
:10169C001B689AB24C4B1B689BB212FB03F39AB2B9
:1016AC004FF47A734B494A4804F014FE12E0454B50
:1016BC001B689AB2444B1B689BB212FB03F39AB2A1
:1016CC004FF47A734149424804F004FE02E000BF33
:1016DC0097E000BF95E0394B1B7803F00703042B10
:1016EC003ED0042B4CDC002B02D0012B14D047E055
:1016FC00334B1B78012B45D1324B1B689AB2324BC2
:10170C001B689BB212FB03F39AB24FF47A73324903
:10171C002F4804F0DFFD35E0294B1B78022B0FD14D
:10172C00284B1B689AB2284B1B689BB212FB03F325
:10173C009AB24FF47A732849254804F0CBFD22E085
:10174C00204B1B689AB2204B1B689BB212FB03F315
:10175C009AB24FF47A731F491D4804F0BBFD12E096
:10176C00184B1B689AB2184B1B689BB212FB03F305
:10177C009AB24FF47A731849154804F0ABFD02E0A5
:10178C0000BF3EE000BF3CE00C4B1B7803F00703AE
:10179C00042B2FD0042B31DC002B02D0012B1DD0BD
:1017AC002CE0074B1B78012B03D10120FFF79AFD8E
:1017BC0025E00020FFF796FD21E000BF7402072012
:1017CC001E00002000000020040000206C020120FC
:1017DC00700100206C0200206C020220A64B1B78CA
:1017EC00022B03D10120FFF77DFD08E00020FFF75D
:1017FC0079FD04E00120FFF775FD00E000BF00E07B
:10180C0000BF1CE19D4B1B7803F03803282B00F222
:10181C00188101A252F823F0C91800084F1A0008C9
:10182C004F1A00084F1A00084F1A00084F1A0008E8
:10183C004F1A00084F1A0008C91800084F1A000860
:10184C004F1A00084F1A00084F1A00084F1A0008C8
:10185C004F1A00084F1A0008C91800084F1A000840
:10186C004F1A00084F1A00084F1A00084F1A0008A8
:10187C004F1A00084F1A0008C91800084F1A000820
:10188C004F1A00084F1A00084F1A00084F1A000888
:10189C004F1A00084F1A0008C91800084F1A000800
:1018AC004F1A00084F1A00084F1A00084F1A000868
:1018BC004F1A00084F1A0008C918000800BFC0E0F2
:1018CC006E4B1B7803F03803002B03D0202B40F019
:1018DC00BA8000E000BFB6E0684B1B7803F0380319
:1018EC00202B00F0AA80202B00F3AF80002B02D01D
:1018FC00082B78D0A9E0614B1B7803F00703042B6D
:10190C004CD0042B69DC002B02D0012B23D064E0DB
:10191C005B4B1B689AB25B4B1B689BB212FB03F3CD
:10192C009AB24FF47A735849584804F0D3FC524B8E
:10193C001B78012B53D1514B5B78013BDBB2184622
:10194C0000F0C0FA4D4B5B78013BDBB219464E48B8
:10195C0000F052F943E04A4B1B689AB2494B1B68A2
:10196C009BB212FB03F39AB24FF47A734649474881
:10197C0004F0B0FC404B1B78022B32D13F4B5B7810
:10198C00013BDBB2184600F09DFA3C4B5B78013B07
:10199C00DBB219463C4800F02FF922E0384B1B68AB
:1019AC009AB2384B1B689BB212FB03F39AB24FF4FA
:1019BC007A733549354804F08DFC304B5B78013B2C
:1019CC00DBB2184600F07EFA2C4B5B78013BDBB2A5
:1019DC0019462D4800F010F904E000BF2EE000BFBE
:1019EC002CE000BF2AE0254B1B7803F00703042BE7
:1019FC0014D0042B1DDC002B01D0012B1CE01E4B42
:101A0C001B78012B17D100F033FB1C4B5B78013B8F
:101A1C00DBB219461C4800F0BFF90CE000F028FBC3
:101A2C00164B5B78013BDBB21946174800F0B4F952
:101A3C0002E000BF02E000BF00E000BF05E000BF15
:101A4C0004E000BF02E000BF00E000BF0B4B1B78BE
:101A5C0003F00703002B02D0012B02D002E000BFE1
:101A6C0000E000BF02220549084804F08DFF00BFCA
:101A7C000837BD4680BD00BF1E0000207402072041
:101A8C0000000020040000206C02002070010020E7
:101A9C0080B48BB000AF786000237B62354B1B7831
:101AAC001AB2354B1B781B021BB213431BB27B8142
:101ABC0000233B620DE07A893B6A42FA03F303F0A0
:101ACC000103002B02D07B6A01337B623B6A01333A
:101ADC003B623B6A0B2BEEDD0023FB610023BB61F9
:101AEC0000237B6100233B6134E00023BB610023B6
:101AFC007B610023FB6022E07A89FB6842FA03F3E6
:101B0C0003F00103002B14D0FA69BB691344FB6189
:101B1C003A697B6913441A467B6813441978174A4F
:101B2C00FB6913440A461A707B6901337B610023FD
:101B3C00BB61BB690133BB61FB680133FB60FB68B4
:101B4C000B2BD9DDFA69BB691344FB613A697B6ADB
:101B5C0013443B610A4B1B680A4A126803FB02F2EE
:101B6C003B699A42C1D800BF00BF2C37BD465DF817
:101B7C00047B70471C0000201D0000207002042014
:101B8C00000000200400002080B582B000AF0023CC
:101B9C003B7100224FF480510E4802F089F9052365
:101BAC003B7039464FF47A7301220B4804F01DFA4E
:101BBC00391D4FF47A730122074804F08BFB012284
:101BCC004FF48051034802F073F93B7918460837FB
:101BDC00BD4680BD000400480C01002080B500AF5C
:101BEC0000BFFFF7D1FF034603F00103012BF8D030
:101BFC0000BF00BF80BD000080B58EB000AF786024
:101C0C000B46FB7000237B63604B1B78002B02D1CF
:101C1C0004237B630CE05D4B1B78012B02D1022368
:101C2C007B6305E0594B1B78022B01D101237B63AD
:101C3C00FA787B6B92FBF3F3BB62FB787A6B93FBCA
:101C4C00F2F2796B01FB02F29B1A7B6200233B637D
:101C5C004FF480727B6B92FBF3F37A6A02FB03F313
:101C6C00FB627EE000224FF48051494802F020F9DB
:101C7C00062387F8203007F120014FF47A730122F4
:101C8C00444804F0B2F901224FF48051404802F06C
:101C9C000FF90A2000F00EFC00224FF480513C4852
:101CAC0002F006F902233B7707F11C014FF47A731B
:101CBC000122384804F099F9BB6ADBB23B7607F194
:101CCC0018014FF47A730122324804F08EF9FB6A42
:101CDC00DBB23B7507F114014FF47A7301222D48E6
:101CEC0004F083F900233B7407F110014FF47A736D
:101CFC000122284804F079F93B6B1B021A467B68D9
:101D0C0099184FF47A734FF48072224804F06DF9ED
:101D1C0001224FF480511E4802F0CAF80A2000F04C
:101D2C00C9FB00224FF48051194802F0C1F804237A
:101D3C003B7307F10C014FF47A730122154804F040
:101D4C0054F901224FF48051114802F0B1F84FF4CC
:101D5C007A7000F0AFFB3B6B01333B63FB6A0133E2
:101D6C00FB627B6A01334FF480717A6B91FBF2F268
:101D7C0002FB03F31A46FB6A9342FFF473AFFFF7BF
:101D8C002DFF00BF3837BD4680BD00BF0B000020C3
:101D9C00000400480C01002080B58CB000AF7860C6
:101DAC000B46FB700023FB62434B1B78002B02D1CC
:101DBC000423FB620CE0404B1B78012B02D1022365
:101DCC00FB6205E03C4B1B78022B01D10123FB622B
:101DDC00FA78FB6A92FBF3F33B62FB78FA6A93FBAB
:101DEC00F2F2F96A01FB02F29B1AFB610023BB625F
:101DFC004FF48072FB6A92FBF3F3FA6902FB03F374
:101E0C007B6247E000224FF480512C4802F050F8DE
:101E1C0003233B7607F118014FF47A73012228480B
:101E2C0004F0E3F83B6ADBB23B7507F114014FF4A5
:101E3C007A730122224804F0D8F87B6ADBB23B7437
:101E4C0007F110014FF47A7301221D4804F0CDF80C
:101E5C0000233B7307F10C014FF47A7301221848ED
:101E6C0004F0C3F8BB6A1B021A467B6899184FF43E
:101E7C007A734FF48072124804F02CFA01224FF45A
:101E8C0080510E4802F014F8BB6A0133BB627B6AC6
:101E9C0001337B62FB6901334FF48071FA6A91FB69
:101EAC00F2F202FB03F31A467B6A9342AAD300BFF9
:101EBC0000BF3037BD4680BD0B0000200004004839
:101ECC000C01002080B58CB000AF0346FB710023E1
:101EDC00FB62644B1B78002B02D10423FB620CE0E9
:101EEC00604B1B78012B02D10223FB6205E05D4B9A
:101EFC001B78022B01D10123FB62002387F82B30C6
:101F0C00584B1B78002B03D1042387F82B300EE0A1
:101F1C00544B1B78012B03D1082387F82B3006E098
:101F2C00504B1B78022B02D1102387F82B30FA79F7
:101F3C00FB6A92FBF3F37B62FB79FA6A93FBF2F296
:101F4C00F96A01FB02F29B1A3B6200F091F8002344
:101F5C0087F82A307AE000224FF48051424801F091
:101F6C00A7FF06233B7707F11C014FF47A7301227C
:101F7C003E4804F03AF801224FF480513A4801F0FF
:101F8C0097FF0A2000F096FA00224FF48051364851
:101F9C0001F08EFF20233B7607F118014FF47A7382
:101FAC000122324804F021F87B6ADBB23B7507F161
:101FBC0014014FF47A7301222C4804F016F897F8A8
:101FCC002B303A6A03FB02F297F82A301344DBB247
:101FDC001B01DBB23B7407F110014FF47A73012241
:101FEC00224804F002F800233B7307F10C014FF474
:101FFC007A7301221D4803F0F8FF01224FF480513F
:10200C00194801F055FF0A2000F054FA00224FF451
:10201C008051154801F04CFF04233B7207F1080175
:10202C004FF47A730122114803F0DFFF01224FF4C1
:10203C0080510D4801F03CFF0A2000F03BFAFFF7FD
:10204C00CDFD97F82A30013387F82A3097F82A20EB
:10205C0097F82B309A42FFF47EAF00BF00BF3037A9
:10206C00BD4680BD0B000020000400480C01002080
:10207C0080B582B000AF00224FF480511A4801F0B5
:10208C0017FF66233B71391D4FF47A7301221748F1
:10209C0003F0ABFF01224FF48051134801F008FF0D
:1020AC00012000F022FA00224FF480510E4801F07A
:1020BC00FFFE99233B7039464FF47A7301220B488B
:1020CC0003F093FF01224FF48051074801F0F0FE1A
:1020DC00012000F00AFA4FF47A7000F0EBF900BF1F
:1020EC000837BD4680BD00BF000400480C0100202D
:1020FC0080B5AEB000AF07F1AC0300221A605A6095
:10210C009A6007F1880324220021184606F064F92E
:10211C0007F1700300221A605A609A60DA601A6143
:10212C005A613B1D6C220021184606F055F96D4B87
:10213C006D4A1A606B4B00225A606A4B02229A60FD
:10214C00684B0022DA603223C7F8AC300123C7F8A1
:10215C00B0300123C7F8B43007F1AC03194661481D
:10216C0000F0A0FE0346002B01D000F035FA01234D
:10217C00C7F888300023C7F88C300023C7F890309C
:10218C000023C7F894300023C7F898300023C7F811
:10219C009C300023C7F8A0300023C7F8A4300023DC
:1021AC00C7F8A83007F1880319464E4801F0EDFA3C
:1021BC000346002B01D000F00FFA13233B670F23CB
:1021CC007B670923BB670A23FB670023C7F88030B2
:1021DC000023C7F8843007F170031946414801F019
:1021EC006AFA0346002B01D000F0F6F942F21071A6
:1021FC003C4801F086FC0346002B01D000F0ECF9C2
:10220C000021384800F06AFF0346002B01D000F093
:10221C00E3F900237B600523BB600023FB600123F3
:10222C003B6178237B610123BB610023FB610023AD
:10223C003B6200237B620023BB622C4B1B88FB623E
:10224C002B4B1B883B63294B1B881A46284B1B883E
:10225C0013441A46274B1B681344274A128813440D
:10226C007B63264B1B88BB63254B1B88FB63254B71
:10227C001B883B64244B1B687B644FF40043BB649A
:10228C001C23FB6450233B654FF400537B654FF4D8
:10229C008053BB654FF40063FB654FF480633B6672
:1022AC004FF400737B664FF48073BB660023FB66B0
:1022BC003B1D19460B4800F0F6FF0346002B01D0DE
:1022CC0000F08AF90021074800F0C5FF0346002BF7
:1022DC0001D000F081F9FEF7EFFF00BFB837BD4623
:1022EC0080BD00BF48000020006C014010000020A1
:1022FC001200002000000020140000201600002016
:10230C00180000201A0000200400002080B58EB0B8
:10231C0000AF3B1D34220021184606F05DF85A4BE5
:10232C005A4A1A60584B4FF000425A60564B4FF0C5
:10233C0080429A60544B0022DA60534B00221A619F
:10234C00534B1B88013B1A464F4B5A61514B1B8810
:10235C00013B1A464C4B9A614D4B1B881A464E4B0F
:10236C001B881344013B1A46474BDA61494B1B88C7
:10237C001A464A4B1B881344013B1A46424B1A62BD
:10238C00434B1B881A46444B1B8813441A46444B38
:10239C001B681344013B3C4A53623E4B1B881A4654
:1023AC003E4B1B8813441A463E4B1B681344013B9F
:1023BC00354A9362364B1B881A46374B1B8813449D
:1023CC001A46374B1B681344374A12881344013B97
:1023DC002D4AD3622F4B1B881A46304B1B88134453
:1023EC001A46304B1B681344304A12881344013B85
:1023FC00254A1363244BFF2283F83420224BFF22FF
:10240C0083F83520204BFF2283F836201E4801F03C
:10241C007FFD0346002B01D000F0DEF800237B602B
:10242C001F4B1B68BB600023FB601E4B1B683B6192
:10243C0001237B61FF23BB610023FB614FF48063AD
:10244C003B6205237B621A4BBB62154B1B68FB621C
:10245C00144B1B683B63FF2387F83430FF2387F84A
:10246C003530FF2387F836303B1D002219460648CD
:10247C0001F01EFE0346002B01D000F0ADF800BFAA
:10248C003837BD4680BD00BF6400002000680140A5
:10249C001000002016000020120000201800002060
:1024AC000000002004000020140000201A0000206E
:1024BC007002042080B485B000AF78600023FB600C
:1024CC0007E00D23FB6000BFFB685A1EFA60002B6F
:1024DC00FAD17B685A1E7A60002BF2D100BF00BF84
:1024EC001437BD465DF8047B704780B485B000AFEF
:1024FC0078600023FB6007E00123FB6000BFFB68F2
:10250C005A1EFA60002BFAD17B685A1E7A60002B97
:10251C00F2D100BF00BF1437BD465DF8047B704795
:10252C0080B584B000AF0346FB80FB88B3F5805FB9
:10253C0044D1244B1B680133224A13604CF25030B7
:10254C00FFF7B8FF0023FB6032E04FF480511E48C8
:10255C0001F096FC0346002B1ED11A4B1B684F2B27
:10256C0016DC184B1B68052B12DD184B1B78002B47
:10257C000ED1174B1B780133DAB2154B1A70144B72
:10258C001A78144B1B789A4202D3114B00221A7002
:10259C000C4B00221A6011E00A4B1B680133094AEC
:1025AC00136042F21070FFF785FFFB680133FB608C
:1025BC00FB68C72BC9DD034B00221A601037BD46E0
:1025CC0080BD00BF78020720000C00486C0204207C
:1025DC00700207200900002080B400AF72B600BF63
:1025EC00FEE7000080B483B000AF0F4B1B6E0E4AA9
:1025FC0043F0010313660C4B1B6E03F001037B606D
:10260C007B68094B9B6D084A43F080539365064BDE
:10261C009B6D03F080533B603B6800BF0C37BD469D
:10262C005DF8047B704700BF0010024080B5AAB073
:10263C0000AF786007F10C039C220021184605F0CE
:10264C00CBFE7B681B68114A93421BD14FF40003ED
:10265C00FB600023C7F89C3007F10C03184602F00E
:10266C00A9FE0346002B01D0FFF7B6FF084B1B6EEB
:10267C00074A43F000631366054B1B6E03F00063BF
:10268C00BB60BB6800BFA837BD4680BD006C014075
:10269C000010024080B5AAB000AF786007F10C03BF
:1026AC009C220021184605F097FE7B681B68194A8E
:1026BC0093422BD14FF48003FB604FF48033C7F867
:1026CC0098300323FB6201233B6308237B630223C3
:1026DC00BB6302233B640223FB634FF080737B6478
:1026EC0007F10C03184602F065FE0346002B01D0DF
:1026FC00FFF772FF084B1B6E074A43F080631366AB
:10270C00054B1B6E03F08063BB60BB6800BFA83732
:10271C00BD4680BD006801400010024080B58CB001
:10272C0000AF786007F11C0300221A605A609A60AF
:10273C00DA601A617B681B68424A934228D1424B8B
:10274C009B6D414A43F4804393653F4B9B6D03F46F
:10275C008043BB61BB693C4BDB6C3B4A43F00803D9
:10276C00D364394BDB6C03F008037B617B691A2360
:10277C00FB6102233B6200237B620323BB620523C4
:10278C00FB6207F11C031946304801F0E7F954E0ED
:10279C007B681B682E4A93424FD12B4B9B6D2A4A68
:1027AC0043F400439365284B9B6D03F400433B615A
:1027BC003B69254BDB6C244A43F04003D364224B2A
:1027CC00DB6C03F04003FB60FB6801F00BFF1E4B5E
:1027DC00DB6C1D4A43F00403D3641B4BDB6C03F02E
:1027EC000403BB60BB684FF4A053FB6102233B6244
:1027FC0000237B620323BB620623FB6207F11C03ED
:10280C001946144801F0AAF94FF4A053FB610223B6
:10281C003B6200237B620323BB620623FB6207F14E
:10282C001C0319460C4801F099F9002200213320B1
:10283C0000F05BFA332000F074FA00BF3037BD466D
:10284C0080BD00BF0038004000100240000C004862
:10285C00003C0040001800480008004880B5B0B0AB
:10286C0000AF786007F1AC0300221A605A609A60DE
:10287C00DA601A6107F110039C220021184605F05A
:10288C00ABFD7B681B68214A93423BD108233B611B
:10289C000023BB6507F11003184602F08BFD0346BD
:1028AC00002B01D0FFF798FE194B9B6D184A43F48F
:1028BC0000239365164B9B6D03F40023FB60FB68B0
:1028CC00134BDB6C124A43F00103D364104BDB6CEB
:1028DC0003F00103BB60BB680323C7F8AC300223D1
:1028EC00C7F8B0300023C7F8B4300323C7F8B830AA
:1028FC000823C7F8BC3007F1AC0319464FF09040E1
:10290C0001F02CF900BFC037BD4680BD004C004023
:10291C000010024080B400AFFEE780B400AFFEE7C9
:10292C0080B400AFFEE780B400AFFEE780B400AF28
:10293C00FEE780B400AF00BFBD465DF8047B704776
:10294C0080B400AF00BFBD465DF8047B704780B417
:10295C0000AF00BFBD465DF8047B704780B500AF8B
:10296C0000F0A4F800BF80BD80B500AF4FF48050DC
:10297C0001F0B6FA00BF80BD80B500AF024804F08C
:10298C005FF900BF80BD00BF7001002080B400AFB4
:10299C00064BD3F88830054A43F47003C2F88830EC
:1029AC0000BFBD465DF8047B704700BF00ED00E042
:1029BC00DFF834D0FFF7EAFF0C480D490D4A00232D
:1029CC0002E0D458C4500433C4188C42F9D30A4AD8
:1029DC000A4C002301E013600432A242FBD305F041
:1029EC00D7FCFDF787FDFEE700000A200000002061
:1029FC002C0000200C8500082C00002080020720F1
:102A0C00FEE780B582B000AF0023FB71032000F01D
:102A1C0061F9022000F00EF80346002B02D00123CE
:102A2C00FB7101E0FFF7DEFDFB7918460837BD4668
:102A3C0080BD000080B584B000AF78600023FB73CC
:102A4C00174B1B78002B23D0164B1A68144B1B7892
:102A5C0019464FF47A73B3FBF1F3B2FBF3F3184658
:102A6C0000F06DF90346002B0FD17B680F2B09D8B2
:102A7C00002279684FF0FF3000F037F90A4A7B6882
:102A8C00136007E00123FB7304E00123FB7301E0F7
:102A9C000123FB73FB7B18461037BD4680BD00BF7E
:102AAC0028000020200000202400002080B400AF6B
:102ABC00064B1B781A46064B1B681344044A1360DA
:102ACC0000BFBD465DF8047B704700BF28000020A6
:102ADC007C02072080B400AF034B1B681846BD4630
:102AEC005DF8047B704700BF7C02072080B584B082
:102AFC0000AF7860FFF7EEFFB8607B68FB60FB68A7
:102B0C00B3F1FF3F05D00A4B1B781A46FB68134400
:102B1C00FB6000BFFFF7DEFF0246BB68D31AFA6802
:102B2C009A42F7D800BF00BF1037BD4680BD00BF2A
:102B3C002800002080B485B000AF78607B6803F07B
:102B4C000703FB600C4BDB68BB60BA684FF6FF03F6
:102B5C001340BB60FB681A02BB68134343F0BF63AE
:102B6C0043F40033BB60044ABB68D36000BF143726
:102B7C00BD465DF8047B704700ED00E080B400AF0B
:102B8C00044BDB681B0A03F007031846BD465DF8CF
:102B9C00047B704700ED00E080B483B000AF0346C7
:102BAC00FB7197F90730002B0BDBFB7903F01F024D
:102BBC00074997F907305B09012000FA02F241F846
:102BCC00232000BF0C37BD465DF8047B704700BF67
:102BDC0000E100E080B483B000AF03463960FB71C4
:102BEC0097F90730002B0ADB3B68DAB20C4997F9EE
:102BFC0007301201D2B20B4483F800230AE03B6881
:102C0C00DAB20849FB7903F00F03043B1201D2B28C
:102C1C000B441A7600BF0C37BD465DF8047B704739
:102C2C0000E100E000ED00E080B489B000AFF86096
:102C3C00B9607A60FB6803F00703FB61FB69C3F1C1
:102C4C000703042B28BF0423BB61FB690433062B49
:102C5C0002D9FB69033B00E000237B614FF0FF329C
:102C6C00BB6902FA03F3DA43BB681A407B699A40EA
:102C7C004FF0FF317B6901FA03F3D9437B680B40BA
:102C8C00134318462437BD465DF8047B704700009B
:102C9C0080B582B000AF78607B68013BB3F1807F78
:102CAC0001D301230FE00A4A7B68013B53600F21DB
:102CBC004FF0FF30FFF78EFF054B00229A60044B5C
:102CCC0007221A60002318460837BD4680BD00BF96
:102CDC0010E000E080B582B000AF78607868FFF754
:102CEC0029FF00BF0837BD4680BD80B586B000AF58
:102CFC000346B9607A60FB7300237B61FFF73EFFEC
:102D0C0078617A68B9687869FFF78EFF024697F99F
:102D1C000F3011461846FFF75DFF00BF1837BD4650
:102D2C0080BD80B582B000AF0346FB7197F90730C8
:102D3C001846FFF731FF00BF0837BD4680BD80B590
:102D4C0082B000AF78607868FFF7A2FF03461846A0
:102D5C000837BD4680BD80B584B000AF78600023D5
:102D6C00FB737B6893F82530DBB2022B05D07B68B4
:102D7C000422DA630123FB7347E07B681B681A6843
:102D8C007B681B6822F00E021A607B681B681A684D
:102D9C007B681B6822F001021A607B689B6C1A68C6
:102DAC007B689B6C22F480721A607B685B6C03F00E
:102DBC001C027B681B6C012101FA02F25A607B68D1
:102DCC00DB6C7A68126D5A607B685B6D002B0CD0E3
:102DDC007B685B6D1A687B685B6D22F480721A608D
:102DEC007B689B6D7A68D26D5A607B68012283F890
:102DFC0025207B68002283F824207B689B6B002BAA
:102E0C0003D07B689B6B78689847FB7B1846103720
:102E1C00BD4680BD80B485B000AFF860B9607A6003
:102E2C003B60BB689A017B681A433B681B021A43E0
:102E3C00BB691B041A43FB68DA6600BF1437BD4636
:102E4C005DF8047B704780B586B000AFF860B96060
:102E5C007A603B60FFF73EFE786109E0FFF73AFECF
:102E6C0002467B69D31AB3F57A7F01D9032315E0A7
:102E7C00FB681B685B6F03F00103002BEED0BB6893
:102E8C009A017B681A433B681B0242EA03013B6AC6
:102E9C001A04FB681B680A43DA66002318461837C5
:102EAC00BD4680BD80B588B000AF786039607B6866
:102EBC00002B01D101230BE17B685B7CDBB2002B87
:102ECC0002D17868FFF7B2FB7B6803225A740023A7
:102EDC003B617B681B68D3F830247B681B6842F02D
:102EEC008072C3F830247B681B68D3F8303403F04D
:102EFC0080733B613B69FFF7EDFDF86109E0FFF77B
:102F0C00E9FD0246FB69D31AB3F57A7F01D9032395
:102F1C00DEE07B681B68D3F80C3403F48053002B81
:102F2C00EDD07B681B68D3F830347A68126823F4D0
:102F3C005E3323F4FE73C2F830347B681B68D3F81D
:102F4C0030143B681B689A003B685B68DB021A43D1
:102F5C003B689B681B041A437B681B680A43C3F8D5
:102F6C0030240023FB607B681B68D3F830247B681B
:102F7C001B6842F00102C3F830247B681B68D3F84D
:102F8C00303403F00103FB60FB680120FFF7AEFD5A
:102F9C00FFF7A0FDF86109E0FFF79CFD0246FB6915
:102FAC00D31AB3F57A7F01D9032391E07B681B68B0
:102FBC00D3F80C3403F48073002BEDD07B681B68C2
:102FCC00D3F8A0207B681B6842F00602C3F8A0204F
:102FDC007B681B68D3F894207B681B6822F0030283
:102FEC00C3F894207B681B68D3F894207B685B68DB
:102FFC001A437B681B6842F00102C3F894207B687B
:10300C001B68D3F8A4207B681B6822F00302C3F86A
:10301C00A4207B681B68D3F8A4107B68DA687B68F3
:10302C001B680A43C3F8A4207B681B689A687B68FA
:10303C001B6822F0FF029A607B681B6899687B68AA
:10304C009A687B681B680A439A603B685B68002B34
:10305C0002D03B685B6800E00123BB61BB691E4A80
:10306C0003FB02F23B689B6803F003039A403B6846
:10307C001B684FF4FA5101FB03F3B2FBF3F37B61D2
:10308C007B681B68D3F818247B681B6822F03F020E
:10309C00C3F818247B681B68D3F818147B681B686A
:1030AC007A690A43C3F818247B681B680022C3F8AA
:1030BC00C4207B681B680022C3F8C8207B680022F0
:1030CC009A617B6800225A617B6801225A74002342
:1030DC0018462037BD4680BD00093D0080B483B042
:1030EC0000AF786039607B681B7C012B01D1022317
:1030FC00ABE07B6801221A747B681B680022C3F862
:10310C00C4207B681B680022C3F8C8207B683A681F
:10311C009A613B6803F00103002B0BD07B681B68A2
:10312C00D3F8C4307A6812686FEA13436FEA03432A
:10313C00C2F8C4303B6803F00203002B09D07B6853
:10314C001B68D3F8C4207B681B6842F4F812C3F8E0
:10315C00C4203B6803F00403002B09D07B681B6878
:10316C00D3F8C8207B681B6842F00102C3F8C82062
:10317C003B6803F00803002B09D07B681B68D3F86D
:10318C00C8207B681B6842F00202C3F8C8203B6869
:10319C0003F01003002B09D07B681B68D3F8C82000
:1031AC007B681B6842F00C02C3F8C8203B6803F034
:1031BC002003002B09D07B681B68D3F8C8207B68E0
:1031CC001B6842F01002C3F8C8203B6803F04003B0
:1031DC00002B09D07B681B68D3F8C8207B681B6860
:1031EC0042F02002C3F8C8203B6803F08003002B98
:1031FC0009D07B681B68D3F8C8207B681B6842F039
:10320C004002C3F8C8203B6803F48073002B09D03C
:10321C007B681B68D3F8C8207B681B6842F080026F
:10322C00C3F8C8203B6803F40073002B09D07B68FB
:10323C001B68D3F8C8207B681B6842F4F852C3F8AB
:10324C00C8207B6800221A74002318460C37BD4630
:10325C005DF8047B704780B483B000AF7860396050
:10326C007B681B7C012B01D1022316E07B680122B9
:10327C001A747B681B681A6B7B681B6822F003024C
:10328C001A637B681B68196B7B681B683A680A4376
:10329C001A637B6800221A74002318460C37BD464B
:1032AC005DF8047B704780B483B000AF7860396000
:1032BC007B681B7C012B01D10223F6E17B68012288
:1032CC001A747B681B685A6B7B681B6822F00102BE
:1032DC005A637B681B68D3F800247B681B6822F058
:1032EC000102C3F800247B681B689A6B7B681B681F
:1032FC0022F003029A637B681B68996B3B68DA685F
:10330C007B681B680A439A637B681B68DB6B7A6873
:10331C00126823F47F5323F03F03D3637B681B684D
:10332C00D96B3B681A697B681B680A43DA637B6854
:10333C001B681B6C7A68126823F4FF5323F01F037D
:10334C0013647B681B68196C3B685A697B681B6843
:10335C000A431A647B681B685B6C7A68126823F4F6
:10336C00FF5323F01F0353647B681B68596C3B6845
:10337C009A697B681B680A435A647B681B68DA6825
:10338C007B681B6822F00302DA607B681B68D968D3
:10339C003B681A687B681B680A43DA607B681B68A9
:1033AC005A697B681B6822F007025A617B681B68AC
:1033BC0059693B685A6A3B681B6A1A433B68DB696C
:1033CC001A437B681B680A435A617B681B681A693D
:1033DC007B681B6822F00F021A617B681B681969F5
:1033EC003B685A687B681B680A431A617B681B68D8
:1033FC00D3F800247B681B6822F00E02C3F800246B
:10340C007B681B68D3F800143B685B685A007B68C8
:10341C001B680A43C3F800243B685B68032B10D17C
:10342C007B681B681A697B681B6822F480721A61BE
:10343C007B681B6819693B689A687B681B680A4340
:10344C001A617B681B689B6C7A68126823F47F6333
:10345C0023F00F0393647B681B68996C3B689A6A32
:10346C007B681B680A439A647B681B68DB6C7A6810
:10347C00126823F47F6323F00F03D3647B681B680B
:10348C00D96C3B68DA6A7B681B680A43DA647B6830
:10349C001B681B6D7A68126823F4FF4323F07F03CB
:1034AC0013657B681B68196D3B681A6B7B681B681E
:1034BC000A431A657B681B685B6D7A68126823F493
:1034CC007F7323F0030353657B681B68596D3B685E
:1034DC005A6B7B681B680A435A657B681B689B6D3B
:1034EC007A68126823F47F7323F0030393657B6877
:1034FC001B68996D3B689A6B7B681B680A439A65DD
:10350C007B681B68DB6D7A68126823F47F7323F089
:10351C000303D3657B681B68D96D3B68DA6B7B68EA
:10352C001B680A43DA657B681B681B6E7A68126835
:10353C0023F47F5323F03F0313667B681B68196EDB
:10354C003B681A6C7B681B680A431A667B681B68AD
:10355C009A6B7B681B6822F400429A637B681B6839
:10356C00996B3B685A6C7B681B680A439A637B684F
:10357C001B689A697B681B6822F47F029A617B68DE
:10358C001B6899693B689B6C1A047B681B680A432F
:10359C009A617B681B689A697B681B6822F0FF0242
:1035AC009A617B681B6899693B68DA6C7B681B685D
:1035BC000A439A617B681B689A6B7B681B6822F4D0
:1035CC0000529A637B681B68996B3B681A6D7B6829
:1035DC001B680A439A637B681B689A6B7B681B6841
:1035EC0022F480529A637B681B68996B3B685A6D16
:1035FC007B681B680A439A637B681B689A6B7B68C1
:10360C001B6822F400629A637B681B68996B3B68A9
:10361C009A6D7B681B680A439A637B681B689A6B7C
:10362C007B681B6822F480629A637B681B68996BC9
:10363C003B68DA6D7B681B680A439A637B681B687E
:10364C009A6B7B681B6822F400729A637B681B6818
:10365C00996B3B681A6E7B681B680A439A637B689C
:10366C001B689A6B7B681B6822F480729A637B6878
:10367C001B68996B3B685A6E7B681B680A439A639C
:10368C007B681B689A6B7B681B6822F480429A6388
:10369C007B681B68996B3B689A6E7B681B680A4356
:1036AC009A637B6800221A74002318460C37BD46B7
:1036BC005DF8047B704780B485B000AF78603960EA
:1036CC007B681B7C012B01D1022358E07B68012213
:1036DC001A743B681A683B685B68934238BF1346A0
:1036EC00FB607B681B68D3F898207B681B6802F032
:1036FC00FC22C3F898207B681B68D3F89810FB68F1
:10370C001A04FB681A437B681B680A43C3F89820A9
:10371C007B681B68D3F89C207B681B6802F4004212
:10372C00C3F89C207B681B68D3F89C103B681A6913
:10373C003B68DB681B041A433B689B681B061A43F7
:10374C007B681B680A43C3F89C207B681B68D3F812
:10375C00A4207B681B6822F47F42C3F8A4207B68FA
:10376C001B68D3F8A4103B685B691A027B681B6862
:10377C000A43C3F8A4207B6800221A74002318465D
:10378C001437BD465DF8047B704780B483B000AF3E
:10379C00786039607B681B7C012B01D10223B4E07B
:1037AC007B6801221A747B681B689A687B681B68AB
:1037BC0022F47F429A607B681B6899683B681B689F
:1037CC001A027B681B680A439A607B681B689A6FB5
:1037DC007B681B6892B29A677B681B68996F3B6821
:1037EC005B681A047B681B680A439A677B681B68D2
:1037FC009B6F7A6812681B0C1B0493677B681B68B1
:10380C00996F3B689A687B681B680A439A677B6868
:10381C001B68DB6F7A6812681B0C1B04D3677B6810
:10382C001B68D96F3B68DA687B681B680A43DA67E8
:10383C007B681B68D3F880307A6812681B0C1B04F9
:10384C00C2F880307B681B68D3F880103B681A691B
:10385C007B681B680A43C3F880207B681B68D3F81D
:10386C0084307A6812681B0C1B04C2F884307B68A5
:10387C001B68D3F884103B685A697B681B680A4341
:10388C00C3F884207B681B68D3F884207B681B6892
:10389C0022F08072C3F884207B681B68D3F88410F4
:1038AC003B689A697B681B680A43C3F884207B6871
:1038BC001B68D3F888307A6812681B0C1B04C2F89A
:1038CC0088307B681B68D3F888103B68DA697B68A2
:1038DC001B680A43C3F888207B681B68D3F88C30BC
:1038EC007A6812681B0C1B04C2F88C307B681B684E
:1038FC00D3F88C103B681A6A7B681B680A43C3F8C0
:10390C008C207B6800221A74002318460C37BD46A5
:10391C005DF8047B704780B485B000AF78607B683D
:10392C001B7C012B01D102232BE07B6801221A7432
:10393C000023FB607B681B685A687B681B6842F03D
:10394C0001025A607B681B685B6803F00103FB6033
:10395C00FB680023BB607B681B68D3F804247B687E
:10396C001B6842F00802C3F804247B681B68D3F878
:10397C00043403F00803BB60BB687B6800221A7434
:10398C00002318461437BD465DF8047B704780B59C
:10399C0088B002AFF860B9607A603B60FB681B7C52
:1039AC00012B01D1022310E0FB6801221A743B6A3F
:1039BC0000933B687A68B968F868FFF744FA0346E5
:1039CC00FB75FB6800221A74FB7D18461837BD4640
:1039DC0080BD80B58CB002AFF860B9607A603B6096
:1039EC007B6BBB61FB681B7C012B01D1022384E048
:1039FC00FB6801221A74FFF76DF878610CE0FFF791
:103A0C0069F802467B69D31AB3F57A7F04D9FB684F
:103A1C0000221A74032370E0FB681B685B6F03F0D1
:103A2C000103002BEBD03B6BFB613B68032B28BFE6
:103A3C0003233B6100233B620FE0BA693B6A1344EA
:103A4C001B781A463B6A0133DB0002FA03F3FA696E
:103A5C001343FB613B6A01333B623A6A3B699A420E
:103A6C00EBD3FB681B68FA691A673A683B69D31A8F
:103A7C007B62BA693B691344BB6128E07B6A042B07
:103A8C0028BF04233B610023FB6100233B620EE053
:103A9C00BA693B6A13441B781A463B6ADB0002FA8C
:103AAC0003F3FA691343FB613B6A01333B623A6AE5
:103ABC003B699A42ECD3FB681B68FA691A677A6A0D
:103ACC003B69D31A7B62BA693B691344BB617B6A5D
:103ADC00002BD3D1FB6818683B680133DAB23B6822
:103AEC0001331B0ADBB2009313467A68B968FFF7FF
:103AFC0091F9FB6800221A74002318462837BD463A
:103B0C0080BD80B483B000AF786039607B681B7C6B
:103B1C00012B01D102231BE07B6801221A747B6804
:103B2C001B68D3F81C247B681B6822F0C062C3F8A6
:103B3C001C247B681B68D3F81C143B685A067B68F2
:103B4C001B680A43C3F81C247B6800221A740023E8
:103B5C0018460C37BD465DF8047B704780B487B0BF
:103B6C0000AF7860396000237B6166E13B681A68BE
:103B7C0001217B6901FA03F31340FB60FB68002B06
:103B8C0000F058813B685B6803F00303012B05D000
:103B9C003B685B6803F00303022B30D17B689B68A6
:103BAC003B617B695B00032202FA03F3DB433A6956
:103BBC0013403B613B68DA687B695B0002FA03F3F4
:103BCC003A6913433B617B683A699A607B685B682E
:103BDC003B6101227B6902FA03F3DB433A69134030
:103BEC003B613B685B681B0903F001027B6902FACD
:103BFC0003F33A6913433B617B683A695A603B684B
:103C0C005B6803F00303032B17D07B68DB683B6115
:103C1C007B695B00032202FA03F3DB433A6913402E
:103C2C003B613B689A687B695B0002FA03F33A6973
:103C3C0013433B617B683A69DA603B685B6803F06D
:103C4C000303022B23D17B69DA087B68083253F813
:103C5C0022303B617B6903F007039B000F2202FAC1
:103C6C0003F3DB433A6913403B613B681A697B6998
:103C7C0003F007039B0002FA03F33A6913433B6119
:103C8C007B69DA087B680832396943F822107B6853
:103C9C001B683B617B695B00032202FA03F3DB4385
:103CAC003A6913403B613B685B6803F003027B6934
:103CBC005B0002FA03F33A6913433B617B683A6990
:103CCC001A603B685B6803F44033002B00F0B28051
:103CDC00614B1B6E604A43F0010313665E4B1B6E17
:103CEC0003F00103BB60BB685C4A7B699B08023331
:103CFC0052F823303B617B6903F003039B000F22D6
:103D0C0002FA03F3DB433A6913403B617B68B3F17E
:103D1C00904F2BD07B68524A934225D07B68514AF6
:103D2C0093421FD07B68504A934219D07B684F4A0C
:103D3C00934213D07B684E4A93420DD07B684D4A18
:103D4C00934207D07B684C4A934201D107230EE083
:103D5C0008230CE006230AE0052308E0042306E010
:103D6C00032304E0022302E0012300E000237A692C
:103D7C0002F00302920093403A6913433B613749C6
:103D8C007B699B0802333A6941F823203B4B9B68C3
:103D9C003B61FB68DB433A6913403B613B685B6802
:103DAC0003F48013002B03D03A69FB6813433B6187
:103DBC00324A3B699360314BDB683B61FB68DB4308
:103DCC003A6913403B613B685B6803F40013002BBA
:103DDC0003D03A69FB6813433B61284A3B69D360C3
:103DEC00264B5B683B61FB68DB433A6913403B61E4
:103DFC003B685B6803F40033002B03D03A69FB6823
:103E0C0013433B611D4A3B6953601C4B1B683B6170
:103E1C00FB68DB433A6913403B613B685B6803F426
:103E2C008033002B03D03A69FB6813433B61134A80
:103E3C003B6913607B6901337B613B681A687B6962
:103E4C0022FA03F3002B7FF491AE00BF00BF1C37A6
:103E5C00BD465DF8047B7047001002400000014035
:103E6C000004004800080048000C004800100048FE
:103E7C000014004800180048001C004800040140D1
:103E8C0080B485B000AF78600B467B807B681A6984
:103E9C007B881340002B02D00123FB7301E000232D
:103EAC00FB73FB7B18461437BD465DF8047B7047EB
:103EBC0080B483B000AF78600B467B8013467B7078
:103ECC007B78002B03D07A887B689A6102E07A8831
:103EDC007B689A6200BF0C37BD465DF8047B704767
:103EEC0080B582B000AF0346FB80084B5A69FB8853
:103EFC001340002B06D0054AFB885361FB881846FB
:103F0C00FEF70EFB00BF0837BD4680BD0004014024
:103F1C0080B584B000AF78607B68002B01D10123A1
:103F2C00BFE07B6893F8A130DBB2002B06D17B6835
:103F3C00002283F8A0207868FEF7ACFB7B68022295
:103F4C0083F8A1207B681B689A697B681B6822F048
:103F5C0070429A617B681B6899697B685A687B68B8
:103F6C009B681A437B68DB681A437B681B691A439E
:103F7C007B681B680A439A617B681B6899687B683D
:103F8C001A684A4B0B4093607B685B691B04FB60AF
:103F9C007B681B6899687B689A69FB681A437B6825
:103FAC001B680A439A607B681B68D9687B681A682F
:103FBC003E4B0B40D3607B68DB691B04FB607B686A
:103FCC001B68D9687B681A6AFB681A437B681B6894
:103FDC000A43DA607B681B6819697B681A68334B83
:103FEC000B4013617B685B6A1B04FB607B681B687E
:103FFC0019697B689A6AFB681A437B681B680A43D9
:10400C001A617B681B6859697B681A68274B0B40DF
:10401C0053617B68DB6A1B04FB607B681B68596916
:10402C007B681A6BFB681A437B681B680A435A61EE
:10403C007B6893F835301B02FB607B6893F8363055
:10404C001B04BB607B681B68DA6A7B681B6802F028
:10405C007F42DA627B681B68D96ABA68FB681343D3
:10406C007A6892F834201A437B681B680A43DA6238
:10407C007B681B685A6B7B681B6842F006025A63AC
:10408C007B681B689A697B681B6842F001029A6125
:10409C007B680022C3F8A4207B68012283F8A1204E
:1040AC00002318461037BD4680BD00BF00F800F055
:1040BC00B0B584B000AFF860B9607A60FB6893F873
:1040CC00A030012B01D102232CE0FB68012283F8E4
:1040DC00A020FB68022283F8A120FA687B683421B7
:1040EC0001FB03F3134403F13802BB6814461D466D
:1040FC000FCD0FC40FCD0FC40FCD0FC42B68236091
:10410C007A68B968F86800F011F8FB681B6801223E
:10411C005A62FB68012283F8A120FB68002283F815
:10412C00A020002318461037BD46B0BD80B489B01E
:10413C0000AFF860B9607A60BB685A68FB681B68AE
:10414C00DB681B0CC3F30B0313441B04FB61FB6800
:10415C001B681A467B68DB01134484335B68FA687E
:10416C00126811467A68D2010A44843203F0F023B3
:10417C005360BB681A68FB681B68DB681B0CC3F3D5
:10418C000B0313445A1CFB681B6819467B68DB0144
:10419C000B4484331946FB6913434B60BB68DA68E4
:1041AC00FB681B68DB68C3F30A0313441B04FB6145
:1041BC00FB681B681A467B68DB01134484339B68DD
:1041CC00FA68126811467A68D2010A44843203F004
:1041DC00F0239360BB689A68FB681B68DB68C3F3C9
:1041EC000A0313445A1CFB681B6819467B68DB01E5
:1041FC000B4484331946FB6913438B60FB681B68C3
:10420C001A467B68DB01134484331B69FA68126815
:10421C0011467A68D2010A44843223F007031361F1
:10422C00FB681B681A467B68DB01134484331A460F
:10423C00BB681B691361BB6893F831301B02FB61CF
:10424C00BB6893F832301B04BB61BB689B691B06CF
:10425C007B61FB681B681A467B68DB011344843363
:10426C009B69FB681B681A467B68DB01134484332B
:10427C001A4600239361BB6893F830301A46FB69E9
:10428C001A43BB691A43FB681B6819467B68DB0140
:10429C000B44843319467B6913438B61FB681B68A1
:1042AC001A467B68DB01134484335B69FA68126835
:1042BC0011467A68D2010A44843223F0FF03536119
:1042CC00FB681B681A467B68DB01134484331A466F
:1042DC00BB685B695361FB681B681A467B68DB0132
:1042EC0013448433DB69FA68126811467A68D20188
:1042FC000A44843223F4E06323F00703D361BB68E0
:10430C00DA69BB681B6AF968096808467968C901EB
:10431C00014484311343CB61FB681B681A467B68EC
:10432C00DB01134484339B6AFB681B681A467B6869
:10433C00DB01134484331A4600239362FB681B6829
:10434C001A467B68DB01134484331A46BB685B6AEC
:10435C009362BB681B69002B02D10423FB611BE039
:10436C00BB681B69012B02D10323FB6114E0BB6802
:10437C001B69042B0BD0BB681B69022B07D0BB68D5
:10438C001B69032B03D0BB681B69072B02D10223CB
:10439C00FB6101E00123FB61FB681B681A467B682B
:1043AC00DB0113448433DB6AFA68126811467A68BD
:1043BC00D2010A44843203F0E023D362BB689B6AC7
:1043CC00FA6902FB03F31A04BB685968BB681B68E3
:1043DC00CB1AF96901FB03F30333F9680968084642
:1043EC007968C901014484311343CB62FB681B68B3
:1043FC001A467B68DB01134484331B6BFA68126822
:10440C0011467A68D2010A44843223F4FF6323F004
:10441C0007031363FB681B681A467B68DB011344B4
:10442C0084331A46BB68DB6A1363FB681B681A4645
:10443C007B68DB01134484331B68FA6812681146ED
:10444C007A68D2010A44843243F00103136000BF3E
:10445C002437BD465DF8047B7047000080B400AF84
:10446C000D4B1B6803F4C063B3F5806F02D14FF49E
:10447C0080630BE0084BD3F8803003F48073B3F502
:10448C00807F02D14FF4007300E000231846BD4634
:10449C005DF8047B704700BF0070004080B485B0AD
:1044AC0000AF78607B68002B41D14B4B1B6803F449
:1044BC00C063B3F5806F31D1474BD3F88030464A97
:1044CC0023F48073C2F88030434B1B6823F4C06321
:1044DC00414A43F400731360404B1B68322202FBC9
:1044EC0003F33F4AA2FB03239B0C0133FB6002E066
:1044FC00FB68013BFB60384B5B6903F48063B3F5ED
:10450C00806F02D1FB68002BF2D1334B5B6903F453
:10451C008063B3F5806F58D1032357E02E4BD3F84B
:10452C0080302D4A23F48073C2F880304DE07B68D4
:10453C00B3F5007F41D1284B1B6803F4C063B3F57E
:10454C00806F31D1244BD3F88030234A43F48073ED
:10455C00C2F88030204B1B6823F4C0631E4A43F41E
:10456C00007313601D4B1B68322202FB03F31C4AC1
:10457C00A2FB03239B0C0133FB6002E0FB68013BB5
:10458C00FB60154B5B6903F48063B3F5806F02D15C
:10459C00FB68002BF2D1104B5B6903F48063B3F51D
:1045AC00806F12D1032311E00B4BD3F880300A4AF1
:1045BC0043F48073C2F8803007E0074B1B6823F488
:1045CC00C063054A43F48063136000231846143714
:1045DC00BD465DF8047B7047007000402000002051
:1045EC0083DE1B4380B400AF054B5B68044A43F485
:1045FC000073536000BFBD465DF8047B704700BF7D
:10460C000070004080B588B000AF78607B68002BEC
:10461C0002D1012300F008BC964B9B6803F00C03FD
:10462C00BB61944BDB6803F003037B617B681B6805
:10463C0003F01003002B00F0E480BB69002B07D0C3
:10464C00BB690C2B40F08B807B69012B40F0878081
:10465C00884B1B6803F00203002B05D07B689B6919
:10466C00002B01D10123DFE37B681A6A814B1B68A5
:10467C0003F00803002B04D07E4B1B6803F0F003FF
:10468C0005E07C4BD3F894301B0903F0F003934204
:10469C0023D27B681B6A184600F0CCFD0346002B26
:1046AC0001D00123C0E3734B1B68724A43F008032B
:1046BC001360704B1B6823F0F0027B681B6A6D491A
:1046CC0013430B606B4B5B6823F47F427B68DB69A5
:1046DC001B02684913434B6025E0664B1B68654A17
:1046EC0043F008031360634B1B6823F0F0027B68F4
:1046FC001B6A604913430B605E4B5B6823F47F427B
:10470C007B68DB691B025B4913434B60BB69002B65
:10471C0009D17B681B6A184600F08CFD0346002B00
:10472C0001D0012380E300F0C1FC0246514B9B6891
:10473C001B0903F00F035049CB5C03F01F0322FA53
:10474C0003F34E4A13604E4B1B681846FEF772F982
:10475C000346FB73FB7B002B52D0FB7B64E37B6833
:10476C009B69002B32D0434B1B68424A43F0010338
:10477C001360FEF7AFF9386108E0FEF7ABF90246BB
:10478C003B69D31A022B01D903234DE3394B1B6828
:10479C0003F00203002BF0D0364B1B68354A43F074
:1047AC0008031360334B1B6823F0F0027B681B6A11
:1047BC00304913430B602F4B5B6823F47F427B68BB
:1047CC00DB691B022B4913434B601AE0294B1B6816
:1047DC00284A23F001031360FEF77CF9386108E0E6
:1047EC00FEF778F902463B69D31A022B01D9032351
:1047FC001AE3204B1B6803F00203002BF0D100E0FE
:10480C0000BF7B681B6803F00103002B73D0BB69EE
:10481C00082B05D0BB690C2B0ED17B69032B0BD15C
:10482C00144B1B6803F40033002B63D07B685B686C
:10483C00002B5FD10123F7E27B685B68B3F5803F07
:10484C0006D10C4B1B680B4A43F48033136025E0F4
:10485C007B685B68B3F5A02F14D1064B1B68054A27
:10486C0043F480231360034B1B68024A43F48033E8
:10487C00136013E0001002408C840008200000201C
:10488C0024000020A04B1B689F4A23F48033136044
:10489C009D4B1B689C4A23F4802313607B685B68E8
:1048AC00002B13D0FEF716F9386108E0FEF712F969
:1048BC0002463B69D31A642B01D90323B4E2924B11
:1048CC001B6803F40033002BF0D014E0FEF702F960
:1048DC00386108E0FEF7FEF802463B69D31A642BF8
:1048EC0001D90323A0E2884B1B6803F40033002B8F
:1048FC00F0D100E000BF7B681B6803F00203002BC3
:10490C0060D0BB69042B05D0BB690C2B19D17B691A
:10491C00022B16D17C4B1B6803F48063002B05D053
:10492C007B68DB68002B01D101237DE2764B5B6851
:10493C0023F0FE427B681B691B06734913434B60D3
:10494C0040E07B68DB68002B23D06F4B1B686E4A02
:10495C0043F480731360FEF7BDF8386108E0FEF78E
:10496C00B9F802463B69D31A022B01D903235BE247
:10497C00654B1B6803F48063002BF0D0624B5B68C3
:10498C0023F0FE427B681B691B065F4913434B6097
:10499C0018E05D4B1B685C4A23F480731360FEF7D0
:1049AC0099F8386108E0FEF795F802463B69D31A8E
:1049BC00022B01D9032337E2534B1B6803F48063AA
:1049CC00002BF0D17B681B6803F00803002B3CD054
:1049DC007B685B69002B1CD04B4BD3F894304A4A54
:1049EC0043F00103C2F89430FEF774F8386108E024
:1049FC00FEF770F802463B69D31A022B01D9032348
:104A0C0012E2414BD3F8943003F00203002BEFD0A9
:104A1C001BE03D4BD3F894303B4A23F00103C2F822
:104A2C009430FEF757F8386108E0FEF753F8024669
:104A3C003B69D31A022B01D90323F5E1324BD3F88E
:104A4C00943003F00203002BEFD17B681B6803F05A
:104A5C000403002B00F0A6800023FB772A4B9B6DF0
:104A6C0003F08053002B0DD1274B9B6D264A43F04E
:104A7C0080539365244B9B6D03F08053BB60BB68E4
:104A8C000123FB77214B1B6803F48073002B18D197
:104A9C001E4B1B681D4A43F480731360FEF71AF813
:104AAC00386108E0FEF716F802463B69D31A022B70
:104ABC0001D90323B8E1154B1B6803F48073002B59
:104ACC00F0D07B689B68012B08D10F4BD3F890304A
:104ADC000D4A43F00103C2F8903029E07B689B68D3
:104AEC00052B15D1084BD3F89030074A43F004033B
:104AFC00C2F89030044BD3F89030034A43F00103D2
:104B0C00C2F8903014E000BF00100240007000406A
:104B1C009D4BD3F890309C4A23F00103C2F890309F
:104B2C00994BD3F89030984A23F00403C2F8903094
:104B3C007B689B68002B16D0FDF7CCFF38610AE030
:104B4C00FDF7C8FF02463B69D31A41F28832934203
:104B5C0001D9032368E18C4BD3F8903003F00203A6
:104B6C00002BEDD015E0FDF7B5FF38610AE0FDF73D
:104B7C00B1FF02463B69D31A41F28832934201D904
:104B8C00032351E1804BD3F8903003F00203002B48
:104B9C00EDD1FB7F012B05D17B4B9B6D7A4A23F02A
:104BAC00805393657B681B6803F02003002B3CD07B
:104BBC007B685B6A002B1CD0734BD3F89830724A1D
:104BCC0043F00103C2F89830FDF784FF386108E028
:104BDC00FDF780FF02463B69D31A022B01D9032350
:104BEC0022E1694BD3F8983003F00203002BEFD08D
:104BFC001BE0654BD3F89830634A23F00103C2F8ED
:104C0C009830FDF767FF386108E0FDF763FF024657
:104C1C003B69D31A022B01D9032305E15A4BD3F874
:104C2C00983003F00203002BEFD17B689B6A002BBA
:104C3C0000F0F9807B689B6A022B40F0CF80524BCE
:104C4C00DB687B617B6903F003027B68DB6A9A4259
:104C5C002CD17B6903F0F0027B681B6B013B1B01C1
:104C6C009A4223D17B6903F4FE427B685B6B1B0287
:104C7C009A421BD17B6903F078427B689B6BDB0605
:104C8C009A4213D17B6903F4C0027B68DB6B5B082F
:104C9C00013B5B059A4209D17B6903F0C0627B68DA
:104CAC001B6C5B08013B5B069A4271D0BB690C2BF9
:104CBC0068D0354B1B6803F08063002B05D1324B59
:104CCC001B6803F08053002B01D00123ACE02E4B6A
:104CDC001B682D4A23F080731360FDF7FBFE3861CF
:104CEC0008E0FDF7F7FE02463B69D31A022B01D907
:104CFC00032399E0244B1B6803F00073002BF0D1C5
:104D0C00214BDA68214B13407A68D16A7A68126BAE
:104D1C00013A120111437A68526B120211437A68FC
:104D2C00D26B5208013A520511437A68126C520840
:104D3C00013A520611437A68926BD2060A43124921
:104D4C001343CB60104B1B680F4A43F08073136006
:104D5C000D4BDB680C4A43F08073D360FDF7BAFE51
:104D6C00386108E0FDF7B6FE02463B69D31A022B08
:104D7C0001D9032358E0044B1B6803F00073002B8C
:104D8C00F0D050E001234FE0001002400C809D0158
:104D9C00274B1B6803F00073002B44D1244B1B687A
:104DAC00234A43F080731360214BDB68204A43F0A5
:104DBC008073D360FDF78EFE386108E0FDF78AFE44
:104DCC0002463B69D31A022B01D903232CE0184B62
:104DDC001B6803F00073002BF0D024E0BB690C2B94
:104DEC001FD0134B1B68124A23F080731360FDF71E
:104DFC0071FE386108E0FDF76DFE02463B69D31A7F
:104E0C00022B01D903230FE0094B1B6803F000733D
:104E1C00002BF0D1064BDA680549064B1340CB60EA
:104E2C0001E0012300E0002318462037BD4680BD79
:104E3C0000100240FCFFEEFE80B586B000AF78603B
:104E4C00396000237B617B68002B01D101231DE1BC
:104E5C00904B1B6803F00F033A689A4210D98D4BA4
:104E6C001B6823F00F028B493B6813430B60894B83
:104E7C001B6803F00F033A689A4201D0012305E145
:104E8C007B681B6803F00203002B10D07B689A68C8
:104E9C00814B9B6803F0F0039A4208D97E4B9B68C8
:104EAC0023F0F0027B689B687B4913438B607B6823
:104EBC001B6803F00103002B79D07B685B68032B24
:104ECC001ED1754B1B6803F00073002B01D101231D
:104EDC00DCE000F009FA0346704A934246D96E4B67
:104EEC009B6803F0F003002B40D16B4B9B6823F0C5
:104EFC00F003694A43F08003936080237B6135E0C3
:104F0C007B685B68022B07D1634B1B6803F400338F
:104F1C00002B15D10123B9E07B685B68002B07D10E
:104F2C005D4B1B6803F00203002B09D10123ADE09C
:104F3C00594B1B6803F48063002B01D10123A5E0BE
:104F4C0000F0B4F80346554A93420FD9524B9B6874
:104F5C0003F0F003002B09D14F4B9B6823F0F003B7
:104F6C004D4A43F08003936080237B614A4B9B68DE
:104F7C0023F003027B685B68474913438B60FDF7A2
:104F8C00A9FD38610AE0FDF7A5FD02463B69D31A7D
:104F9C0041F28832934201D9032377E03E4B9B6860
:104FAC0003F00C027B685B689B009A42EBD17B6937
:104FBC00802B05D1384B9B68374A23F0F003936064
:104FCC007B681B6803F00203002B10D07B689A6887
:104FDC00314B9B6803F0F0039A4208D22E4B9B682E
:104FEC0023F0F0027B689B682B4913438B60294BA1
:104FFC001B6803F00F033A689A4210D2254B1B68CA
:10500C0023F00F0223493B6813430B60214B1B68B1
:10501C0003F00F033A689A4201D0012336E07B6813
:10502C001B6803F00403002B08D01B4B9B6823F474
:10503C00E0627B68DB68184913438B607B681B68F4
:10504C0003F00803002B09D0134B9B6823F4605228
:10505C007B681B69DB00104913438B6000F026F85A
:10506C0002460D4B9B681B0903F00F030C49CB5CEC
:10507C0003F01F0322FA03F30A4A13600A4B1B685E
:10508C001846FDF7D7FC0346FB73FB7B1846183715
:10509C00BD4680BD002002400010024000B4C40494
:1050AC008C840008200000202400002080B489B0EB
:1050BC0000AF0023FB610023BB613E4B9B6803F0F8
:1050CC000C033B613B4BDB6803F00303FB603B6968
:1050DC00002B05D03B690C2B21D1FB68012B1ED179
:1050EC00344B1B6803F00803002B07D1314BD3F86A
:1050FC0094301B0A03F00F03FB6105E02D4B1B687A
:10510C001B0903F00F03FB612B4AFB6952F8233098
:10511C00FB613B69002B0DD1FB69BB610AE03B696C
:10512C00042B02D1254BBB6104E03B69082B01D158
:10513C00234BBB613B690C2B34D11E4BDB6803F05A
:10514C000303BB60BB68022B03D0BB68032B03D0EB
:10515C0005E01A4B7B6105E0194B7B6102E0FB69B2
:10516C007B6100BF134BDB681B0903F00F0301339A
:10517C007B60104BDB681B0A03F07F037A6903FB2F
:10518C0002F27B68B2FBF3F37B610A4BDB685B0ECC
:10519C0003F0030301335B003B607A693B68B2FBAD
:1051AC00F3F3BB61BB6918462437BD465DF8047B3D
:1051BC00704700BF00100240A48400080024F400D3
:1051CC0000127A0080B400AF034B1B681846BD4632
:1051DC005DF8047B704700BF2000002080B500AF55
:1051EC00FFF7F0FF0246064B9B681B0A03F0070310
:1051FC000449CB5C03F01F0322FA03F3184680BD6D
:10520C00001002409C84000880B500AFFFF7DAFF65
:10521C000246064B9B68DB0A03F007030449CB5C90
:10522C0003F01F0322FA03F3184680BD001002405E
:10523C009C84000880B586B000AF786000233B6189
:10524C00274B9B6D03F08053002B03D0FFF706F91F
:10525C00786114E0224B9B6D214A43F08053936597
:10526C001F4B9B6D03F08053FB60FB68FFF7F6F858
:10527C0078611B4B9B6D1A4A23F0805393657B69B5
:10528C00B3F5007F0BD17B68802B13D97B68A02BE7
:10529C0002D902233B610DE001233B610AE07B68EC
:1052AC007F2B02D902233B6104E07B68702B01D178
:1052BC0001233B610B4B1B6823F00F0209493B692F
:1052CC0013430B60074B1B6803F00F033A699A42B8
:1052DC0001D0012300E0002318461837BD4680BDDD
:1052EC00001002400020024080B487B000AF2D4B6C
:1052FC00DB6803F00303FB60FB68032B0BD0FB683C
:10530C00032B25D8FB68012B08D0FB68022B1FD17F
:10531C00254B3B611FE0254B3B611CE0214B1B687F
:10532C0003F00803002B07D11E4BD3F894301B0A53
:10533C0003F00F037B6105E01A4B1B681B0903F09C
:10534C000F037B611A4A7B6952F823303B6102E000
:10535C0000233B6100BF134BDB681B0903F00F03F9
:10536C000133BB600F4BDB681B0A03F07F033A6908
:10537C0003FB02F2BB68B2FBF3F33B61094BDB6846
:10538C005B0E03F0030301335B007B603A697B68BF
:10539C00B2FBF3F33B603B6818461C37BD465DF827
:1053AC00047B7047001002400024F40000127A00C5
:1053BC00A484000880B586B000AF78600023FB742D
:1053CC000023BB747B681B6803F40063002B40D084
:1053DC007B68DB6E802B2AD0802B25D8602B26D0C7
:1053EC00602B21D8402B06D0402B1DD8002B09D088
:1053FC00202B10D018E0894BDB68884A43F48033AB
:10540C00D36015E07B6804330021184600F062FB82
:10541C000346FB740CE07B6820330021184600F037
:10542C004DFC0346FB7403E00123FB7400E000BF5A
:10543C00FB7C002B0BD1794BD3F89C3023F0E00292
:10544C007B68DB6E75491343C1F89C3001E0FB7C33
:10545C00BB747B681B6803F48053002B47D07B68BC
:10546C001B6FB3F5806F30D0B3F5806F2AD8B3F5CE
:10547C00407F2AD0B3F5407F24D8B3F5007F08D005
:10548C00B3F5007F1ED8002B0AD0B3F5807F10D067
:10549C0018E0624BDB68614A43F48033D36015E05B
:1054AC007B6804330021184600F014FB0346FB74A0
:1054BC000CE07B6820330021184600F0FFFB03460C
:1054CC00FB7403E00123FB7400E000BFFB7C002BAA
:1054DC000BD1524BD3F89C3023F4E0627B681B6FEA
:1054EC004E491343C1F89C3001E0FB7CBB747B68D4
:1054FC001B6803F40033002B00F09F8000237B74A7
:10550C00464B9B6D03F08053002B01D1012300E02F
:10551C000023002B0DD0414B9B6D404A43F0805330
:10552C0093653E4B9B6D03F08053BB60BB680123BE
:10553C007B743B4B1B683A4A43F480731360FDF752
:10554C00C9FAF86009E0FDF7C5FA0246FB68D31A00
:10555C00022B02D90323FB7405E0314B1B6803F4C7
:10556C008073002BEFD0FB7C002B5BD12B4BD3F843
:10557C00903003F440737B617B69002B1FD07B68F8
:10558C00D3F898307A699A4219D0244BD3F89030DA
:10559C0023F440737B61214BD3F890301F4A43F4C2
:1055AC008033C2F890301D4BD3F890301B4A23F453
:1055BC008033C2F89030194A7B69C2F890307B690D
:1055CC0003F00103002B16D0FDF784FAF8600BE012
:1055DC00FDF780FA0246FB68D31A41F288329342F7
:1055EC0002D90323FB7406E00C4BD3F8903003F084
:1055FC000203002BECD0FB7C002B0CD1074BD3F817
:10560C00903023F440727B68D3F8983003491343ED
:10561C00C1F8903008E0FB7CBB7405E00010024040
:10562C0000700040FB7CBB747B7C012B05D1A04B34
:10563C009B6D9F4A23F0805393657B681B6803F036
:10564C000103002B0AD09A4BD3F8883023F00302C5
:10565C007B68DB6B96491343C1F888307B681B6809
:10566C0003F00203002B0AD0914BD3F8883023F0BF
:10567C000C027B681B6C8E491343C1F888307B6825
:10568C001B6803F00403002B0AD0894BD3F8883035
:10569C0023F030027B685B6C85491343C1F888307A
:1056AC007B681B6803F00803002B0AD0804BD3F8EF
:1056BC00883023F0C0027B689B6C7D491343C1F892
:1056CC0088307B681B6803F01003002B0AD0784BE2
:1056DC00D3F8883023F440727B68DB6C7449134335
:1056EC00C1F888307B681B6803F02003002B0AD0BC
:1056FC006F4BD3F8883023F440627B681B6D6C4988
:10570C001343C1F888307B681B6803F40073002BCB
:10571C000AD0674BD3F8883023F440227B685B6E49
:10572C0063491343C1F888307B681B6803F48063BA
:10573C00002B0AD05E4BD3F8883023F440127B68E0
:10574C009B6E5B491343C1F888307B681B6803F080
:10575C004003002B0AD0564BD3F8883023F4405228
:10576C007B685B6D52491343C1F888307B681B68BA
:10577C0003F08003002B0AD04D4BD3F8883023F470
:10578C0040427B689B6D4A491343C1F888307B6863
:10579C001B6803F48073002B0AD0454BD3F8883078
:1057AC0023F440327B68DB6D41491343C1F88830E8
:1057BC007B681B6803F48013002B0AD03C4BD3F896
:1057CC009C3023F003027B681B6E39491343C1F8EC
:1057DC009C307B681B6803F40053002B28D0344B9F
:1057EC00D3F8883023F040627B685B6F30491343F9
:1057FC00C1F888307B685B6FB3F1006F06D12C4B1E
:10580C00DB682B4A43F48013D36011E07B685B6F39
:10581C00B3F1806F0CD17B6804330121184600F082
:10582C0059F90346FB74FB7C002B01D0FB7CBB7449
:10583C007B681B6803F40023002B4DD07B689B6FA7
:10584C00B3F5804F08D11A4BD3F89C30184A43F467
:10585C008043C2F89C3012E0154BD3F89C30144AAC
:10586C0023F48043C2F89C30114BD3F8883023F0DA
:10587C0040627B689B6F0E491343C1F888307B688C
:10588C009B6FB3F1006F06D1094BDB68084A43F4F8
:10589C008013D36020E07B689B6FB3F5804F09D1F8
:1058AC00034BDB68024A43F48033D36014E000BF3F
:1058BC00001002407B689B6FB3F1806F0CD17B684A
:1058CC0004330121184600F005F90346FB74FB7CF8
:1058DC00002B01D0FB7CBB747B681B6803F480231A
:1058EC00002B28D07A4BD3F8883023F040627B68A9
:1058FC00DB6F77491343C1F888307B68DB6FB3F1FA
:10590C00006F06D1724BDB68714A43F48013D3608D
:10591C0011E07B68DB6FB3F1806F0CD17B680433D3
:10592C000121184600F0D6F80346FB74FB7C002BD3
:10593C0001D0FB7CBB747B681B6803F48043002B99
:10594C001ED0634BD3F8883023F040527B68D3F8D9
:10595C0080305F491343C1F888307B68D3F88030BE
:10596C00B3F1805F0CD17B6804330221184600F040
:10597C00B1F80346FB74FB7C002B01D0FB7CBB74A1
:10598C007B681B6803F48033002B0BD0504BD3F88F
:10599C009C3023F004027B68D3F884304C491343C9
:1059AC00C1F89C307B681B6803F40013002B0BD0F0
:1059BC00474BD3F89C3023F018027B68D3F888301F
:1059CC0043491343C1F89C307B681B6803F4800384
:1059DC00002B35D03E4B1B683D4A23F0805313609F
:1059EC00FDF778F8F86009E0FDF774F80246FB68FB
:1059FC00D31A022B02D90323FB7405E0344B1B682A
:105A0C0003F00053002BEFD1FB7C002B13D1304B58
:105A1C00D3F89C3023F440327B68D3F88C302C497B
:105A2C001343C1F89C307B6820330221184600F0E8
:105A3C0045F90346FB74FB7C002B01D0FB7CBB744B
:105A4C007B681B6803F40003002B1ED0204BD3F89B
:105A5C009C3023F480527B68D3F890301C4913435C
:105A6C00C1F89C307B68D3F89030B3F5805F0CD1D3
:105A7C007B6820330121184600F020F90346FB74A3
:105A8C00FB7C002B01D0FB7CBB747B681B6803F098
:105A9C008073002B17D00E4BD3F89C3023F440129C
:105AAC007B68D3F894300A491343C1F89C307B6867
:105ABC00D3F89430B3F5001F05D1054BDB68044ACD
:105ACC0043F48013D360BB7C18461837BD4680BDA9
