:020000040800F2
:1000000000000A2015390008693800086F38000818
:10001000753800087B3800088138000800000000AF
:100020000000000000000000000000008738000809
:100030009538000800000000A3380008B138000817
:100040006539000865390008653900086539000818
:100050006539000865390008653900086539000808
:1000600065390008653900086539000865390008F8
:1000700065390008653900086539000865390008E8
:1000800065390008653900086539000865390008D8
:10009000653900086539000865390008BD38000871
:1000A00065390008653900086539000865390008B8
:1000B00065390008653900086539000865390008A8
:1000C0006539000865390008653900086539000898
:1000D0006539000865390008653900086539000888
:1000E000CD38000865390008653900086539000811
:1000F000653900086539000865390008000000000E
:10010000653900086539000865390008DD380008E0
:100110006539000865390008653900086539000847
:100120006539000865390008653900086539000837
:100130006539000865390008653900086539000827
:100140006539000865390008653900086539000817
:100150006539000865390008653900086539000807
:1001600065390008653900086539000865390008F7
:10017000653900086539000865390008000000008D
:1001800065390008653900086539000865390008D7
:100190006539000865390008000000000000000013
:1001A0000000000000000000653900086539000803
:0C01B00065390008653900086539000851
:1001BC0010B5054C237833B9044B13B10448AFF395
:1001CC0000800123237010BD2C00002000000000D3
:1001DC00F4A8000808B5034B1BB103490348AFF35F
:1001EC00008008BD0000000030000020F4A80008CA
:1001FC0053B94AB9002908BF00281CBF4FF0FF3182
:10020C004FF0FF3000F074B9ADF1080C6DE904CE7D
:10021C0000F006F8DDF804E0DDE9022304B07047D5
:10022C002DE9F047089D04468E46002B4DD18A429D
:10023C00944669D9B2FA82F252B101FA02F3C2F1D0
:10024C00200120FA01F10CFA02FC41EA030E944061
:10025C004FEA1C48210CBEFBF8F61FFA8CF708FB82
:10026C0016E341EA034306FB07F199420AD91CEB5A
:10027C00030306F1FF3080F01F81994240F21C818C
:10028C00023E63445B1AA4B2B3FBF8F008FB1033D4
:10029C0044EA034400FB07F7A7420AD91CEB040409
:1002AC0000F1FF3380F00A81A74240F207816444D9
:1002BC00023840EA0640E41B00261DB1D44000235E
:1002CC00C5E900433146BDE8F0878B4209D9002DC2
:1002DC0000F0EF800026C5E9000130463146BDE84C
:1002EC00F087B3FA83F6002E4AD18B4202D38242B6
:1002FC0000F2F980841A61EB030301209E46002D65
:10030C00E0D0C5E9004EDDE702B9FFDEB2FA82F2B9
:10031C00002A40F09280A1EB0C014FEA1C471FFA17
:10032C008CFE0126200CB1FBF7F307FB131140EAFE
:10033C0001410EFB03F0884208D91CEB010103F1CB
:10034C00FF3802D2884200F2CB804346091AA4B28D
:10035C00B1FBF7F007FB101144EA01440EFB00FE61
:10036C00A64508D91CEB040400F1FF3102D2A645C6
:10037C0000F2BB800846A4EB0E0440EA03409CE765
:10038C00C6F12007B34022FA07FC4CEA030C20FA12
:10039C0007F401FA06F31C43F9404FEA1C4900FA32
:1003AC0006F3B1FBF9F8200C1FFA8CFE09FB1811AF
:1003BC0040EA014108FB0EF0884202FA06F20BD922
:1003CC001CEB010108F1FF3A80F08880884240F272
:1003DC008580A8F102086144091AA4B2B1FBF9F0B6
:1003EC0009FB101144EA014100FB0EFE8E4508D9B1
:1003FC001CEB010100F1FF346CD28E456AD9023836
:10040C00614440EA0840A0FB0294A1EB0E01A1421A
:10041C00C846A64656D353D05DB1B3EB080261EB88
:10042C000E0101FA07F722FA06F3F1401F43C5E962
:10043C00007100263146BDE8F087C2F12003D84098
:10044C000CFA02FC21FA03F3914001434FEA1C47DA
:10045C001FFA8CFEB3FBF7F007FB10360B0C43EACC
:10046C00064300FB0EF69E4204FA02F408D91CEB7C
:10047C00030300F1FF382FD29E422DD9023863447A
:10048C009B1B89B2B3FBF7F607FB163341EA03411A
:10049C0006FB0EF38B4208D91CEB010106F1FF3869
:1004AC0016D28B4214D9023E6144C91A46EA004660
:1004BC0038E72E46284605E70646E3E61846F8E6F2
:1004CC004B45A9D2B9EB020864EB0C0E0138A3E73B
:1004DC004646EAE7204694E74046D1E7D0467BE71C
:1004EC00023B614432E7304609E76444023842E794
:1004FC00704700BF80B58EB000AF03F02EFA00F04D
:10050C0081FA00F09FFD00F06FFB00F059FC00F049
:10051C00D7FC00F013FD00F049FD00F0C1FA00F02B
:10052C0025FB00F06FFE4FF47A7307229B499C4821
:10053C0009F062FB9B4B03221A709B4B00221A7032
:10054C0001F03AFD01F0CEFE00237B630DE07B6BE6
:10055C005B00964A0021D1547B6B5B000133934ABC
:10056C000021D1547B6B01337B637B6B372BEEDD2E
:10057C008E4B002283F86D2001F082FF8B4B93F899
:10058C0064208B4B1A708A4B1B781A4613469B00BF
:10059C0013445B003B630023FB620EE0834A3B6B1E
:1005AC0013441978834AFB6A13440A461A70FB6A8F
:1005BC000133FB623B6B01333B637D4B1B785A1C55
:1005CC0013469B0013445B001A463B6B9342E5DBDE
:1005DC00794B00221A700023BB620EE0BB6A5B00F1
:1005EC00744AD35CFF2B05D0734B1B780133DAB202
:1005FC00714B1A70BB6A0133BB62BB6A042BEDDD15
:10060C0000237B6211E07B6A4DF6A86202FB03F3C8
:10061C006A4A1A447B6A5B006649CB5C19461046F1
:10062C0002F022F97B6A01337B62634B1B781A461A
:10063C007B6A9342E7DB02226149624808F07CFC4A
:10064C0000233B6207E0604A3B6A1344FF221A70A6
:10065C003B6A01333B625D4B1B685D4A126803FBCE
:10066C0002F213465B001A443B6A9A42EBD84E4B9B
:10067C001B78002B40F004814A4B1B78002B09D1CE
:10068C00544B1B781946544802F058F8524801F064
:10069C00DFFB2FE1434B1B78012B39D10023FB7778
:1006AC004E4B1B78BB6121E0052003F0CBF93E4B90
:1006BC001B78002B07D13B4B1B78012B03D1484BEC
:1006CC001B78012B02D10123FB7715E0BB69DBB250
:1006DC001946414802F032F83F4801F0B9FBBB69BA
:1006EC00DAB23C4B1A70BB690133BB613D4B1B78D2
:1006FC001A46BB699342D7DDFB7F002B03D1354BE8
:10070C0000221A70CCE7FB7F012B00F0F280C7E7C8
:10071C00244B1B78032B40F0ED800023FB71324BF4
:10072C001B78002B00F0918001F0DCFD01F0A8FE9D
:10073C001E4B93F864201E4B1A701D4B1B781A46E7
:10074C0013469B0013445B007B6100233B610EE06E
:10075C00164A7B6913441978164A3B6913440A46B6
:10076C001A703B6901333B617B6901337B61104B30
:10077C001B785A1C13469B0013445B001A467B697A
:10078C009342E5DB194B00221A70174B00221A70AA
:10079C00094B00221A700023FB6038E00CA90008FA
:1007AC009C020020E8DE0720E9DE0720A0BD08201F
:1007BC009BBD082010BE08201BBE0820D07D032046
:1007CC0098BD082038020020ECDE07200000002035
:1007DC000400002094BD0820289F02202C03002038
:1007EC009ABD08200A0000209CBD08201ABE0820D3
:1007FC00FB685B006E4AD35CFF2B05D06D4B1B78FE
:10080C000133DAB26B4B1A70FB680133FB60FB6887
:10081C00042BEDDD0023BB6011E0BB684DF6A86234
:10082C0002FB03F3644A1A44BB685B006049CB5C6F
:10083C001946104602F018F8BB680133BB605D4BDB
:10084C001B781A46BB689342E7DB012208214FF064
:10085C00904005F023FE594803F03EFC32215748E6
:10086C0003F09DFC554803F029FD0346DAB2544BC6
:10087C001A70012208214FF0904005F00FFE4EE750
:10088C00504B1B78012B2CD14F4B1B78022B24D1B6
:10089C00052003F0D7F84B4B1B78012B2AD14A4B80
:1008AC001B78022B26D1494B1B78012B22D04848B0
:1008BC0001F0CEFA052003F0C5F8424B1B78012B52
:1008CC0018D1414B1B78022B14D1404B1B78012BB8
:1008DC0010D0404801F0BCFADAE73D4801F0B8FA14
:1008EC0008E0384B1B78022B04D13A4801F0B0FADF
:1008FC0000E000BF354B1B78012B55D1364B1B78D4
:10090C009BB21B029AB2354B1B789BB21344BB8033
:10091C00BB88334AA2FB03235B089AB2314B1A8083
:10092C00BB882F4AA2FB03235B089AB22E4B1A807A
:10093C002C4B1A882C4B1B8813449BB2BA88D31AA5
:10094C009AB22A4B1A802A4B1B789BB21B029AB282
:10095C00284B1B789BB213447B807B88204AA2FBDC
:10096C0003235B089AB2244B1A807B881C4AA2FB97
:10097C0003235B089AB2214B1A801F4B1A881F4B1A
:10098C001B8813449BB27A88D31A9AB21C4B1A80D8
:10099C0002F0C8FA02F0D4FB00F034FC0A2003F099
:1009AC0051F80A4B00221A700A2003F04BF85EE64D
:1009BC0010BE08201BBE0820D07D0320480000205C
:1009CC001E000020E9DE0720E8DE07209ABD082083
:1009DC00D8E1002080C001200C0000200D00002078
:1009EC00ABAAAAAA120000201400002010000020BC
:1009FC000E0000200F000020180000201A0000201C
:100A0C001600002080B596B000AF07F11403442205
:100A1C000021184609F060FF3B4600221A605A601C
:100A2C009A60DA601A61002006F02EF80346002B5B
:100A3C0001D002F0EBFC01237B614FF48033BB61EE
:100A4C000223FB6303233B6401237B641E23BB64EF
:100A5C000223FB6402233B6502237B6507F114032D
:100A6C00184606F0C5F80346002B01D002F0CEFC68
:100A7C000F233B6003237B600023BB600023FB60E0
:100A8C0000233B613B460521184606F0CBFC034690
:100A9C00002B01D002F0BAFC00BF5837BD4680BD18
:100AAC0080B586B000AF3B4600221A605A609A604F
:100ABC00DA601A615A612A4B2A4A1A60284B0022C2
:100ACC005A60274B00229A60254B0022DA60244B97
:100ADC0000221A61224B04225A61214B00221A7601
:100AEC001F4B00225A761E4B0122DA611C4B00224E
:100AFC0083F820201A4B00229A62194B0022DA62EA
:100B0C00174B002283F83020154B00225A63144BEC
:100B1C00002283F83820124B0422DA64104803F0C8
:100B2C008FF90346002B01D002F070FC0E4B3B609A
:100B3C0006237B600023BB607F23FB6004233B61A7
:100B4C0000237B613B461946054803F0C5FB034671
:100B5C00002B01D002F05AFC00BF1837BD4680BDF7
:100B6C0048000020000004500400600880B500AF6D
:100B7C001B4B1C4A1A601A4B00225A60184B01225C
:100B8C009A60174B0022DA60154B00229A61144BC5
:100B9C000022DA61124B00221A64114B01225A64B2
:100BAC000F4B00229A640E4B0022DA640C4B00228D
:100BBC001A650B4B00225A65094804F07FF903466D
:100BCC00002B01D002F022FC0121054804F0ECFAC4
:100BDC000346002B01D002F019FC00BF80BD00BF02
:100BEC00B000002000B0024080B5AEB000AF07F1FD
:100BFC00AC0300221A605A609A6007F18803242221
:100C0C000021184609F068FE07F1700300221A60F3
:100C1C005A609A60DA601A615A613B1D6C2200219D
:100C2C00184609F059FE644B644A1A60624B002264
:100C3C005A60614B02229A605F4B0022DA603223C9
:100C4C00C7F8AC300123C7F8B0300123C7F8B43073
:100C5C0007F1AC031946584804F032FC0346002B4C
:100C6C0001D002F0D3FB0123C7F888300023C7F86A
:100C7C008C300023C7F890300023C7F89430002341
:100C8C00C7F898300023C7F89C300023C7F8A03071
:100C9C000023C7F8A4300023C7F8A83007F1880355
:100CAC001946454805F07FF80346002B01D002F0A9
:100CBC00ADFB13233B670F237B670923BB670A2319
:100CCC00FB670023C7F880300023C7F8843007F196
:100CDC0070031946384804F0FCFF0346002B01D082
:100CEC0002F094FB42F21071334805F018FA0346F7
:100CFC00002B01D002F08AFB00212F4804F0FCFCF1
:100D0C000346002B01D002F081FB00237B600523FE
:100D1C00BB600023FB6001233B6178237B610123D3
:100D2C00BB610023FB6100233B6200237B62002339
:100D3C00BB62B823FB62B4233B634FF426737B6323
:100D4C000923BB630823FB6308233B649C237B645C
:100D5C004FF40043BB641C23FB6450233B654FF4EE
:100D6C0000537B654FF48053BB654FF40063FB6508
:100D7C004FF480633B664FF400737B664FF48073D3
:100D8C00BB660023FB663B1D19460B4804F099FD1E
:100D9C000346002B01D002F039FB0021064804F079
:100DAC0068FD0346002B01D002F030FB00F036FC4E
:100DBC0000BFB837BD4680BD10010020006C01405B
:100DCC0080B58EB000AF3B1D34220021184609F0CF
:100DDC0083FD384B384A1A60364B4FF000425A604C
:100DEC00344B4FF080429A60324B0022DA60314B28
:100DFC0000221A612F4BB7225A612E4B08229A619E
:100E0C002C4B40F26B12DA612A4B10221A62294BDE
:100E1C0040F2E3125A62274BAC229A62254B40F205
:100E2C009722DA62234BB4221A63224BFF2283F8F7
:100E3C003420204BFF2283F835201E4BFF2283F8F1
:100E4C0036201C4805F05AFB0346002B01D002F05B
:100E5C00DDFA00237B607823BB600023FB609C23BE
:100E6C003B6101237B61FF23BB610023FB614FF4DA
:100E7C0080633B6205237B62104BBB627823FB6271
:100E8C009C233B63FF2387F83430FF2387F83530EE
:100E9C00FF2387F836303B1D00221946054805F024
:100EAC00FDFB0346002B01D002F0B0FA00BF38372F
:100EBC00BD4680BD2C01002000680140ECDE0720FF
:100ECC0080B500AF1B4B1C4A1A601A4B4FF4827250
:100EDC005A60184B00229A60164B4FF4E062DA60AD
:100EEC00144B00221A61134B00225A61114B4FF420
:100EFC0000729A610F4B0822DA610E4B00221A62C3
:100F0C000C4B00225A620B4B00229A62094B0722AF
:100F1C00DA62084B00221A63064B08225A63054812
:100F2C0007F0B6FA0346002B01D002F06FFA00BFAF
:100F3C0080BD00BFD40100200038004080B500AF58
:100F4C00184B194A1A60174B00225A60154B002295
:100F5C009A60144B4FF4E062DA60124B00221A6173
:100F6C00104B00225A610F4B00229A610D4B00224C
:100F7C001A620C4B00225A620A4B00229A62094BED
:100F8C000722DA62074B00221A63064B00225A63CF
:100F9C00044807F07DFA0346002B01D002F036FA24
:100FAC0000BF80BD38020020003C004080B500AF7F
:100FBC00224B234A1A60214B4FF4E1325A601F4BEB
:100FCC0000229A601D4B0022DA601C4B00221A6131
:100FDC001A4B0C225A61194B00229A61174B0022B2
:100FEC00DA61164B00221A62144B00225A62134B20
:100FFC0000229A62114808F0AFFD0346002B01D085
:10100C0002F004FA00210D4809F078FB0346002B8E
:10101C0001D002F0FBF90021084809F0ADFB0346B2
:10102C00002B01D002F0F2F9044809F02EFB034624
:10103C00002B01D002F0EAF900BF80BD9C02002019
:10104C00004C004080B58CB000AF07F11C030022AF
:10105C001A605A609A60DA601A61664BDB6C654AFA
:10106C0043F04003D364634BDB6C03F04003BB6180
:10107C00BB6905F0ADFD5F4BDB6C5E4A43F00403CE
:10108C00D3645C4BDB6C03F004037B617B69594BD1
:10109C00DB6C584A43F00203D364564BDB6C03F011
:1010AC0002033B613B69534BDB6C524A43F0080330
:1010BC00D364504BDB6C03F00803FB60FB684D4BB7
:1010CC00DB6C4C4A43F00103D3644A4BDB6C03F0FA
:1010DC000103BB60BB68474BDB6C464A43F08003A3
:1010EC00D364444BDB6C03F080037B607B68414B27
:1010FC00DB6C404A43F02003D3643E4BDB6C03F0C3
:10110C0020033B603B6800224FF400713A4805F025
:10111C00C5F901224FF48251374805F0BFF900227E
:10112C004FF48051354805F0B9F9012208214FF0F0
:10113C00904005F0B3F94FF49253FB6101233B62ED
:10114C0000237B620323BB6207F11C0319462A4868
:10115C0005F012F84FF48073FB614FF488133B6277
:10116C0002237B6207F11C0319464FF0904005F0F7
:10117C0003F84FF48053FB614FF488133B62022356
:10118C007B6207F11C0319461D4804F0F5FF4FF470
:10119C008053FB6101233B6200237B620323BB6210
:1011AC0007F11C031946154804F0E6FF0823FB6100
:1011BC0001233B6200237B620023BB6207F11C030B
:1011CC0019464FF0904004F0D7FF00220021172061
:1011DC0003F0DFFD172003F0F8FD00220321282087
:1011EC0003F0D7FD282003F0F0FD00BF3037BD46DB
:1011FC0080BD00BF001002400004004800140048ED
:10120C00000C004890B5AFB002AFC44804F091FE9A
:10121C000346002B01D002F0F9F8C3230093F0230E
:10122C0015220021BD4804F0C0FE96230093F02344
:10123C0015220021B94804F0B8FEB94A07F1A803F9
:10124C0092E8030018600433198002330A0C1A70F8
:10125C0007F1A8030193E723009308233922002107
:10126C00AE4804F0C4FEAF4A07F1A403126811465D
:10127C0019800233120C1A7007F1A4030193A423F2
:10128C000093042339220021A44804F0B0FEA64B9D
:10129C00C7F8A03007F1A0030193C32300930523E3
:1012AC00392200219D4804F0A2FE9F4BC7F89C30C8
:1012BC0007F19C030193C4230093052339220021D9
:1012CC00964804F094FE994A07F1900307CA83E804
:1012DC00070007F190030193E52300930D233922B6
:1012EC0000218E4804F083FE904A07F1840307CA5C
:1012FC0083E8070007F184030193E62300930D2391
:10130C0039220021854804F072FE894A07F17C03DA
:10131C0092E8030018600433198002330A0C1A7027
:10132C0007F17C030193EC2300930823392200215D
:10133C007A4804F05CFE7F4BBB6707F1780301939E
:10134C00C1230093052339220021744804F04FFE79
:10135C00784B7B6707F174030193C2230093052339
:10136C00392200216D4804F042FE082300933623F5
:10137C0015220021694804F018FE072300933A2334
:10138C0015220021654804F010FEBE230093C523EE
:10139C0015220021614804F008FE674B07F1640434
:1013AC000FCB07C4238007F164030193E023009360
:1013BC000F2339220021594804F019FE5F4B07F125
:1013CC0054040FCB07C4238007F154030193E1238A
:1013DC0000930F2339220021504804F008FE1023FB
:1013EC000093B223152200214C4804F0DEFD0123AA
:1013FC000093B32315220021484804F0D6FD0123A5
:10140C000093B42315220021444804F0CEFD40F68D
:10141C004D63A7F8503007F150030193B6230093A6
:10142C000323392200213D4804F0E1FD4FF0542301
:10143C00FB6407F14C030193B52300930523392278
:10144C000021364804F0D3FD3D4A07F1400307CA9A
:10145C0003C31A7007F140030193A52300930A23D9
:10146C00392200212D4804F0C2FD354A07F134031E
:10147C0007CA03C31A7007F134030193A623009320
:10148C000A2339220021254804F0B1FD2D4A07F129
:10149C002C0392E8030018600433198002330A0C01
:1014AC001A7007F12C030193BA23009308233922F5
:1014BC0000211A4804F09BFD234A07F1240392E80B
:1014CC00030083E8030007F124030193BB2300937B
:1014DC00092339220021114804F089FD1A4A07F129
:1014EC001C0392E8030083E8030007F11C0301933B
:1014FC00BC230093092339220021084804F077FD0E
:10150C00124A07F1100307CA03C31A800233120CE4
:10151C001A7007F1100301931AE000BF10010020AC
:10152C0014A900081CA900084205240320A90008DE
:10153C002CA9000888050F1834A9000844A9000834
:10154C0054A9000860A9000868A9000870A900083F
:10155C00BD2300930C23392200212D4804F047FDB4
:10156C00C3230093ED2315220021294804F01DFD0F
:10157C00284A07F10C031268114619800233120C29
:10158C001A7007F10C030193E4230093042339220E
:10159C0000211F4804F02BFD1F4A3B4607CA03C31A
:1015AC001A703B460193CC2300930A233922002165
:1015BC00174804F01CFD002300933523152200214D
:1015CC00134804F0F2FC002002F03CFA00230093D4
:1015DC001123052200210E4804F0E7FC782002F0CC
:1015EC0031FA00230093292305220021084804F036
:1015FC00DCFC782002F026FA002300933523152218
:10160C000021034804F0D1FC00BFB437BD4690BDA7
:10161C00100100207CA9000880A9000880B500AF4B
:10162C0000224021074804F039FF142002F00AFA86
:10163C0001224021034804F031FF782002F002FA25
:10164C0000BF80BD0004004880B584B000AF0346E5
:10165C00FB7100233B7300233B7207F10C014FF429
:10166C007A730122784807F024F907F108014FF446
:10167C007A730122744807F01CF9FB79012B40F0B6
:10168C00DA803B7B212B00F2DB8001A252F823F0A5
:10169C0025170008351700084517000853170008D0
:1016AC00611700086F1700087D17000885170008E0
:1016BC004718000847180008471800088D1700083D
:1016CC00951700089D170008A5170008AD1700080E
:1016DC00B5170008471800084718000847180008F5
:1016EC004718000847180008471800084718000852
:1016FC00171800081F1800084D1800084D1800088E
:10170C004D1800084D1800084D1800084D18000819
:10171C004D1800082D1800083B7A1A464B4B1A60DE
:10172C004B4B01221A708BE03B7A1A46494B1A60DC
:10173C00474B01221A7083E03A7A474B1A70444B9C
:10174C0001221A707CE03A7A444B1A70404B012209
:10175C001A7075E03A7A424B1A703D4B01221A709E
:10176C006EE03A7A3F4B1A70394B01221A7067E0DF
:10177C003A7A3D4B1A7063E03A7A3C4B1A705FE050
:10178C003A7A3B4B1A705BE03A7A3A4B1A7057E054
:10179C003A7A394B1A7053E03A7A384B1A704FE058
:1017AC003A7A374B1A704BE03B7A03F00303032B66
:1017BC000ED0032B10DC002B02D0012B04D00BE03D
:1017CC00304B01221A7007E02E4B02221A7003E0F4
:1017DC002C4B00221A7000BF3B7A03F00C03082B31
:1017EC000ED0082B2BDC002B02D0042B04D026E0CF
:1017FC00254B00221A7007E0234B02221A7003E0DB
:10180C00214B01221A7000BF19E03A7A1F4B1A7053
:10181C0016E01C4B01221A701B4B02221A700FE0AF
:10182C003A7A1B4B83F86420174B03221A70194B1E
:10183C0001221A7004E000BF02E000BF00E000BF0C
:10184C0000BF1037BD4680BD3802002000000020CC
:10185C009ABD0820040000200C0000200D00002080
:10186C000E0000200F0000200800002009000020BE
:10187C001C0000201D0000202C03002094BD08201B
:10188C000A000020E9DE0720E8DE07200B0000201C
:10189C00A0BD08209CBD082080B584B000AF786046
:1018AC007B68AE4A934201D10223FB607B68AC4A51
:1018BC00934201D10323BB60AA4B1B7803F0C003F6
:1018CC00C02B00F0E981C02B00F3A082802B00F02C
:1018DC00D781802B00F39A82002B03D0402B00F091
:1018EC00718193E29F4B1B7803F03803382B00F285
:1018FC00868201A252F823F0E91900080B1E000899
:10190C000B1E00080B1E00080B1E00080B1E000807
:10191C000B1E00080B1E00089B1A00080B1E00086B
:10192C000B1E00080B1E00080B1E00080B1E0008E7
:10193C000B1E00080B1E00084D1B00080B1E000898
:10194C000B1E00080B1E00080B1E00080B1E0008C7
:10195C000B1E00080B1E0008CD1B00080B1E0008F8
:10196C000B1E00080B1E00080B1E00080B1E0008A7
:10197C000B1E00080B1E0008CD1B00080B1E0008D8
:10198C000B1E00080B1E00080B1E00080B1E000887
:10199C000B1E00080B1E0008CD1B00080B1E0008B8
:1019AC000B1E00080B1E00080B1E00080B1E000867
:1019BC000B1E00080B1E0008CD1B00080B1E000898
:1019CC000B1E00080B1E00080B1E00080B1E000847
:1019DC000B1E00080B1E0008CD1B0008614B1B786A
:1019EC0003F00703042B3ED0042B4CDC002B02D05D
:1019FC00012B14D047E05C4B1B78012B45D15B4B82
:101A0C001B689AB25A4B1B689BB212FB03F39AB237
:101A1C004FF47A735749584806F04BFF35E0524B58
:101A2C001B78022B0FD1514B1B689AB2504B1B6881
:101A3C009BB212FB03F39AB24FF47A734D494E48A2
:101A4C0006F037FF22E0494B1B689AB2484B1B68E3
:101A5C009BB212FB03F39AB24FF47A734749464890
:101A6C0006F027FF12E0414B1B689AB2404B1B68F3
:101A7C009BB212FB03F39AB24FF47A733D493E4882
:101A8C0006F017FF02E000BF9BE000BF99E0354B6A
:101A9C001B7803F00703042B3ED0042B4CDC002BEB
:101AAC0002D0012B14D047E02F4B1B78012B45D1D2
:101ABC002E4B1B689AB22E4B1B689BB212FB03F386
:101ACC009AB24FF47A732E492B4806F0F2FE35E0A9
:101ADC00254B1B78022B0FD1244B1B689AB2244B3D
:101AEC001B689BB212FB03F39AB24FF47A7324492E
:101AFC00214806F0DEFE22E01C4B1B689AB21C4B00
:101B0C001B689BB212FB03F39AB24FF47A731B4916
:101B1C00194806F0CEFE12E0144B1B689AB2144B17
:101B2C001B689BB212FB03F39AB24FF47A731449FD
:101B3C00114806F0BEFE02E000BF42E000BF40E0EC
:101B4C00084B1B7803F00703042B33D0042B35DC34
:101B5C00002B17D0012B21D030E000BF0038004003
:101B6C00003C004098BD08201F0000200000002011
:101B7C0004000020D8E100203802002030030020AF
:101B8C0080C00120AC4B1B78012B03D10120FFF747
:101B9C005BFD14E00020FFF757FD10E0A64B1B780F
:101BAC00022B03D10120FFF74FFD08E00020FFF7C7
:101BBC004BFD04E00120FFF747FD00E000BF00E013
:101BCC0000BF1CE19D4B1B7803F03803282B00F25F
:101BDC00188101A252F823F0891C00080F1E00087E
:101BEC000F1E00080F1E00080F1E00080F1E000815
:101BFC000F1E00080F1E0008891C00080F1E00088D
:101C0C000F1E00080F1E00080F1E00080F1E0008F4
:101C1C000F1E00080F1E0008891C00080F1E00086C
:101C2C000F1E00080F1E00080F1E00080F1E0008D4
:101C3C000F1E00080F1E0008891C00080F1E00084C
:101C4C000F1E00080F1E00080F1E00080F1E0008B4
:101C5C000F1E00080F1E0008891C00080F1E00082C
:101C6C000F1E00080F1E00080F1E00080F1E000894
:101C7C000F1E00080F1E0008891C000800BFC0E0E2
:101C8C006E4B1B7803F03803002B03D0202B40F055
:101C9C00BA8000E000BFB6E0684B1B7803F0380355
:101CAC00202B00F0AA80202B00F3AF80002B02D059
:101CBC00082B78D0A9E0614B1B7803F00703042BA9
:101CCC004CD0042B69DC002B02D0012B23D064E018
:101CDC005B4B1B689AB25B4B1B689BB212FB03F30A
:101CEC009AB24FF47A735849584806F0E2FD524BB9
:101CFC001B78012B53D1514B5B78013BDBB218465F
:101D0C0000F0FAFF4D4B5B78013BDBB219464E48B5
:101D1C0000F044FC43E04A4B1B689AB2494B1B68E9
:101D2C009BB212FB03F39AB24FF47A7346494748BD
:101D3C0006F0BFFD404B1B78022B32D13F4B5B783A
:101D4C00013BDBB2184600F0D7FF3C4B5B78013B04
:101D5C00DBB219463C4800F021FC22E0384B1B68F2
:101D6C009AB2384B1B689BB212FB03F39AB24FF436
:101D7C007A733549354806F09CFD304B5B78013B56
:101D8C00DBB2184600F0B8FF2C4B5B78013BDBB2A2
:101D9C0019462D4800F002FC04E000BF2EE000BF05
:101DAC002CE000BF2AE0254B1B7803F00703042B23
:101DBC0014D0042B1DDC002B01D0012B1CE01E4B7E
:101DCC001B78012B17D101F06DF81C4B5B78013B94
:101DDC00DBB219461C4800F0B1FC0CE001F062F8D3
:101DEC00164B5B78013BDBB21946174800F0A6FC9A
:101DFC0002E000BF02E000BF00E000BF05E000BF52
:101E0C0004E000BF02E000BF00E000BF0B4B1B78FA
:101E1C0003F00703002B02D0012B02D002E000BF1D
:101E2C0000E000BF02220549084807F085F800BF12
:101E3C001037BD4680BD00BF1F00002098BD082094
:101E4C000000002004000020300300203802002095
:101E5C0080B48BB000AF786000237B62354B1B786D
:101E6C001AB2354B1B781B021BB213431BB27B817E
:101E7C0000233B620DE07A893B6A42FA03F303F0DC
:101E8C000103002B02D07B6A01337B623B6A013376
:101E9C003B623B6A0B2BEEDD0023FB610023BB6135
:101EAC0000237B6100233B6134E00023BB610023F2
:101EBC007B610023FB6022E07A89FB6842FA03F322
:101ECC0003F00103002B14D0FA69BB691344FB61C6
:101EDC003A697B6913441A467B6813441978174A8C
:101EEC00FB6913440A461A707B6901337B6100233A
:101EFC00BB61BB690133BB61FB680133FB60FB68F1
:101F0C000B2BD9DDFA69BB691344FB613A697B6A17
:101F1C0013443B610A4B1B680A4A126803FB02F22A
:101F2C003B699A42C1D800BF00BF2C37BD465DF853
:101F3C00047B70471C0000201D000020ECDE0720F5
:101F4C00000000200400002080B582B000AF002308
:101F5C003B7100224FF480510E4804F09FFA052388
:101F6C003B7039464FF47A7301220B4806F033FB71
:101F7C00391D4FF47A730122074806F09AFC0122AE
:101F8C004FF48051034804F089FA3B79184608371E
:101F9C00BD4680BD00040048D401002080B500AFD0
:101FAC0000BFFFF7D1FF034603F00103012BF8D06C
:101FBC0000BF00BF80BD000080B483B000AF002321
:101FCC007B600FE07B685B007A68D1B2C44AD15465
:101FDC007B685B0001337A68D1B2C14AD1547B680B
:101FEC0001337B607B686E2BECDDBD4B002283F8EC
:101FFC006420BB4B00221A70B94B02225A70B84BAA
:10200C0001229A70B64B0222DA70B54BFF221A717C
:10201C00B34B01225A71B24BFF229A71B04B012281
:10202C00DA71AF4BFF221A72AD4B01225A72AC4BD4
:10203C0000229A72AA4B0422DA72A94B01221A735B
:10204C00A74B04225A73A64BFF229A73A44B01226E
:10205C00DA73A34BFF221A74A14B01225A74A04BC2
:10206C00FF229A749E4B0122DA749D4B02221A7540
:10207C009B4B02225A759A4B03229A75984B02225B
:10208C00DA75974B04221A76954B02225A76944BAA
:10209C0005229A76924B0222DA76914BFF221A771E
:1020AC008F4B01225A778E4B02229A778C4B04224B
:1020BC00DA778B4B032283F82020894B042283F898
:1020CC002120874B042283F82220854B042283F89D
:1020DC002320834B052283F82420814B042283F890
:1020EC0025207F4BFF2283F826207D4B012283F88D
:1020FC0027207B4B072283F82820794B022283F878
:10210C002920774B082283F82A20754B022283F86A
:10211C002B20734B092283F82C20714B022283F85D
:10212C002D206F4B0A2283F82E206D4B022283F850
:10213C002F206B4BFF2283F83020694B012283F850
:10214C003120674B072283F83220654B042283F839
:10215C003320634B082283F83420614B042283F82C
:10216C0035205F4B092283F836205D4B042283F81F
:10217C0037205B4B0A2283F83820594B042283F812
:10218C003920574BFF2283F83A20554B042283F811
:10219C003B20534B0B2283F83C20514B022283F8FB
:1021AC003D204F4B0C2283F83E204D4B022283F8EE
:1021BC003F204B4BFF2283F84020494B012283F8F0
:1021CC004120474BFF2283F84220454B012283F8E4
:1021DC004320434BFF2283F84420414B012283F8D8
:1021EC0045203F4B0B2283F846203D4B042283F8BD
:1021FC0047203B4B0C2283F84820394B042283F8B0
:10220C004920374BFF2283F84A20354B012283F8B3
:10221C004B20334BFF2283F84C20314B012283F8A7
:10222C004D202F4BFF2283F84E202D4B012283F89B
:10223C004F202B4B0D2283F85020294B022283F880
:10224C005120274B0E2283F85220254B022283F873
:10225C005320234BFF2283F85420214B012283F877
:10226C0055201F4BFF2283F856201D4B012283F86B
:10227C0057201B4BFF2283F85820194B012283F85F
:10228C005920174B0D2283F85A20154B042283F842
:10229C005B20134B0E2283F85C20114B042283F835
:1022AC005D200F4BFF2283F85E200D4B012283F83B
:1022BC005F200B4BFF2283F86020094B012283F82F
:1022CC006120074BFF2283F86220054B012283F823
:1022DC00632000BF0C37BD465DF8047B704700BF20
:1022EC00A0BD082080B58CB000AF0023FB62604B12
:1022FC001B78002B02D10423FB620CE05C4B1B7897
:10230C00012B02D10223FB6205E0594B1B78022BF7
:10231C0001D10123FB621F233B623B6ADBB21846EF
:10232C0000F0EAFC3A6AFB6A92FBF3F3FB613B6A4E
:10233C00FA6A93FBF2F2F96A01FB02F29B1ABB6197
:10234C000023BB624FF48072FB6A92FBF3F3BA6911
:10235C0002FB03F37B6276E000224FF48051454888
:10236C0004F09CF806233B7507F114014FF47A73C3
:10237C000122414806F02FF901224FF480513D48CB
:10238C0004F08CF80A2000F0AFFF00224FF48051CB
:10239C00384804F083F802233B7407F110014FF422
:1023AC007A730122344806F016F9FB69DBB23B73F1
:1023BC0007F10C014FF47A7301222F4806F00BF948
:1023CC007B6ADBB23B7207F108014FF47A7301228E
:1023DC00294806F000F900233B71391D4FF47A733C
:1023EC000122254806F0F7F84FF47A736E22234940
:1023FC00214806F0F0F801224FF480511D4804F0FA
:10240C004DF80A2000F070FF00224FF4805119485B
:10241C0004F044F804233B7039464FF47A730122DC
:10242C00154806F0D8F801224FF48051114804F0F9
:10243C0035F84FF47A7000F057FFBB6A0133BB627A
:10244C007B6A01337B62BB6901334FF48071FA6A9A
:10245C0091FBF2F202FB03F31A467B6A9342FFF400
:10246C007BAFFFF79BFD00BF3037BD4680BD00BF83
:10247C000B00002000040048D4010020A0BD08205F
:10248C0080B58AB000AF00237B62404B1B78002BD9
:10249C0002D104237B620CE03C4B1B78012B02D154
:1024AC0002237B6205E0394B1B78022B01D10123FF
:1024BC007B621F23FB61FA697B6A92FBF3F3BB61BE
:1024CC00FB697A6A93FBF2F2796A01FB02F29B1ABE
:1024DC007B6100233B614FF480727B6A92FBF3F3C8
:1024EC007A6902FB03F33B623DE000224FF480511A
:1024FC00274803F0D3FF03233B7307F10C014FF480
:10250C007A730122234806F066F8BB69DBB23B7292
:10251C0007F108014FF47A7301221E4806F05BF8AC
:10252C003B6ADBB23B71391D4FF47A7301221948B7
:10253C0006F051F800233B7039464FF47A730122B0
:10254C00144806F048F84FF47A736E221249114879
:10255C0006F0AFF901224FF480510D4803F09EFFB5
:10256C003B6A01333B627B6901334FF480717A6AB9
:10257C0091FBF2F202FB03F31A463B6A9342B4D38B
:10258C0000BF00BF2837BD4680BD00BF0B00002038
:10259C0000040048D4010020A0BD082080B58EB0F6
:1025AC0000AF78600B46FB7000237B63604B1B789D
:1025BC00002B02D104237B630CE05D4B1B78012BB9
:1025CC0002D102237B6305E0594B1B78022B01D10E
:1025DC0001237B63FA787B6B92FBF3F3BB62FB7892
:1025EC007A6B93FBF2F2796B01FB02F29B1A7B6222
:1025FC0000233B634FF480727B6B92FBF3F37A6A9C
:10260C0002FB03F3FB627EE000224FF48051494849
:10261C0003F044FF062387F8203007F120014FF424
:10262C007A730122444805F0D6FF01224FF4805101
:10263C00404803F033FF0A2000F056FE00224FF40E
:10264C0080513C4803F02AFF02233B7707F11C0121
:10265C004FF47A730122384805F0BDFFBB6ADBB238
:10266C003B7607F118014FF47A730122324805F0DA
:10267C00B2FFFB6ADBB23B7507F114014FF47A73BE
:10268C0001222D4805F0A7FF00233B7407F1100130
:10269C004FF47A730122284805F09DFF3B6B1B0217
:1026AC001A467B6899184FF47A734FF4807222485B
:1026BC0005F091FF01224FF480511E4803F0EEFE0D
:1026CC000A2000F011FE00224FF48051194803F04B
:1026DC00E5FE04233B7307F10C014FF47A730122DE
:1026EC00154805F078FF01224FF48051114803F092
:1026FC00D5FE4FF47A7000F0F7FD3B6B01333B6372
:10270C00FB6A0133FB627B6A01334FF480717A6B95
:10271C0091FBF2F202FB03F31A46FB6A9342FFF4BD
:10272C0073AFFFF73BFC00BF3837BD4680BD00BF21
:10273C000B00002000040048D401002080B58CB0B0
:10274C0000AF78600B46FB700023FB62434B1B7899
:10275C00002B02D10423FB620CE0404B1B78012BB5
:10276C0002D10223FB6205E03C4B1B78022B01D10A
:10277C000123FB62FA78FB6A92FBF3F33B62FB7872
:10278C00FA6A93FBF2F2F96A01FB02F29B1AFB6103
:10279C000023BB624FF48072FB6A92FBF3F3FA697D
:1027AC0002FB03F37B6247E000224FF480512C487C
:1027BC0003F074FE03233B7607F118014FF47A7390
:1027CC000122284805F007FF3B6ADBB23B7507F195
:1027DC0014014FF47A730122224805F0FCFE7B6A47
:1027EC00DBB23B7407F110014FF47A7301221D48E0
:1027FC0005F0F1FE00233B7307F10C014FF47A73E3
:10280C000122184805F0E7FEBB6A1B021A467B68DA
:10281C0099184FF47A734FF48072124806F049F805
:10282C0001224FF480510E4803F038FEBB6A01338D
:10283C00BB627B6A01337B62FB6901334FF48071AD
:10284C00FA6A91FBF2F202FB03F31A467B6A93429B
:10285C00AAD300BF00BF3037BD4680BD0B0000209F
:10286C0000040048D401002080B5ADF55E4DBEB02B
:10287C0000AF07F6F863A3F6F46318600A4607F690
:10288C00F863A3F6F5631A70002307F55E4202F1B4
:10289C00F4021360C14B1B78002B06D1042307F5FF
:1028AC005E4202F1F402136014E0BC4B1B78012B66
:1028BC0006D1022307F55E4202F1F402136009E02F
:1028CC00B64B1B78022B05D1012307F55E4202F1B2
:1028DC00F402136007F6F863A3F6DC6300221A60B7
:1028EC0004334DF6A4620021184607F0F5FF07F1FA
:1028FC00F803DC3B4DF6A8620021184607F0ECFF0C
:10290C0007F6F863A3F6F5631A7807F55E4303F14F
:10291C00F4031B6892FBF3F307F55E4202F1CC0261
:10292C00136007F6F863A3F6F5631B7807F55E42B0
:10293C0002F1F402126893FBF2F207F55E4101F129
:10294C00F401096801FB02F29B1A07F55E4202F1E1
:10295C00C8021360002307F55E4202F1F002136017
:10296C004FF4807207F55E4303F1F4031B6892FB8E
:10297C00F3F307F55E4202F1C802126802FB03F39F
:10298C0007F55E4202F1EC02136078E000224FF48E
:10299C008051834803F082FD07F6F863A3F56E635C
:1029AC0003221A7007F1F801E0394FF47A7301220F
:1029BC007C4805F010FE07F55E4303F1CC031B6861
:1029CC00DAB207F6F863A3F6E4631A7007F1F801BC
:1029DC00E4394FF47A730122724805F0FCFD07F5D7
:1029EC005E4303F1EC031B68DAB207F6F863A3F657
:1029FC00E8631A7007F1F801E8394FF47A73012291
:102A0C00684805F0E8FD07F6F863A3F6EC630022CE
:102A1C001A7007F1F801EC394FF47A73012261480E
:102A2C0005F0D9FD07F55E4303F1F0031B681A02AC
:102A3C0007F1F803DC3B99184FF47A734FF480726A
:102A4C00584805F036FF01224FF48051544803F0EA
:102A5C0025FD07F55E4303F1F0031B68013307F511
:102A6C005E4202F1F002136007F55E4303F1EC03E2
:102A7C001B68013307F55E4202F1EC02136007F5A7
:102A8C005E4303F1C8031B6801334FF4807107F5F3
:102A9C005E4202F1F402126891FBF2F202FB03F3C4
:102AAC001A4607F55E4303F1EC031B689342FFF4EF
:102ABC006DAF002307F55E4202F1E80213603A4B5A
:102ACC001B781AB2394B1B781B021BB213431BB277
:102ADC0007F55E4202F1C6021380002307F55E4241
:102AEC0002F1E402136025E007F55E4303F1C6032F
:102AFC001A8807F55E4303F1E4031B6842FA03F3FB
:102B0C0003F00103002B0AD007F55E4303F1E80341
:102B1C001B68013307F55E4202F1E802136007F50A
:102B2C005E4303F1E4031B68013307F55E4202F1D7
:102B3C00E402136007F55E4303F1E4031B680B2BFF
:102B4C00D2DD002307F55E4202F1E00213600023A0
:102B5C0007F55E4202F1DC021360002307F55E42CA
:102B6C0002F1D8021360002307F55E4202F1D40291
:102B7C001360A7E0002307F55E4202F1DC0213604C
:102B8C00002307F55E4202F1D8021360002307F51B
:102B9C005E4202F1D00213606DE000BF0B0000201A
:102BAC0000040048D40100201C0000201D0000205F
:102BBC0007F55E4303F1C6031A8807F55E4303F17C
:102BCC00D0031B6842FA03F303F00103002B3CD043
:102BDC0007F55E4303F1E0031A6807F55E4303F162
:102BEC00DC031B68134407F55E4202F1E00213603C
:102BFC0007F55E4303F1D4031A6807F55E4303F14E
:102C0C00D8031B681A4407F55E4303F1E0031B6805
:102C1C0007F6F861A1F6F46109680B4407F6F86150
:102C2C00A1F6DC618A5C1A7007F55E4303F1D803E8
:102C3C001B68013307F55E4202F1D80213600023D2
:102C4C0007F55E4202F1DC02136007F55E4303F107
:102C5C00DC031B68013307F55E4202F1DC021360F2
:102C6C0007F55E4303F1D0031B68013307F55E42A1
:102C7C0002F1D002136007F55E4303F1D0031B6829
:102C8C000B2B95DD07F55E4303F1E0031A6807F59E
:102C9C005E4303F1DC031B68134407F55E4202F14B
:102CAC00E002136007F55E4303F1D4031A6807F5DD
:102CBC005E4303F1E8031B68134407F55E4202F11F
:102CCC00D40213600A4B1B680A4A126803FB02F217
:102CDC0007F55E4303F1D4031B689A423FF64AAFF3
:102CEC0000BF00BF07F55E47F837BD4680BD00BF8B
:102CFC00000000200400002080B58CB000AF03461B
:102D0C00FB710023FB62644B1B78002B02D1042364
:102D1C00FB620CE0604B1B78012B02D10223FB629F
:102D2C0005E05D4B1B78022B01D10123FB620023D4
:102D3C0087F82B30584B1B78002B03D1042387F8D2
:102D4C002B300EE0544B1B78012B03D1082387F852
:102D5C002B3006E0504B1B78022B02D1102387F846
:102D6C002B30FA79FB6A92FBF3F37B62FB79FA6AFC
:102D7C0093FBF2F2F96A01FB02F29B1A3B6200F040
:102D8C0091F8002387F82A307AE000224FF4805122
:102D9C00424803F083FB06233B7707F11C014FF4F9
:102DAC007A7301223E4805F016FC01224FF4805143
:102DBC003A4803F073FB0A2000F096FA00224FF415
:102DCC008051364803F06AFB20233B7607F118014B
:102DDC004FF47A730122324805F0FDFB7B6ADBB2BB
:102DEC003B7507F114014FF47A7301222C4805F05E
:102DFC00F2FB97F82B303A6A03FB02F297F82A3071
:102E0C001344DBB21B01DBB23B7407F110014FF42E
:102E1C007A730122224805F0DEFB00233B7307F195
:102E2C000C014FF47A7301221D4805F0D4FB0122EA
:102E3C004FF48051194803F031FB0A2000F054FA8A
:102E4C0000224FF48051154803F028FB04233B72F9
:102E5C0007F108014FF47A730122114805F0BBFB0E
:102E6C0001224FF480510D4803F018FB0A2000F0AA
:102E7C003BFAFFF793F897F82A30013387F82A309A
:102E8C0097F82A2097F82B309A42FFF47EAF00BFB8
:102E9C0000BF3037BD4680BD0B0000200004004849
:102EAC00D401002080B582B000AF00224FF48051D5
:102EBC001A4803F0F3FA66233B71391D4FF47A7309
:102ECC000122174805F087FB01224FF4805113486B
:102EDC0003F0E4FA012000F022FA00224FF48051B2
:102EEC000E4803F0DBFA99233B7039464FF47A73A2
:102EFC0001220B4805F06FFB01224FF4805107486B
:102F0C0003F0CCFA012000F00AFA4FF47A7000F0CA
:102F1C00EBF900BF0837BD4680BD00BF0004004878
:102F2C00D401002080B5AEB000AF07F1AC03002295
:102F3C001A605A609A6007F188032422002118460F
:102F4C0007F0CAFC07F1700300221A605A609A60FD
:102F5C00DA601A615A613B1D6C220021184607F099
:102F6C00BBFC6D4B6D4A1A606B4B00225A606A4B6E
:102F7C0002229A60684B0022DA603223C7F8AC3028
:102F8C000123C7F8B0300123C7F8B43007F1AC0304
:102F9C001946614802F094FA0346002B01D000F068
:102FAC0035FA0123C7F888300023C7F88C3000238A
:102FBC00C7F890300023C7F894300023C7F8983036
:102FCC000023C7F89C300023C7F8A0300023C7F8B3
:102FDC00A4300023C7F8A83007F1880319464E48DF
:102FEC0002F0E1FE0346002B01D000F00FFA132390
:102FFC003B670F237B670923BB670A23FB6700230F
:10300C00C7F880300023C7F8843007F170031946E5
:10301C00414802F05EFE0346002B01D000F0F6F9A9
:10302C0042F210713C4803F07AF80346002B01D0B1
:10303C0000F0ECF90021384802F05EFB0346002B4F
:10304C0001D000F0E3F900237B600523BB60002373
:10305C00FB6001233B6178237B610123BB6100236F
:10306C00FB6100233B6200237B620023BB622C4B81
:10307C001B88FB622B4B1B883B63294B1B881A4616
:10308C00284B1B8813441A46274B1B681344274AAA
:10309C00128813447B63264B1B88BB63254B1B8810
:1030AC00FB63254B1B883B64244B1B687B644FF4F0
:1030BC000043BB641C23FB6450233B654FF400535B
:1030CC007B654FF48053BB654FF40063FB654FF495
:1030DC0080633B664FF400737B664FF48073BB6672
:1030EC000023FB663B1D19460B4802F0EAFB034626
:1030FC00002B01D000F08AF90021074802F0B9FB3F
:10310C000346002B01D000F081F9FEF787FA00BFCF
:10311C00B837BD4680BD00BF10010020006C0140D7
:10312C0010000020120000200000002014000020DD
:10313C0016000020180000201A00002004000020B7
:10314C0080B58EB000AF3B1D34220021184607F02D
:10315C00C3FB5A4B5A4A1A60584B4FF000425A6004
:10316C00564B4FF080429A60544B0022DA60534B1E
:10317C0000221A61534B1B88013B1A464F4B5A6174
:10318C00514B1B88013B1A464C4B9A614D4B1B888B
:10319C001A464E4B1B881344013B1A46474BDA61C7
:1031AC00494B1B881A464A4B1B881344013B1A4651
:1031BC00424B1A62434B1B881A46444B1B881344E0
:1031CC001A46444B1B681344013B3C4A53623E4B2A
:1031DC001B881A463E4B1B8813441A463E4B1B68F1
:1031EC001344013B354A9362364B1B881A46374BC6
:1031FC001B8813441A46374B1B681344374A1288F2
:10320C001344013B2D4AD3622F4B1B881A46304B7B
:10321C001B8813441A46304B1B681344304A1288DF
:10322C001344013B254A1363244BFF2283F83420BB
:10323C00224BFF2283F83520204BFF2283F83620C7
:10324C001E4803F05BF90346002B01D000F0DEF8BA
:10325C0000237B601F4B1B68BB600023FB601E4B75
:10326C001B683B6101237B61FF23BB610023FB6176
:10327C004FF480633B6205237B621A4BBB62154B98
:10328C001B68FB62144B1B683B63FF2387F83430CD
:10329C00FF2387F83530FF2387F836303B1D00229B
:1032AC001946064803F0FAF90346002B01D000F04A
:1032BC00ADF800BF3837BD4680BD00BF2C010020E3
:1032CC0000680140100000201600002012000020B1
:1032DC001800002000000020040000201400002032
:1032EC001A000020ECDE072080B485B000AF7860B7
:1032FC000023FB6007E00D23FB6000BFFB685A1E38
:10330C00FA60002BFAD17B685A1E7A60002BF2D13E
:10331C0000BF00BF1437BD465DF8047B704780B416
:10332C0085B000AF78600023FB6007E00123FB60F1
:10333C0000BFFB685A1EFA60002BFAD17B685A1E3C
:10334C007A60002BF2D100BF00BF1437BD465DF888
:10335C00047B704780B584B002AF0346FB80FB88CA
:10336C00B3F5805F33D0FB88B3F5807F2FD11F4B33
:10337C001B78002B2BD11E4B1A781E4B1B789A42B4
:10338C0002D81C4B00221A701A4B1B781A464DF6A9
:10339C00A86302FB03F3184A134418461749184B49
:1033AC001A68184B1B68009313460A4601461648C8
:1033BC0001F0E5FD0346002B03D13221124801F048
:1033CC0009FE0C4B1B780133DAB20A4B1A70FB88DE
:1033DC00B3F5807F06D1054B1B78012B02D1054B31
:1033EC0000221A7000BF0837BD4680BD9CBD082066
:1033FC001BBE08201ABE0820D07D0320ECDE07205F
:10340C000400002000000020B000002080B400AFB9
:10341C0072B600BFFEE7000080B483B000AF0F4B64
:10342C001B6E0E4A43F0010313660C4B1B6E03F02C
:10343C0001037B607B68094B9B6D084A43F080530A
:10344C009365064B9B6D03F080533B603B6800BF5C
:10345C000C37BD465DF8047B704700BF001002407E
:10346C0080B5B0B000AF786007F1AC0300221A60F1
:10347C005A609A60DA601A6107F110039C220021ED
:10348C00184607F029FA7B681B68274A934246D1F5
:10349C004FF480433B614FF08053C7F890300323C7
:1034AC007B610123BB610823FB6102233B62022386
:1034BC007B620223BB624FF08073FB6207F1100347
:1034CC00184604F06DFA0346002B01D0FFF79EFF5F
:1034DC00164BDB6C154A43F40053D364134BDB6C73
:1034EC0003F40053FB60FB68104BDB6C0F4A43F09A
:1034FC000403D3640D4BDB6C03F00403BB60BB68AB
:10350C000223C7F8AC300B23C7F8B0300023C7F840
:10351C00B43007F1AC031946054802F02DFE00BF8C
:10352C00C037BD4680BD00BF0000045000100240F3
:10353C000008004880B485B000AF78607B681B68D9
:10354C000A4A93420BD10A4B9B6C094A43F4003351
:10355C009364074B9B6C03F40033FB60FB6800BF68
:10356C001437BD465DF8047B704700BF00B00240C5
:10357C000010024080B5AAB000AF786007F10C03D0
:10358C009C220021184607F0A7F97B681B68114A9A
:10359C0093421BD14FF40003FB600023C7F89C300F
:1035AC0007F10C03184604F0FBF90346002B01D07D
:1035BC00FFF72CFF084B1B6E074A43F000631366A2
:1035CC00054B1B6E03F00063BB60BB6800BFA837E4
:1035DC00BD4680BD006C01400010024080B5AAB011
:1035EC0000AF786007F10C039C220021184607F00D
:1035FC0073F97B681B68194A93422BD14FF48003F3
:10360C00FB604FF48033C7F898300323FB6201232F
:10361C003B6308237B630223BB6302233B640223CB
:10362C00FB634FF080737B6407F10C03184604F0C6
:10363C00B7F90346002B01D0FFF7E8FE084B1B6ED1
:10364C00074A43F080631366054B1B6E03F08063DF
:10365C00BB60BB6800BFA837BD4680BD0068014099
:10366C000010024080B58CB000AF786007F11C03ED
:10367C0000221A605A609A60DA601A617B681B68D3
:10368C00424A934228D1424B9B6D414A43F48043BA
:10369C0093653F4B9B6D03F48043BB61BB693C4B13
:1036AC00DB6C3B4A43F00803D364394BDB6C03F00F
:1036BC0008037B617B691A23FB6102233B620023B5
:1036CC007B620323BB620523FB6207F11C031946D3
:1036DC00304802F051FD54E07B681B682E4A93423F
:1036EC004FD12B4B9B6D2A4A43F400439365284BD7
:1036FC009B6D03F400433B613B69254BDB6C244A17
:10370C0043F04003D364224BDB6C03F04003FB60BB
:10371C00FB6803F05DFA1E4BDB6C1D4A43F004039F
:10372C00D3641B4BDB6C03F00403BB60BB684FF42E
:10373C00A053FB6102233B6200237B620323BB6229
:10374C000623FB6207F11C031946144802F014FD12
:10375C004FF4A053FB6102233B6200237B620323E3
:10376C00BB620623FB6207F11C0319460C4802F0EE
:10377C0003FD00220021332001F00BFB332001F06C
:10378C0024FB00BF3037BD4680BD00BF0038004071
:10379C0000100240000C0048003C0040001800489B
:1037AC000008004880B5B0B000AF786007F1AC03FA
:1037BC0000221A605A609A60DA601A6107F11003ED
:1037CC009C220021184607F087F87B681B68214A69
:1037DC0093423BD108233B610023BB6507F11003E7
:1037EC00184604F0DDF80346002B01D0FFF70EFE5F
:1037FC00194B9B6D184A43F400239365164B9B6D34
:10380C0003F40023FB60FB68134BDB6C124A43F0A0
:10381C000103D364104BDB6C03F00103BB60BB688A
:10382C000323C7F8AC300223C7F8B0300023C7F825
:10383C00B4300323C7F8B8300823C7F8BC3007F1FD
:10384C00AC0319464FF0904002F096FC00BFC03715
:10385C00BD4680BD004C00400010024080B400AF5B
:10386C00FEE780B400AFFEE780B400AFFEE780B4A3
:10387C0000AFFEE780B400AFFEE780B400AF00BF3E
:10388C00BD465DF8047B704780B400AF00BFBD46F9
:10389C005DF8047B704780B400AF00BFBD465DF897
:1038AC00047B704780B500AF00F0ACF800BF80BD62
:1038BC0080B500AF4FF4807002F008FE00BF80BDF1
:1038CC0080B500AF4FF4805002F000FE00BF80BD09
:1038DC0080B500AF024805F08FFC00BF80BD00BF73
:1038EC003802002080B400AF064BD3F88830054A6C
:1038FC0043F47003C2F8883000BFBD465DF8047B0A
:10390C00704700BF00ED00E0DFF834D0FFF7EAFFAE
:10391C000C480D490D4A002302E0D458C45004331E
:10392C00C4188C42F9D30A4A0A4C002301E01360F4
:10393C000432A242FBD306F0ABFFFCF7DBFDFEE743
:10394C0000000A20000000202C0000200CAA000817
:10395C002C00002020BE0820FEE780B582B000AF0E
:10396C000023FB71032001F009FA022000F00EF88D
:10397C000346002B02D00123FB7101E0FFF74CFD45
:10398C00FB7918460837BD4680BD000080B584B071
:10399C0000AF78600023FB73174B1B78002B23D0F0
:1039AC00164B1A68144B1B7819464FF47A73B3FBF9
:1039BC00F1F3B2FBF3F3184601F015FA0346002BB2
:1039CC000FD17B680F2B09D8002279684FF0FF309C
:1039DC0001F0DFF90A4A7B68136007E00123FB73EF
:1039EC0004E00123FB7301E00123FB73FB7B18460E
:1039FC001037BD4680BD00BF2800002020000020ED
:103A0C002400002080B400AF064B1B781A46064BEE
:103A1C001B681344044A136000BFBD465DF8047B69
:103A2C00704700BF280000201CBE082080B400AFE7
:103A3C00034B1B681846BD465DF8047B704700BFFE
:103A4C001CBE082080B584B000AF7860FFF7EEFF95
:103A5C00B8607B68FB60FB68B3F1FF3F05D00A4B95
:103A6C001B781A46FB681344FB6000BFFFF7DEFFB0
:103A7C000246BB68D31AFA689A42F7D800BF00BF57
:103A8C001037BD4680BD00BF2800002080B483B035
:103A9C0000AF786039607B689B6823F47C123B68CC
:103AAC001A437B689A6000BF0C37BD465DF8047BF7
:103ABC00704780B483B000AF786039607B689B68D6
:103ACC0023F0E0723B681A437B689A6000BF0C37A6
:103ADC00BD465DF8047B704780B483B000AF78605E
:103AEC007B689B6803F0E07318460C37BD465DF8A5
:103AFC00047B704780B487B000AFF860B9607A601F
:103B0C003B60FB6860331A46BB689B0013447B61C7
:103B1C007B691A68084B13407A6802F0F8413A68DE
:103B2C000A43134343F000427B691A6000BF1C3701
:103B3C00BD465DF8047B704700F0FF0380B485B090
:103B4C0000AF786039607B6860331A463B689B0035
:103B5C001344FB60FB681B6803F0F84318461437EA
:103B6C00BD465DF8047B704780B487B000AFF86049
:103B7C00B9607A60FB6860331A46BB689B001344DB
:103B8C007B617B691B6823F000427B681A437B696D
:103B9C001A6000BF1C37BD465DF8047B704780B4CB
:103BAC0083B000AF786039607B685B6923F00042BA
:103BBC003B681A437B685A6100BF0C37BD465DF801
:103BCC00047B704780B483B000AF78607B68DB689F
:103BDC0003F44063002B01D1012300E000231846BD
:103BEC000C37BD465DF8047B704780B487B000AFDE
:103BFC00F860B9607A60FB6830331A46BB681B0A00
:103C0C009B0003F00C0313447B617B691A68BB684F
:103C1C0003F01F031F2101FA03F3DB431A407B68F7
:103C2C009B0E03F01F01BB6803F01F0301FA03F3A3
:103C3C001A437B691A6000BF1C37BD465DF8047BD4
:103C4C00704780B487B000AFF860B9607A60FB68E9
:103C5C0014331A46BB685B0E9B0003F00403134439
:103C6C007B617B691A68BB681B0D03F01F0307217E
:103C7C0001FA03F3DB431A40BB681B0D03F01F036F
:103C8C00796801FA03F31A437B691A6000BF1C3789
:103C9C00BD465DF8047B704780B485B000AFF8601A
:103CAC00B9607A60FB68D3F8B020BB68C3F3120329
:103CBC00DB431A407B6803F018030849D940BB6802
:103CCC000B40C3F312031A43FB68C3F8B02000BFC8
:103CDC001437BD465DF8047B704700BFFFFF07003B
:103CEC0080B483B000AF78607B689B6823F020437E
:103CFC0023F03F037A68936000BF0C37BD465DF834
:103D0C00047B704780B483B000AF78607B689B689D
:103D1C0003F00053B3F1005F01D1012300E0002355
:103D2C0018460C37BD465DF8047B704780B483B0F1
:103D3C0000AF78607B689B6823F0104323F03F034F
:103D4C0043F080527B689A6000BF0C37BD465DF82B
:103D5C00047B704780B483B000AF78607B689B684D
:103D6C0003F08053B3F1805F01D1012300E0002305
:103D7C0018460C37BD465DF8047B704780B483B0A1
:103D8C0000AF78607B689B6823F0004323F03F030F
:103D9C0043F001027B689A6000BF0C37BD465DF8AA
:103DAC00047B704780B483B000AF78607B689B68FD
:103DBC0003F00103012B01D1012300E0002318467D
:103DCC000C37BD465DF8047B704780B483B000AF00
:103DDC0078607B689B6823F0004323F03F0343F03B
:103DEC0004027B689A6000BF0C37BD465DF8047B0B
:103DFC00704780B483B000AF78607B689B6803F039
:103E0C000403042B01D1012300E0002318460C37D6
:103E1C00BD465DF8047B704780B483B000AF78601A
:103E2C007B689B6803F00803082B01D1012300E099
:103E3C00002318460C37BD465DF8047B7047000024
:103E4C0080B588B000AF78600023FB770023BB609F
:103E5C007B68002B01D101232FE17B681B69002BB0
:103E6C007B689B6D002B09D17868FFF7F9FA7B68AA
:103E7C000022DA657B68002283F854207B681B687B
:103E8C001846FFF73FFF0346002B04D07B681B68E6
:103E9C001846FFF725FF7B681B681846FFF75AFF8B
:103EAC000346002B15D17B681B681846FFF73EFFB5
:103EBC00844B1B689B09844AA2FB03239B09013397
:103ECC005B00BB6002E0BB68013BBB60BB68002BC6
:103EDC00F9D17B681B681846FFF73CFF0346002BA3
:103EEC000DD17B689B6D43F010027B689A657B68F3
:103EFC00DB6D43F001027B68DA650123FB777B689D
:103F0C001B681846FFF775FF78617B689B6D03F0A3
:103F1C001003002B40F0C8807B69002B40F0C4805C
:103F2C007B689B6D23F4817343F002027B689A6576
:103F3C007B681B681846FFF735FF0346002B0BD137
:103F4C006248FFF72FFF0346002B05D17B685B68A7
:103F5C0019465F48FFF79AFD7B685B7E5A037B68C6
:103F6C005B6B1A437B68DB681A437B689B681A435C
:103F7C007B6893F820301B041343BB617B6893F878
:103F8C002030012B06D17B685B6A013B5B04BA696C
:103F9C001343BB617B689B6A002B09D07B689B6ACF
:103FAC0003F470727B68DB6A1343BA691343BB6119
:103FBC007B681B68DA68474B13407A681268B969EA
:103FCC000B43D3607B681B681846FFF712FF386100
:103FDC007B681B681846FFF71FFFF8603B69002BD6
:103FEC0040D1FB68002B3DD17B68DA6C7B681B7E73
:103FFC009B031A437B6893F830305B001343BB611F
:10400C007B681B68DB6823F4804323F006037A6823
:10401C001268B9690B43D3607B6893F83830012B75
:10402C0018D17B681B681B6923F4FF6323F004031E
:10403C007A68D16B7A68126C11437A68526C1143AE
:10404C007A68926C0A431A437B681B6842F001023F
:10405C001A6107E07B681B681A697B681B6822F091
:10406C0001021A617B681B69012B0CD17B681B68F0
:10407C001B6B23F00F017B68DB695A1E7B681B6886
:10408C000A431A6307E07B681B681A6B7B681B6822
:10409C0022F00F021A637B689B6D23F0030343F03D
:1040AC0001027B689A6507E07B689B6D43F0100208
:1040BC007B689A650123FB77FB7F18462037BD464A
:1040CC0080BD00BF20000020632D3E050000045081
:1040DC000003045007C0F0FF80B584B000AF7860D7
:1040EC007B681B681846FFF784FE0346002B4FD1F4
:1040FC007B6893F85430012B01D102234BE07B6891
:10410C00012283F85420786800F0E2FC0346FB732C
:10411C00FB7B002B37D17B689B6D23F4706323F002
:10412C00010343F480727B689A657B689B6D03F492
:10413C008053B3F5805F06D17B68DB6D23F00602FC
:10414C007B68DA6502E07B680022DA657B681B68B5
:10415C001C221A607B68002283F854207B681B6841
:10416C00DB6803F00073002B07D07B689B6D23F496
:10417C00405343F480527B689A657B681B681846F1
:10418C00FFF723FE06E07B68002283F8542001E051
:10419C000223FB73FB7B18461037BD4680BD80B5F0
:1041AC0086B000AF786039607B685B69082B02D100
:1041BC0008237B6110E07B681B68DB6803F001035C
:1041CC00002B07D07B689B6D43F020027B689A65BF
:1041DC0001236FE004237B61FFF728FC386121E0A9
:1041EC003B68B3F1FF3F1DD0FFF720FC02463B6953
:1041FC00D31A3A689A4202D33B68002B12D17B68DF
:10420C001B681A687B691340002B0BD17B689B6D74
:10421C0043F004027B689A657B68002283F8542083
:10422C00032347E07B681B681A687B691340002BEB
:10423C00D6D07B689B6D43F400727B689A657B6873
:10424C001B681846FFF7BEFC0346002B1CD07B688E
:10425C005B7E002B18D17B681B681B6803F008037E
:10426C00082B11D17B689B6D23F480727B689A6557
:10427C007B689B6D03F48053002B05D17B689B6D91
:10428C0043F001027B689A657B681B68DB68FB6006
:10429C007B69082B04D17B681B6808221A6008E034
:1042AC00FB6803F48043002B03D17B681B680C2252
:1042BC001A60002318461837BD4680BD80B483B001
:1042CC0000AF78607B681B681B6C18460C37BD46CA
:1042DC005DF8047B7047000080B5B6B000AF786025
:1042EC003960002387F8D7300023FB607B6893F894
:1042FC005430012B01D10223D5E37B68012283F8D2
:10430C0054207B681B681846FFF773FD0346002B8F
:10431C0040F0BA833B685B68052B24D83B685B682C
:10432C00023B032B1BD801A252F823F0494300088F
:10433C005143000859430008614300083B680C22B4
:10434C005A6011E03B6812225A600DE03B6818225B
:10435C005A6009E03B684FF480725A6004E03B6895
:10436C0006225A6000E000BF7B6818683B685968F9
:10437C003B681B681A46FFF738FC7B681B681846BD
:10438C00FFF737FDC7F8D0007B681B681846FFF7AE
:10439C0043FDC7F8CC00D7F8D030002B40F0C181DA
:1043AC00D7F8CC30002B40F0BC813B689B68B3F154
:1043BC00004F0FD17B6818683B681B6800221946B8
:1043CC00FFF73FFC7B681B684FF000411846FFF776
:1043DC00E6FB0EE07B6818683B6819683B689B68D5
:1043EC001A46FFF72EFC7B681B6800211846FFF766
:1043FC00D6FB3B685A697B681B68DB68DB0803F0FB
:10440C0003035B0002FA03F3C7F8C8303B681B696F
:10441C00042B0AD07B6818683B6819693B681A68DA
:10442C00D7F8C830FFF766FB7BE17B681B6800217F
:10443C001846FFF783FB0346C3F31203002B0AD184
:10444C007B681B6800211846FFF778FB03469B0E20
:10445C0003F01F021EE07B681B6800211846FFF763
:10446C006DFB0346C7F8BC30D7F8BC3093FAA3F306
:10447C00C7F8B830D7F8B830C7F8C030D7F8C03064
:10448C00002B01D1202304E0D7F8C030B3FA83F31A
:10449C00DBB21A463B681B68C3F31203002B05D131
:1044AC003B681B689B0E03F01F0318E03B681B68FE
:1044BC00C7F8B030D7F8B03093FAA3F3C7F8AC30E4
:1044CC00D7F8AC30C7F8B430D7F8B430002B01D1E2
:1044DC00202304E0D7F8B430B3FA83F3DBB29A426A
:1044EC0006D17B681B68002200211846FFF73CFBB5
:1044FC007B681B6801211846FFF720FB0346C3F3BA
:10450C001203002B0AD17B681B6801211846FFF7A8
:10451C0015FB03469B0E03F01F021EE07B681B6815
:10452C0001211846FFF70AFB0346C7F8A430D7F859
:10453C00A43093FAA3F3C7F8A030D7F8A030C7F88B
:10454C00A830D7F8A830002B01D1202304E0D7F8ED
:10455C00A830B3FA83F3DBB21A463B681B68C3F38B
:10456C001203002B05D13B681B689B0E03F01F0345
:10457C0018E03B681B68C7F89830D7F8983093FA66
:10458C00A3F3C7F89430D7F89430C7F89C30D7F819
:10459C009C30002B01D1202304E0D7F89C30B3FAD7
:1045AC0083F3DBB29A4206D17B681B68002201219F
:1045BC001846FFF7D9FA7B681B6802211846FFF7EB
:1045CC00BDFA0346C3F31203002B0AD17B681B68A8
:1045DC0002211846FFF7B2FA03469B0E03F01F02A6
:1045EC001EE07B681B6802211846FFF7A7FA0346FA
:1045FC00C7F88C30D7F88C3093FAA3F3C7F888300F
:10460C00D7F88830C7F89030D7F89030002B01D10C
:10461C00202304E0D7F89030B3FA83F3DBB21A46C8
:10462C003B681B68C3F31203002B05D13B681B6866
:10463C009B0E03F01F0316E03B681B68C7F8803025
:10464C00D7F8803093FAA3F3FB67FB6FC7F884307D
:10465C00D7F88430002B01D1202304E0D7F8843024
:10466C00B3FA83F3DBB29A4206D17B681B68002253
:10467C0002211846FFF778FA7B681B68032118465D
:10468C00FFF75CFA0346C3F31203002B0AD17B68D5
:10469C001B6803211846FFF751FA03469B0E03F0E3
:1046AC001F0217E07B681B6803211846FFF746FAC8
:1046BC0003467B677B6F93FAA3F33B673B6FBB6748
:1046CC00BB6F002B01D1202303E0BB6FB3FA83F344
:1046DC00DBB21A463B681B68C3F31203002B05D1EF
:1046EC003B681B689B0E03F01F0311E03B681B68C3
:1046FC00BB66BB6E93FAA3F37B667B6EFB66FB6EAD
:10470C00002B01D1202303E0FB6EB3FA83F3DBB261
:10471C009A4206D17B681B68002203211846FFF7DA
:10472C0023FA7B681B681846FFF73CFB0346002BFB
:10473C0040F040817B6818683B6819683B68DB680F
:10474C001A46FFF7A9FA3B68DB688F4A934240F0A0
:10475C0031817B6818683B681B68C3F31203002B1C
:10476C000BD13B681B689B0E013303F01F03092B15
:10477C0094BF01230023DBB219E03B681B68FB6587
:10478C00FB6D93FAA3F3BB65BB6D3B663B6E002BD5
:10479C0001D1202303E03B6EB3FA83F3DBB2013388
:1047AC0003F01F03092B94BF01230023DBB2002B62
:1047BC0079D03B681B68C3F31203002B07D13B680D
:1047CC001B689B0E01339B0603F0F84215E03B6817
:1047DC001B683B653B6D93FAA3F3FB64FB6C7B6539
:1047EC007B6D002B01D1202303E07B6DB3FA83F3A7
:1047FC00DBB201339B0603F0F8423B681B68C3F342
:10480C001203002B09D13B681B689B0E013303F08C
:10481C001F03012101FA03F317E03B681B687B645B
:10482C007B6C93FAA3F33B643B6CBB64BB6C002BBB
:10483C0001D1202303E0BB6CB3FA83F3DBB2013369
:10484C0003F01F03012101FA03F342EA03013B6861
:10485C001B68C3F31203002B0AD13B681B689B0E29
:10486C00013303F01F0213465B0013441B0518E0D1
:10487C003B681B68BB63BB6B93FAA3F37B637B6BDB
:10488C00FB63FB6B002B01D1202303E0FB6BB3FA22
:10489C0083F3DBB2013303F01F0213465B001344B6
:1048AC001B050B4381E03B681B68C3F31203002B11
:1048BC0007D13B681B689B0E01339B0603F0F84243
:1048CC0015E03B681B68FB62FB6A93FAA3F3BB62BF
:1048DC00BB6A3B633B6B002B01D1202303E03B6B9A
:1048EC00B3FA83F3DBB201339B0603F0F8423B6867
:1048FC001B68C3F31203002B09D13B681B689B0E8A
:10490C00013303F01F03012101FA03F317E03B68A5
:10491C001B683B623B6A93FAA3F3FB61FB697B6206
:10492C007B6A002B01D1202303E07B6AB3FA83F36B
:10493C00DBB2013303F01F03012101FA03F342EA56
:10494C0003013B681B68C3F31203002B0DD13B68BA
:10495C001B689B0E013303F01F0213465B001344CC
:10496C001E3B1B0543F000731EE03B681B687B611C
:10497C007B6993FAA3F33B613B69BB61BB69002B79
:10498C0004D1202306E000BF00007F40BB69B3FACE
:10499C0083F3DBB2013303F01F0213465B001344B5
:1049AC001E3B1B0543F000730B433A689268194693
:1049BC00FFF747F93B681A683D4B1340002B6CD04E
:1049CC003C48FFF789F8C7F8C4003B681B683A4AB3
:1049DC00934227D1D7F8C43003F40003002B21D124
:1049EC007B681B68354A934257D1D7F8C43043F4DF
:1049FC00000319462F48FFF75CF8314B1B689B09E5
:104A0C00304AA2FB03239B095A1C13465B00134438
:104A1C009B00FB6002E0FB68013BFB60FB68002B2A
:104A2C00F9D13AE03B681B68274A934213D1D7F877
:104A3C00C43003F08073002B0DD17B681B681F4AB8
:104A4C0093422AD1D7F8C43043F0807319461948E1
:104A5C00FFF72FF821E03B681B681C4A93421CD1DE
:104A6C00D7F8C43003F48003002B16D17B681B6885
:104A7C00124A934211D1D7F8C43043F4800319463B
:104A8C000C48FFF716F808E07B689B6D43F020029A
:104A9C007B689A65012387F8D7307B68002283F8FE
:104AAC00542097F8D7301846D837BD4680BD00BF84
:104ABC000000088000030450000052C7000004509E
:104ACC0020000020632D3E05000084CB01000080F7
:104ADC0080B584B000AF78600023BB607B681B6836
:104AEC001846FFF75FF90346002B69D17B681B68FA
:104AFC009A68364B1340002B0DD07B689B6D43F0AE
:104B0C0010027B689A657B68DB6D43F001027B6861
:104B1C00DA65012355E07B681B681846FFF72EF910
:104B2C002B48FEF7D9FF034603F40003002B13D0E8
:104B3C00284B1B689B09284AA2FB03239B095A1C80
:104B4C0013465B0013449B00BB6002E0BB68013B57
:104B5C00BB60BB68002BF9D1FEF768FFF86028E05A
:104B6C007B681B681846FFF71DF90346002B04D120
:104B7C007B681B681846FFF701F9FEF757FF0246E2
:104B8C00FB68D31A022B14D97B681B681B6803F0D3
:104B9C000103012B0DD07B689B6D43F010027B68E9
:104BAC009A657B68DB6D43F001027B68DA65012353
:104BBC0007E07B681B681B6803F00103012BCFD156
:104BCC00002318461037BD4680BD00BF3F00008053
:104BDC000003045020000020632D3E0580B485B0F6
:104BEC0000AF78607B6803F00703FB600C4BDB685D
:104BFC00BB60BA684FF6FF031340BB60FB681A0238
:104C0C00BB68134343F0BF6343F40033BB60044AF7
:104C1C00BB68D36000BF1437BD465DF8047B70479A
:104C2C0000ED00E080B400AF044BDB681B0A03F01E
:104C3C0007031846BD465DF8047B704700ED00E0A5
:104C4C0080B483B000AF0346FB7197F90730002B9B
:104C5C000BDBFB7903F01F02074997F907305B095F
:104C6C00012000FA02F241F8232000BF0C37BD46A8
:104C7C005DF8047B704700BF00E100E080B483B0B6
:104C8C0000AF03463960FB7197F90730002B0ADB44
:104C9C003B68DAB20C4997F907301201D2B20B44D7
:104CAC0083F800230AE03B68DAB20849FB7903F089
:104CBC000F03043B1201D2B20B441A7600BF0C371F
:104CCC00BD465DF8047B704700E100E000ED00E0BC
:104CDC0080B489B000AFF860B9607A60FB6803F00B
:104CEC000703FB61FB69C3F10703042B28BF0423F3
:104CFC00BB61FB690433062B02D9FB69033B00E063
:104D0C0000237B614FF0FF32BB6902FA03F3DA43F5
:104D1C00BB681A407B699A404FF0FF317B6901FAFE
:104D2C0003F3D9437B680B40134318462437BD4625
:104D3C005DF8047B7047000080B582B000AF7860EE
:104D4C007B68013BB3F1807F01D301230FE00A4A5A
:104D5C007B68013B53600F214FF0FF30FFF78EFF54
:104D6C00054B00229A60044B07221A600023184658
:104D7C000837BD4680BD00BF10E000E080B582B0B2
:104D8C0000AF78607868FFF729FF00BF0837BD4691
:104D9C0080BD80B586B000AF0346B9607A60FB7306
:104DAC0000237B61FFF73EFF78617A68B968786908
:104DBC00FFF78EFF024697F90F3011461846FFF7A2
:104DCC005DFF00BF1837BD4680BD80B582B000AF17
:104DDC000346FB7197F907301846FFF731FF00BF08
:104DEC000837BD4680BD80B582B000AF786078686A
:104DFC00FFF7A2FF034618460837BD4680BD80B5B5
:104E0C0084B000AF78600023FB737B6893F8253087
:104E1C00DBB2022B05D07B680422DA630123FB731F
:104E2C0047E07B681B681A687B681B6822F00E02DF
:104E3C001A607B681B681A687B681B6822F0010289
:104E4C001A607B689B6C1A687B689B6C22F480727E
:104E5C001A607B685B6C03F01C027B681B6C012185
:104E6C0001FA02F25A607B68DB6C7A68126D5A6048
:104E7C007B685B6D002B0CD07B685B6D1A687B6864
:104E8C005B6D22F480721A607B689B6D7A68D26DC0
:104E9C005A607B68012283F825207B68002283F806
:104EAC0024207B689B6B002B03D07B689B6B786802
:104EBC009847FB7B18461037BD4680BD80B582B045
:104ECC0000AF78607B68002B01D1012353E07B6835
:104EDC0093F85930DBB2002B06D17B68002283F8A3
:104EEC0058207868FEF726FB7B68022283F859204D
:104EFC007B681B681B6823F4E02323F040037A686B
:104F0C0051687A68D26911437A6812680B4313604E
:104F1C007B681B685B6B23F4837323F001037A6853
:104F2C0091687A68926911437A6812680B435363EB
:104F3C007B681B681B6C1B0C1B047A68D1687A6835
:104F4C0012680B4313647B681B685B6B23F4401182
:104F5C007B681B691A057B685B695B051A437B6878
:104F6C001B680A435A637B680022DA657B6801225E
:104F7C0083F85920002318460837BD4680BD80B5FC
:104F8C0086B002AFF860B9607A603B60FB6893F85A
:104F9C005830012B01D1022318E0FB68012283F861
:104FAC005820FB68022283F85920BB6900933B68A8
:104FBC007A68B968F86800F095F9FB681B681A689C
:104FCC00FB681B6842F001021A6000231846103778
:104FDC00BD4680BD80B586B000AF786039600023D7
:104FEC00FB607B681B681B6803F00103002B56D029
:104FFC00FEF71CFD78614BE07B681B685B68FB600F
:10500C00FB6803F02103002B23D0FB6803F0200383
:10501C00002B05D07B68DB6D43F002027B68DA6500
:10502C00FB6803F00103002B05D07B68DB6D43F0BC
:10503C0001027B68DA657B681B6821229A607B68B9
:10504C00042283F859207B68002283F8582001231E
:10505C00A5E03B68B3F1FF3F1AD0FEF7E7FC024630
:10506C007B69D31A3A689A4202D33B68002B0FD162
:10507C007B68DB6D43F020027B68DA657B6803227A
:10508C0083F859207B68002283F85820032386E09C
:10509C007B681B685B6803F00203002BACD07B6859
:1050AC001B68DB6903F020033B617B681B685B6A50
:1050BC0003F020033A6913433B613B69002B61D039
:1050CC00FEF7B4FC786156E07B681B685B68FB609C
:1050DC00FB6803F02903002B2ED0FB6803F00803B8
:1050EC00002B05D07B68DB6D43F004027B68DA652E
:1050FC00FB6803F02003002B05D07B68DB6D43F0CD
:10510C0002027B68DA65FB6803F00103002B05D013
:10511C007B68DB6D43F001027B68DA657B681B689A
:10512C0029229A607B68042283F859207B6800222C
:10513C0083F85820012332E03B68B3F1FF3F1AD0CB
:10514C00FEF774FC02467B69D31A3A689A4202D382
:10515C003B68002B0FD17B68DB6D43F020027B6832
:10516C00DA657B68032283F859207B68002283F878
:10517C005820032313E07B681B685B6803F0100363
:10518C00002BA1D07B681B6812229A607B680122DD
:10519C0083F859207B68002283F858200023184696
:1051AC001837BD4680BD000080B487B000AF786072
:1051BC0039607B685B68B3F5403F7B6893F8583087
:1051CC00012B01D1022384E07B68012283F8582053
:1051DC007B68022283F859203A6813465B0013441B
:1051EC00DB0028337A6813443B613B695A683B699E
:1051FC009B681B041A433B691B691B051A433B69DB
:10520C005B695B0513437B61354BFB603B695B68FA
:10521C000A2B03D03B695B68092B07D13B69DB6820
:10522C0003F07F437A6913437B6105E03B69DB68DC
:10523C001B067A6913437B613B68002B20D17B688A
:10524C001B685A6AFB68DB4302EA03017B681B6834
:10525C007A690A435A627B681B683A6912689A61D8
:10526C003B695B680A2B03D03B695B68092B27D130
:10527C003B69DA687B681B6822F07F429A621FE008
:10528C007B681B68DA69FB68DB4302EA03017B6815
:10529C001B687A690A43DA617B681B683A69126891
:1052AC001A613B695B680A2B03D03B695B68092B6D
:1052BC0006D13B69DA687B681B6822F07F421A6270
:1052CC007B68012283F859207B68002283F85820E0
:1052DC00002318461C37BD465DF8047B704700BFA1
:1052EC000F0033FF80B48BB000AFF860B9607A6008
:1052FC003B60FB681B685B6C03F040413B681A0425
:10530C003B6B1A43FB681B680A435A64FB681B68B7
:10531C007A68DA63FB685B68B3F5403F74D1BB68AD
:10532C0003F07F433B62BB6803F47F03FB61BB6804
:10533C0003F47F43BB61BB68DBB27B61FB689B689A
:10534C00002B08D1BA69FB691A433B6A13437A698B
:10535C0013437B6253E0FB689B68012B06D1BA694F
:10536C00FB6913437A6913437B6248E0FB689B68D3
:10537C00022B11D1FB69DB0CFB61BB699B0ABB6186
:10538C007B69DB087B61BB695A01FB69DB02134358
:10539C007A6913437B6232E0FB689B68032B17D15D
:1053AC003B6ADB0F3B62FB69DB0CFB61BB69DB0A15
:1053BC00BB617B69DB087B61BB695A01FB699B02A2
:1053CC001A433B6ADB0313437A6913437B6216E08F
:1053DC003B6A1B0F3B62FB691B0DFB61BB691B0B23
:1053EC00BB617B691B097B61BB691A01FB691B02F1
:1053FC001A433B6A1B0313437A6913437B62FB68B2
:10540C001B687A6A9A630DE0FB685B68B3F5802FC2
:10541C0004D1FB681B68BA685A6103E0FB681B681F
:10542C00BA68DA6000BF2C37BD465DF8047B704764
:10543C0080B485B000AFF860B9607A603B60BB683F
:10544C009A017B681A433B681B021A43BB691B0415
:10545C001A43FB68DA6600BF1437BD465DF8047B5F
:10546C00704780B586B000AFF860B9607A603B6079
:10547C00FEF7DCFA786109E0FEF7D8FA02467B69A0
:10548C00D31AB3F57A7F01D9032315E0FB681B68A7
:10549C005B6F03F00103002BEED0BB689A017B68B5
:1054AC001A433B681B0242EA03013B6A1A04FB687D
:1054BC001B680A43DA66002318461837BD4680BDC0
:1054CC0080B588B000AF786039607B68002B01D163
:1054DC0001230BE17B685B7CDBB2002B02D178688B
:1054EC00FEF748F87B6803225A7400233B617B6803
:1054FC001B68D3F830247B681B6842F08072C3F8B9
:10550C0030247B681B68D3F8303403F080733B6124
:10551C003B69FEF78BFAF86109E0FEF787FA024661
:10552C00FB69D31AB3F57A7F01D90323DEE07B68DC
:10553C001B68D3F80C3403F48053002BEDD07B683C
:10554C001B68D3F830347A68126823F45E3323F482
:10555C00FE73C2F830347B681B68D3F830143B6898
:10556C001B689A003B685B68DB021A433B689B68CC
:10557C001B041A437B681B680A43C3F830240023BE
:10558C00FB607B681B68D3F830247B681B6842F097
:10559C000102C3F830247B681B68D3F8303403F065
:1055AC000103FB60FB680120FEF74CFAFEF73EFAA4
:1055BC00F86109E0FEF73AFA0246FB69D31AB3F533
:1055CC007A7F01D9032391E07B681B68D3F80C34F4
:1055DC0003F48073002BEDD07B681B68D3F8A020FC
:1055EC007B681B6842F00602C3F8A0207B681B682E
:1055FC00D3F894207B681B6822F00302C3F8942034
:10560C007B681B68D3F894207B685B681A437B68C3
:10561C001B6842F00102C3F894207B681B68D3F826
:10562C00A4207B681B6822F00302C3F8A4207B68CB
:10563C001B68D3F8A4107B68DA687B681B680A4384
:10564C00C3F8A4207B681B689A687B681B6822F0EF
:10565C00FF029A607B681B6899687B689A687B6814
:10566C001B680A439A603B685B68002B02D03B685E
:10567C005B6800E00123BB61BB691E4A03FB02F2BD
:10568C003B689B6803F003039A403B681B684FF42C
:10569C00FA5101FB03F3B2FBF3F37B617B681B68EC
:1056AC00D3F818247B681B6822F03F02C3F8182437
:1056BC007B681B68D3F818147B681B687A690A43EB
:1056CC00C3F818247B681B680022C3F8C4207B68CD
:1056DC001B680022C3F8C8207B6800229A617B6893
:1056EC0000225A617B6801225A7400231846203725
:1056FC00BD4680BD00093D0080B483B000AF78602A
:10570C0039607B681B7C012B01D10223ABE07B68E9
:10571C0001221A747B681B680022C3F8C4207B68C2
:10572C001B680022C3F8C8207B683A689A613B6802
:10573C0003F00103002B0BD07B681B68D3F8C4303B
:10574C007A6812686FEA13436FEA0343C2F8C430F5
:10575C003B6803F00203002B09D07B681B68D3F86D
:10576C00C4207B681B6842F4F812C3F8C4203B6861
:10577C0003F00403002B09D07B681B68D3F8C82006
:10578C007B681B6842F00102C3F8C8203B6803F039
:10579C000803002B09D07B681B68D3F8C8207B68F2
:1057AC001B6842F00202C3F8C8203B6803F01003E8
:1057BC00002B09D07B681B68D3F8C8207B681B685A
:1057CC0042F00C02C3F8C8203B6803F02003002B06
:1057DC0009D07B681B68D3F8C8207B681B6842F033
:1057EC001002C3F8C8203B6803F04003002B09D01B
:1057FC007B681B68D3F8C8207B681B6842F02002CA
:10580C00C3F8C8203B6803F08003002B09D07B68E9
:10581C001B68D3F8C8207B681B6842F04002C3F8B1
:10582C00C8203B6803F48073002B09D07B681B688D
:10583C00D3F8C8207B681B6842F08002C3F8C820EC
:10584C003B6803F40073002B09D07B681B68D3F80A
:10585C00C8207B681B6842F4F852C3F8C8207B68E8
:10586C0000221A74002318460C37BD465DF8047BE1
:10587C00704780B483B000AF786039607B681B7C64
:10588C00012B01D1022316E07B6801221A747B687C
:10589C001B681A6B7B681B6822F003021A637B6817
:1058AC001B68196B7B681B683A680A431A637B6830
:1058BC0000221A74002318460C37BD465DF8047B91
:1058CC00704780B483B000AF786039607B681B7C14
:1058DC00012B01D10223F6E17B6801221A747B684B
:1058EC001B685A6B7B681B6822F001025A637B6849
:1058FC001B68D3F800247B681B6822F00102C3F8F4
:10590C0000247B681B689A6B7B681B6822F003027F
:10591C009A637B681B68996B3B68DA687B681B68C9
:10592C000A439A637B681B68DB6B7A68126823F402
:10593C007F5323F03F03D3637B681B68D96B3B68B1
:10594C001A697B681B680A43DA637B681B681B6CEB
:10595C007A68126823F4FF5323F01F0313647B68E7
:10596C001B68196C3B685A697B681B680A431A648C
:10597C007B681B685B6C7A68126823F4FF5323F016
:10598C001F0353647B681B68596C3B689A697B687E
:10599C001B680A435A647B681B68DA687B681B685F
:1059AC0022F00302DA607B681B68D9683B681A68CE
:1059BC007B681B680A43DA607B681B685A697B68E2
:1059CC001B6822F007025A617B681B6859693B68A7
:1059DC005A6A3B681B6A1A433B68DB691A437B684B
:1059EC001B680A435A617B681B681A697B681B68D1
:1059FC0022F00F021A617B681B6819693B685A68B0
:105A0C007B681B680A431A617B681B68D3F8002407
:105A1C007B681B6822F00E02C3F800247B681B68AD
:105A2C00D3F800143B685B685A007B681B680A4318
:105A3C00C3F800243B685B68032B10D17B681B68A0
:105A4C001A697B681B6822F480721A617B681B6878
:105A5C0019693B689A687B681B680A431A617B6802
:105A6C001B689B6C7A68126823F47F6323F00F0326
:105A7C0093647B681B68996C3B689A6A7B681B68AB
:105A8C000A439A647B681B68DB6C7A68126823F49F
:105A9C007F6323F00F03D3647B681B68D96C3B686E
:105AAC00DA6A7B681B680A43DA647B681B681B6DC7
:105ABC007A68126823F4FF4323F07F0313657B6835
:105ACC001B68196D3B681A6B7B681B680A431A6567
