:020000040800F2
:1000000000000A2011310008753000087B3000081C
:1000100081300008873000088D30000800000000A3
:100020000000000000000000000000009330000805
:10003000A130000800000000AF300008BD3000080B
:100040006131000861310008613100086131000848
:100050006131000861310008613100086131000838
:100060006131000861310008613100086131000828
:100070006131000861310008613100086131000818
:100080006131000861310008613100086131000808
:1000900061310008613100086131000861310008F8
:1000A00061310008613100086131000861310008E8
:1000B00061310008613100086131000861310008D8
:1000C00061310008613100086131000861310008C8
:1000D00061310008613100086131000861310008B8
:1000E000C930000861310008613100086131000841
:1000F0006131000861310008613100080000000032
:10010000613100086131000861310008D930000810
:100110006131000861310008613100086131000877
:100120006131000861310008613100086131000867
:100130006131000861310008613100086131000857
:100140006131000861310008613100086131000847
:100150006131000861310008613100086131000837
:100160006131000861310008613100086131000827
:1001700061310008613100086131000800000000B1
:100180006131000861310008613100086131000807
:10019000613100086131000800000000000000002B
:1001A000000000000000000061310008613100081B
:0C01B00061310008613100086131000875
:1001BC0010B5054C237833B9044B13B10448AFF395
:1001CC0000800123237010BD3000002000000000CF
:1001DC00488B000808B5034B1BB103490348AFF328
:1001EC00008008BD0000000034000020488B00088F
:1001FC0053B94AB9002908BF00281CBF4FF0FF3182
:10020C004FF0FF3000F074B9ADF1080C6DE904CE7D
:10021C0000F006F8DDF804E0DDE9022304B07047D5
:10022C002DE9F047089D04468E46002B4DD18A429D
:10023C00944669D9B2FA82F252B101FA02F3C2F1D0
:10024C00200120FA01F10CFA02FC41EA030E944061
:10025C004FEA1C48210CBEFBF8F61FFA8CF708FB82
:10026C0016E341EA034306FB07F199420AD91CEB5A
:10027C00030306F1FF3080F01F81994240F21C818C
:10028C00023E63445B1AA4B2B3FBF8F008FB1033D4
:10029C0044EA034400FB07F7A7420AD91CEB040409
:1002AC0000F1FF3380F00A81A74240F207816444D9
:1002BC00023840EA0640E41B00261DB1D44000235E
:1002CC00C5E900433146BDE8F0878B4209D9002DC2
:1002DC0000F0EF800026C5E9000130463146BDE84C
:1002EC00F087B3FA83F6002E4AD18B4202D38242B6
:1002FC0000F2F980841A61EB030301209E46002D65
:10030C00E0D0C5E9004EDDE702B9FFDEB2FA82F2B9
:10031C00002A40F09280A1EB0C014FEA1C471FFA17
:10032C008CFE0126200CB1FBF7F307FB131140EAFE
:10033C0001410EFB03F0884208D91CEB010103F1CB
:10034C00FF3802D2884200F2CB804346091AA4B28D
:10035C00B1FBF7F007FB101144EA01440EFB00FE61
:10036C00A64508D91CEB040400F1FF3102D2A645C6
:10037C0000F2BB800846A4EB0E0440EA03409CE765
:10038C00C6F12007B34022FA07FC4CEA030C20FA12
:10039C0007F401FA06F31C43F9404FEA1C4900FA32
:1003AC0006F3B1FBF9F8200C1FFA8CFE09FB1811AF
:1003BC0040EA014108FB0EF0884202FA06F20BD922
:1003CC001CEB010108F1FF3A80F08880884240F272
:1003DC008580A8F102086144091AA4B2B1FBF9F0B6
:1003EC0009FB101144EA014100FB0EFE8E4508D9B1
:1003FC001CEB010100F1FF346CD28E456AD9023836
:10040C00614440EA0840A0FB0294A1EB0E01A1421A
:10041C00C846A64656D353D05DB1B3EB080261EB88
:10042C000E0101FA07F722FA06F3F1401F43C5E962
:10043C00007100263146BDE8F087C2F12003D84098
:10044C000CFA02FC21FA03F3914001434FEA1C47DA
:10045C001FFA8CFEB3FBF7F007FB10360B0C43EACC
:10046C00064300FB0EF69E4204FA02F408D91CEB7C
:10047C00030300F1FF382FD29E422DD9023863447A
:10048C009B1B89B2B3FBF7F607FB163341EA03411A
:10049C0006FB0EF38B4208D91CEB010106F1FF3869
:1004AC0016D28B4214D9023E6144C91A46EA004660
:1004BC0038E72E46284605E70646E3E61846F8E6F2
:1004CC004B45A9D2B9EB020864EB0C0E0138A3E73B
:1004DC004646EAE7204694E74046D1E7D0467BE71C
:1004EC00023B614432E7304609E76444023842E794
:1004FC00704700BF80B58AB000AF02F02CFE00F050
:10050C0035FA00F0AFFC00F07FFA00F069FB00F068
:10051C00E7FB00F023FC00F059FC00F079FD4FF4F0
:10052C007A7307229649974807F034FC964B0322BE
:10053C001A70964B00221A7001F048FC01F0DCFD99
:10054C0000237B620DE07B6A5B00914A0021D15451
:10055C007B6A5B0001338E4A0021D1547B6A0133E4
:10056C007B627B6A372BEEDD894B002283F86D2092
:10057C0001F090FE01220221864804F043F801228A
:10058C004FF48051844804F03DF80222834984489A
:10059C0006F0A4FD00233B6207E0824A3B6A134449
:1005AC00FF221A703B6A01333B627F4B1B687F4A08
:1005BC00126803FB02F213465B001A443B6A9A4230
:1005CC00EBD8724B1B78002B40F002816E4B1B78E2
:1005DC00002B09D1764B1B781946764801F0B8FFF1
:1005EC00744801F03FFB43E1674B1B78012B43D16F
:1005FC000023FB77704B1B78BB612BE0052002F0CE
:10060C001FFE00BF4FF480714FF0904003F0E2FFEB
:10061C000346012BF6D05D4B1B78002B07D15A4BB0
:10062C001B78012B03D1654B1B78012B02D10123C5
:10063C00FB7715E0BB69DBB219465E4801F088FF19
:10064C005C4801F00FFBBB69DAB2594B1A70BB69FD
:10065C000133BB615A4B1B781A46BB699342CDDD03
:10066C00FB7F002B03D1524B00221A70C2E7FB7F99
:10067C00012B00F0FA80BDE7434B1B78032B40F0B5
:10068C00F7800023FB750023BB754E4B1B78002BAA
:10069C0042D001F0FFFD3E4B93F864204A4B1A7098
:1006AC00494B1B781A4613469B0013445B003B6175
:1006BC000023FB600EE0364A3B6913441978434A29
:1006CC00FB6813440A461A70FB680133FB603B69F4
:1006DC0001333B613C4B1B785A1C13469B00134463
:1006EC005B001A463B699342E5DB364B00221A70DD
:1006FC000023BB750023BB600BE0BB685B00334A77
:10070C00D35CFF2B02D0BB7D0133BB75BB680133BF
:10071C00BB60BB68042BF0DD00237B6026E000BFD0
:10072C004FF480714FF0904003F054FF0346012BBF
:10073C00F6D0264A7B6813441B7819461D4801F0F5
:10074C0007FF1C4801F08EFA104B1B78002B07D1C9
:10075C000D4B1B78032B03D11A4B1B78012B02D1A9
:10076C000123FB7507E07B6802337B60BB7D5B007C
:10077C007A689A42D3DBFB7D012B78D0CCE700BFA3
:10078C00608B0008D8010020700204207102042044
:10079C007C0207200008004800140048780207205B
:1007AC0074010020740204200000002004000020CA
:1007BC0074020720700203206C0200207A020720CA
:1007CC000A000020200000201F000020EC0207205F
:1007DC00564B1B78012B40D1554B1B78022B38D133
:1007EC00052002F02DFD00BF4FF480714FF09040BA
:1007FC0003F0F0FE0346012BF6D04C4B1B78012B7B
:10080C0036D14B4B1B78022B32D14A4B1B78012B28
:10081C002ED0494801F026FA052002F011FD00BF48
:10082C004FF480714FF0904003F0D4FE0346012B3F
:10083C00F6D03E4B1B78012B1AD13D4B1B78022B6B
:10084C0016D13C4B1B78012B12D03C4801F00AFA14
:10085C00C6E7394801F006FA0AE0344B1B78022B44
:10086C0006D1364801F0FEF902E000BF00E000BFFF
:10087C00304B1B78012B55D1314B1B789BB21B0293
:10088C009AB2304B1B789BB213447B807B882E4AE8
:10089C00A2FB03235B089AB22C4B1A807B882A4A52
:1008AC00A2FB03235B089AB2294B1A80274B1A88A8
:1008BC00274B1B8813449BB27A88D31A9AB2254BC8
:1008CC001A80254B1B789BB21B029AB2234B1B78C8
:1008DC009BB213443B803B881B4AA2FB03235B085F
:1008EC009AB21F4B1A803B88174AA2FB03235B0862
:1008FC009AB21C4B1A801A4B1A881A4B1B88134439
:10090C009BB23A88D31A9AB2174B1A8001F0CCFFDB
:10091C0002F0D8F800F07CFB0A2002F091FC054BA9
:10092C0000221A700A2002F08BFC4AE671020420A5
:10093C00700204207A02072070020120700202204B
:10094C000C0000200D000020ABAAAAAA1200002067
:10095C0014000020100000200E0000200F000020CA
:10096C00180000201A0000201600002080B596B058
:10097C0000AF07F1140344220021184608F0D6F802
:10098C003B4600221A605A609A60DA601A610020B5
:10099C0004F02EF90346002B01D002F0C7F9012315
:1009AC007B614FF48033BB610223FB6303233B6405
:1009BC0001237B641E23BB640223FB6402233B657F
:1009CC0002237B6507F11403184604F0C5F90346AE
:1009DC00002B01D002F0AAF90F233B6003237B60AC
:1009EC000023BB600023FB6000233B613B460521D9
:1009FC00184604F0CBFD0346002B01D002F096F90B
:100A0C0000BF5837BD4680BD80B5AEB000AF07F112
:100A1C00AC0300221A605A609A6007F18803242202
:100A2C000021184608F082F807F1700300221A60C2
:100A3C005A609A60DA601A615A613B1D6C2200217F
:100A4C00184608F073F8644B644A1A60624B002233
:100A5C005A60614B02229A605F4B0022DA603223AB
:100A6C00C7F8AC300123C7F8B0300123C7F8B43055
:100A7C0007F1AC031946584802F0BEFD0346002BA3
:100A8C0001D002F053F90123C7F888300023C7F8CE
:100A9C008C300023C7F890300023C7F89430002323
:100AAC00C7F898300023C7F89C300023C7F8A03053
:100ABC000023C7F8A4300023C7F8A83007F1880337
:100ACC001946454803F00BFA0346002B01D002F0FF
:100ADC002DF913233B670F237B670923BB670A237D
:100AEC00FB670023C7F880300023C7F8843007F178
:100AFC0070031946384803F088F90346002B01D0DF
:100B0C0002F014F942F21071334803F0A4FB0346CF
:100B1C00002B01D002F00AF900212F4802F088FEC8
:100B2C000346002B01D002F001F900237B60052362
:100B3C00BB600023FB6001233B6178237B610123B5
:100B4C00BB610023FB6100233B6200237B6200231B
:100B5C00BB62B823FB62B4233B634FF426737B6305
:100B6C000923BB630823FB6308233B649C237B643E
:100B7C004FF40043BB641C23FB6450233B654FF4D0
:100B8C0000537B654FF48053BB654FF40063FB65EA
:100B9C004FF480633B664FF400737B664FF48073B5
:100BAC00BB660023FB663B1D19460B4802F025FF74
:100BBC000346002B01D002F0B9F80021064802F0E0
:100BCC00F4FE0346002B01D002F0B0F800F02CFC30
:100BDC0000BFB837BD4680BD4C000020006C014002
:100BEC0080B58EB000AF3B1D34220021184607F0B3
:100BFC009DFF384B384A1A60364B4FF000425A6012
:100C0C00344B4FF080429A60324B0022DA60314B09
:100C1C0000221A612F4BB7225A612E4B08229A617F
:100C2C002C4B40F26B12DA612A4B10221A62294BC0
:100C3C0040F2E3125A62274BAC229A62254B40F2E7
:100C4C009722DA62234BB4221A63224BFF2283F8D9
:100C5C003420204BFF2283F835201E4BFF2283F8D3
:100C6C0036201C4803F0FEFC0346002B01D002F09A
:100C7C005DF800237B607823BB600023FB609C2322
:100C8C003B6101237B61FF23BB610023FB614FF4BC
:100C9C0080633B6205237B62104BBB627823FB6253
:100CAC009C233B63FF2387F83430FF2387F83530D0
:100CBC00FF2387F836303B1D00221946054803F008
:100CCC00A1FD0346002B01D002F030F800BF3837ED
:100CDC00BD4680BD680000200068014074020420FD
:100CEC0080B500AF1B4B1C4A1A601A4B4FF4827232
:100CFC005A60184B00229A60164B4FF4E062DA608F
:100D0C00144B00221A61134B00225A61114B4FF401
:100D1C0000729A610F4B0822DA610E4B00221A62A4
:100D2C000C4B00225A620B4B00229A62094B072291
:100D3C00DA62084B00221A63064B08225A630548F4
:100D4C0005F05AFC0346002B01D001F0EFFF00BF69
:100D5C0080BD00BF100100200038004080B500AFFE
:100D6C00184B194A1A60174B00225A60154B002277
:100D7C009A60144B4FF4E062DA60124B00221A6155
:100D8C00104B00225A610F4B00229A610D4B00222E
:100D9C001A620C4B00225A620A4B00229A62094BCF
:100DAC000722DA62074B00221A63064B00225A63B1
:100DBC00044805F021FC0346002B01D001F0B6FFDE
:100DCC0000BF80BD74010020003C004080B500AF26
:100DDC00224B234A1A60214B4FF4E1325A601F4BCD
:100DEC0000229A601D4B0022DA601C4B00221A6113
:100DFC001A4B0C225A61194B00229A61174B002294
:100E0C00DA61164B00221A62144B00225A62134B01
:100E1C0000229A62114806F06DFF0346002B01D0A8
:100E2C0001F084FF00210D4807F092FD0346002BD2
:100E3C0001D001F07BFF0021084807F0C7FD0346F5
:100E4C00002B01D001F072FF044807F048FD034667
:100E5C00002B01D001F06AFF00BF80BDD80100203B
:100E6C00004C004080B58CB000AF07F11C03002291
:100E7C001A605A609A60DA601A61604BDB6C5F4AE8
:100E8C0043F04003D3645D4BDB6C03F04003BB6168
:100E9C00BB6903F051FF594BDB6C584A43F0040318
:100EAC00D364564BDB6C03F004037B617B69534BBF
:100EBC00DB6C524A43F00203D364504BDB6C03F0FF
:100ECC0002033B613B694D4BDB6C4C4A43F008031E
:100EDC00D3644A4BDB6C03F00803FB60FB68474BA5
:100EEC00DB6C464A43F00103D364444BDB6C03F0E8
:100EFC000103BB60BB68414BDB6C404A43F0800391
:100F0C00D3643E4BDB6C03F080037B607B683B4B14
:100F1C00DB6C3A4A43F02003D364384BDB6C03F0B0
:100F2C0020033B603B6800224FF40071344803F00F
:100F3C0069FB01224FF48251314803F063FB00221C
:100F4C000221304803F05EFB00224FF480512E4802
:100F5C0003F058FB4FF49253FB6101233B620023D7
:100F6C007B620323BB6207F11C031946244803F080
:100F7C009FF94FF48073FB6100233B6200237B627B
:100F8C0007F11C0319464FF0904003F091F94FF410
:100F9C008053FB614FF488133B6202237B6207F1A1
:100FAC001C031946194803F083F90223FB61012342
:100FBC003B6200237B620323BB6207F11C031946CF
:100FCC00104803F075F94FF48053FB6101233B6229
:100FDC0000237B620323BB6207F11C0319460A48FA
:100FEC0003F066F900220321282002F028FA2820B9
:100FFC0002F041FA00BF3037BD4680BD0010024000
:10100C00000400480008004800140048000C004888
:10101C0090B5AFB002AFC44803F027F80346002BDD
:10102C0001D001F083FEC3230093F023152200218D
:10103C00BD4803F056F896230093F02315220021A7
:10104C00B94803F04EF8B94A07F1A80392E8030037
:10105C0018600433198002330A0C1A7007F1A803C4
:10106C000193E7230093082339220021AE4803F0B3
:10107C005AF8AF4A07F1A4031268114619800233DB
:10108C00120C1A7007F1A4030193A42300930423F8
:10109C0039220021A44803F046F8A64BC7F8A0302B
:1010AC0007F1A0030193C3230093052339220021E8
:1010BC009D4803F038F89F4BC7F89C3007F19C0310
:1010CC000193C4230093052339220021964803F091
:1010DC002AF8994A07F1900307CA83E8070007F139
:1010EC0090030193E52300930D23392200218E48B0
:1010FC0003F019F8904A07F1840307CA83E8070044
:10110C0007F184030193E62300930D233922002178
:10111C00854803F008F8894A07F17C0392E803003C
:10112C0018600433198002330A0C1A7007F17C031F
:10113C000193EC2300930823392200217A4802F012
:10114C00F2FF7F4BBB6707F178030193C123009338
:10115C00052339220021744802F0E5FF784B7B67A8
:10116C0007F174030193C223009305233922002154
:10117C006D4802F0D8FF0823009336231522002176
:10118C00694802F0AEFF072300933A231522002191
:10119C00654802F0A6FFBE230093C523152200214B
:1011AC00614802F09EFF674B07F164040FCB07C444
:1011BC00238007F164030193E02300930F2339226A
:1011CC000021594802F0AFFF5F4B07F154040FCBDD
:1011DC0007C4238007F154030193E12300930F23E9
:1011EC0039220021504802F09EFF10230093B223B5
:1011FC00152200214C4802F074FF01230093B32305
:10120C0015220021484802F06CFF01230093B423FF
:10121C0015220021444802F064FF40F64D63A7F804
:10122C00503007F150030193B62300930323392266
:10123C0000213D4802F077FF4FF05423FB6407F187
:10124C004C030193B5230093052339220021364822
:10125C0002F069FF3D4A07F1400307CA03C31A7045
:10126C0007F140030193A52300930A23392200219F
:10127C002D4802F058FF354A07F1340307CA03C35F
:10128C001A7007F134030193A62300930A23392221
:10129C000021254802F047FF2D4A07F12C0392E864
:1012AC00030018600433198002330A0C1A7007F11A
:1012BC002C030193BA2300930823392200211A48E6
:1012CC0002F031FF234A07F1240392E8030083E87C
:1012DC00030007F124030193BB2300930923392254
:1012EC000021114802F01FFF1A4A07F11C0392E873
:1012FC00030083E8030007F11C030193BC23009354
:10130C00092339220021084802F00DFF124A07F187
:10131C00100307CA03C31A800233120C1A7007F1A8
:10132C00100301931AE000BF4C000020688B0008EA
:10133C00708B000842052403748B0008808B000816
:10134C0088050F18888B0008988B0008A88B00085C
:10135C00B48B0008BC8B0008C48B0008BD23009321
:10136C000C23392200212D4802F0DDFEC32300930B
:10137C00ED2315220021294802F0B3FE284A07F17B
:10138C000C031268114619800233120C1A7007F103
:10139C000C030193E42300930423392200211F48FA
:1013AC0002F0C1FE1F4A3B4607CA03C31A703B46F4
:1013BC000193CC2300930A2339220021174802F011
:1013CC00B2FE00230093352315220021134802F0AE
:1013DC0088FE002001F034FF002300931123052226
:1013EC0000210E4802F07DFE782001F029FF002339
:1013FC000093292305220021084802F072FE782070
:10140C0001F01EFF00230093352315220021034811
:10141C0002F067FE00BFB437BD4690BD4C00002003
:10142C00D08B0008D48B000880B500AF002240217F
:10143C00074803F0E7F8142001F002FF01224021D5
:10144C00034803F0DFF8782001F0FAFE00BF80BDFE
:10145C000004004880B584B000AF0346FB71002344
:10146C003B7300233B7207F10C014FF47A7301229A
:10147C00794805F0D9FA07F108014FF47A73012283
:10148C00754805F0D1FAFB79012B40F0DC803B7BF1
:10149C00212B00F2DD8001A252F823F03115000857
:1014AC0041150008511500085F1500086D1500085E
:1014BC007B150008891500089115000857160008BF
:1014CC00571600085716000899150008A1150008B2
:1014DC00A9150008B1150008B9150008C1150008B8
:1014EC00571600085716000857160008571600081C
:1014FC005716000857160008571600082316000840
:10150C002B1600085D1600085D1600085D16000815
:10151C005D1600085D1600085D1600085D160008D3
:10152C00391600083B7A1A464C4B1A604C4B012278
:10153C001A708DE03B7A1A464A4B1A60484B0122CE
:10154C001A7085E03A7A484B1A70454B01221A7092
:10155C007EE03A7A454B1A70414B01221A7077E0C3
:10156C003A7A434B1A703E4B01221A7070E03A7A69
:10157C00404B1A703A4B01221A7069E03A7A3E4B92
:10158C001A7065E03A7A3D4B1A7061E03A7A3C4B3E
:10159C001A705DE03A7A3B4B1A7059E03A7A3A4B42
:1015AC001A7055E03A7A394B1A7051E03A7A384B46
:1015BC001A704DE03B7A03F00303032B0ED0032B80
:1015CC0010DC002B02D0012B04D00BE0314B01229C
:1015DC001A7007E02F4B02221A7003E02D4B0022E9
:1015EC001A7000BF3B7A03F00C03082B0ED0082BAB
:1015FC002DDC002B02D0042B04D028E0264B00223B
:10160C001A7007E0244B02221A7003E0224B0122CD
:10161C001A7000BF1BE03A7A204B1A7018E01D4B71
:10162C0001221A701C4B02221A7011E03A7A1C4BE0
:10163C0083F864203A7A1B4B1A7000F05DFD1A4B4C
:10164C0001221A7004E000BF02E000BF00E000BFFE
:10165C0000BF1037BD4680BD740100200000002083
:10166C007A020720040000200C0000200D0000204E
:10167C000E0000200F0000200800002009000020B0
:10168C001C0000201D0000206C02002074020720AA
:10169C000A00002071020420700204200B000020BC
:1016AC007C0207201F0000202000002080B584B0A1
:1016BC0000AF78607B68AE4A934201D10223FB6095
:1016CC007B68AC4A934201D10323BB60AA4B1B78C5
:1016DC0003F0C003C02B00F0E981C02B00F3A08203
:1016EC00802B00F0D781802B00F39A82002B03D043
:1016FC00402B00F0718193E29F4B1B7803F0380371
:10170C00382B00F2868201A252F823F0FD17000854
:10171C001F1C00081F1C00081F1C00081F1C0008B1
:10172C001F1C00081F1C00081F1C0008AF18000815
:10173C001F1C00081F1C00081F1C00081F1C000891
:10174C001F1C00081F1C00081F1C00086119000842
:10175C001F1C00081F1C00081F1C00081F1C000871
:10176C001F1C00081F1C00081F1C0008E1190008A2
:10177C001F1C00081F1C00081F1C00081F1C000851
:10178C001F1C00081F1C00081F1C0008E119000882
:10179C001F1C00081F1C00081F1C00081F1C000831
:1017AC001F1C00081F1C00081F1C0008E119000862
:1017BC001F1C00081F1C00081F1C00081F1C000811
:1017CC001F1C00081F1C00081F1C0008E119000842
:1017DC001F1C00081F1C00081F1C00081F1C0008F1
:1017EC001F1C00081F1C00081F1C0008E119000822
:1017FC00614B1B7803F00703042B3ED0042B4CDC0D
:10180C00002B02D0012B14D047E05C4B1B78012B32
:10181C0045D15B4B1B689AB25A4B1B689BB212FBAF
:10182C0003F39AB24FF47A735749584805F0FCF811
:10183C0035E0524B1B78022B0FD1514B1B689AB2DF
:10184C00504B1B689BB212FB03F39AB24FF47A73A2
:10185C004D494E4805F0E8F822E0494B1B689AB216
:10186C00484B1B689BB212FB03F39AB24FF47A738A
:10187C004749464805F0D8F812E0414B1B689AB22C
:10188C00404B1B689BB212FB03F39AB24FF47A7372
:10189C003D493E4805F0C8F802E000BF9BE000BFA0
:1018AC0099E0354B1B7803F00703042B3ED0042B37
:1018BC004CDC002B02D0012B14D047E02F4B1B78B3
:1018CC00012B45D12E4B1B689AB22E4B1B689BB239
:1018DC0012FB03F39AB24FF47A732E492B4805F09E
:1018EC00A3F835E0254B1B78022B0FD1244B1B683A
:1018FC009AB2244B1B689BB212FB03F39AB24FF4BF
:10190C007A732449214805F08FF822E01C4B1B68A0
:10191C009AB21C4B1B689BB212FB03F39AB24FF4A6
:10192C007A731B49194805F07FF812E0144B1B68B9
:10193C009AB2144B1B689BB212FB03F39AB24FF48E
:10194C007A731449114805F06FF802E000BF42E0C9
:10195C0000BF40E0084B1B7803F00703042B33D087
:10196C00042B35DC002B17D0012B21D030E000BF2D
:10197C0000380040003C0040780207201E00002088
:10198C0000000020040000207002012074010020DF
:10199C007002002070020220AC4B1B78012B03D18B
:1019AC000120FFF757FD14E00020FFF753FD10E076
:1019BC00A64B1B78022B03D10120FFF74BFD08E04F
:1019CC000020FFF747FD04E00120FFF743FD00E096
:1019DC0000BF00E000BF1CE19D4B1B7803F03803F7
:1019EC00282B00F2188101A252F823F09D1A00084E
:1019FC00231C0008231C0008231C0008231C0008BF
:101A0C00231C0008231C0008231C00089D1A000836
:101A1C00231C0008231C0008231C0008231C00089E
:101A2C00231C0008231C0008231C00089D1A000816
:101A3C00231C0008231C0008231C0008231C00087E
:101A4C00231C0008231C0008231C00089D1A0008F6
:101A5C00231C0008231C0008231C0008231C00085E
:101A6C00231C0008231C0008231C00089D1A0008D6
:101A7C00231C0008231C0008231C0008231C00083E
:101A8C00231C0008231C0008231C00089D1A0008B6
:101A9C0000BFC0E06E4B1B7803F03803002B03D063
:101AAC00202B40F0BA8000E000BFB6E0684B1B78FA
:101ABC0003F03803202B00F0AA80202B00F3AF801A
:101ACC00002B02D0082B78D0A9E0614B1B7803F0D7
:101ADC000703042B4CD0042B69DC002B02D0012B08
:101AEC0023D064E05B4B1B689AB25B4B1B689BB2C8
:101AFC0012FB03F39AB24FF47A735849584804F026
:101B0C0093FF524B1B78012B53D1514B5B78013B0C
:101B1C00DBB2184600F0B2FD4D4B5B78013BDBB2FB
:101B2C0019464E4800F044FC43E04A4B1B689AB2FD
:101B3C00494B1B689BB212FB03F39AB24FF47A73B6
:101B4C004649474804F070FF404B1B78022B32D1BA
:101B5C003F4B5B78013BDBB2184600F08FFD3C4BF2
:101B6C005B78013BDBB219463C4800F021FC22E0DB
:101B7C00384B1B689AB2384B1B689BB212FB03F3B1
:101B8C009AB24FF47A733549354804F04DFF304B17
:101B9C005B78013BDBB2184600F070FD2C4B5B7898
:101BAC00013BDBB219462D4800F002FC04E000BFFB
:101BBC002EE000BF2CE000BF2AE0254B1B7803F081
:101BCC000703042B14D0042B1DDC002B01D0012B9C
:101BDC001CE01E4B1B78012B17D100F025FE1C4B73
:101BEC005B78013BDBB219461C4800F0B1FC0CE001
:101BFC0000F01AFE164B5B78013BDBB21946174816
:101C0C0000F0A6FC02E000BF02E000BF00E000BF55
:101C1C0005E000BF04E000BF02E000BF00E000BF31
:101C2C000B4B1B7803F00703002B02D0012B02D0C7
:101C3C0002E000BF00E000BF02220549084805F0A1
:101C4C004DFA00BF1037BD4680BD00BF1E000020FE
:101C5C007802072000000020040000207002002001
:101C6C007401002080B48BB000AF786000237B62DD
:101C7C00354B1B781AB2354B1B781B021BB2134326
:101C8C001BB27B8100233B620DE07A893B6A42FAEE
:101C9C0003F303F00103002B02D07B6A01337B6258
:101CAC003B6A01333B623B6A0B2BEEDD0023FB618D
:101CBC000023BB6100237B6100233B6134E00023E4
:101CCC00BB6100237B610023FB6022E07A89FB6807
:101CDC0042FA03F303F00103002B14D0FA69BB6939
:101CEC001344FB613A697B6913441A467B681344BD
:101CFC001978174AFB6913440A461A707B69013339
:101D0C007B610023BB61BB690133BB61FB680133A1
:101D1C00FB60FB680B2BD9DDFA69BB691344FB61D3
:101D2C003A697B6A13443B610A4B1B680A4A126886
:101D3C0003FB02F23B699A42C1D800BF00BF2C37AB
:101D4C00BD465DF8047B70471C0000201D00002080
:101D5C0074020420000000200400002080B582B032
:101D6C0000AF00233B7100224FF480510E4802F06B
:101D7C0049FC05233B7039464FF47A7301220B481A
:101D8C0004F0DDFC391D4FF47A730122074804F08E
:101D9C004BFE01224FF48051034802F033FC3B7997
:101DAC0018460837BD4680BD0004004810010020CD
:101DBC0080B500AF00BFFFF7D1FF034603F001036E
:101DCC00012BF8D000BF00BF80BD000080B483B0F1
:101DDC0000AF00237B600FE07B685B007A68D1B2B8
:101DEC00C44AD1547B685B0001337A68D1B2C14AD2
:101DFC00D1547B6801337B607B686E2BECDDBD4B73
:101E0C00002283F86420BB4B00221A70B94B0122CC
:101E1C005A70B84B01229A70B64B0122DA70B54B4E
:101E2C00FF221A71B34B01225A71B24BFF229A71E5
:101E3C00B04B0122DA71AF4BFF221A72AD4B01226B
:101E4C005A72AC4B00229A72AA4B0422DA72A94B3A
:101E5C0001221A73A74B04225A73A64BFF229A73C2
:101E6C00A44B0122DA73A34BFF221A74A14B01225B
:101E7C005A74A04BFF229A749E4B0122DA749D4B2C
:101E8C0002221A759B4B01225A759A4B03229A75A2
:101E9C00984B0122DA75974B04221A76954B012246
:101EAC005A76944B05229A76924B0122DA76914B14
:101EBC00FF221A778F4B01225A778E4B02229A7788
:101ECC008C4B0422DA778B4B032283F82020894B2E
:101EDC00042283F82120874B042283F82220854B8F
:101EEC00042283F82320834B052283F82420814B82
:101EFC00042283F825207F4BFF2283F826207D4B7C
:101F0C00012283F827207B4B062283F82820794B6B
:101F1C00012283F82920774B072283F82A20754B5E
:101F2C00012283F82B20734B082283F82C20714B51
:101F3C00012283F82D206F4B092283F82E206D4B44
:101F4C00012283F82F206B4B0A2283F83020694B37
:101F5C00012283F83120674B062283F83220654B2F
:101F6C00042283F83320634B072283F83420614B1F
:101F7C00042283F835205F4B082283F836205D4B12
:101F8C00042283F837205B4B092283F83820594B05
:101F9C00042283F83920574B0A2283F83A20554BF8
:101FAC00042283F83B20534B0B2283F83C20514BEB
:101FBC00012283F83D204F4B0C2283F83E204D4BE1
:101FCC00012283F83F204B4BFF2283F84020494BE2
:101FDC00012283F84120474BFF2283F84220454BD6
:101FEC00012283F84320434BFF2283F84420414BCA
:101FFC00012283F845203F4B0B2283F846203D4BB2
:10200C00042283F847203B4B0C2283F84820394BA1
:10201C00042283F84920374BFF2283F84A20354BA2
:10202C00012283F84B20334BFF2283F84C20314B99
:10203C00012283F84D202F4BFF2283F84E202D4B8D
:10204C00012283F84F202B4B0D2283F85020294B73
:10205C00012283F85120274B0E2283F85220254B66
:10206C00012283F85320234BFF2283F85420214B69
:10207C00012283F855201F4BFF2283F856201D4B5D
:10208C00012283F857201B4BFF2283F85820194B51
:10209C00012283F85920174B0D2283F85A20154B37
:1020AC00042283F85B20134B0E2283F85C20114B27
:1020BC00042283F85D200F4BFF2283F85E200D4B2A
:1020CC00012283F85F200B4BFF2283F86020094B21
:1020DC00012283F86120074BFF2283F86220054B15
:1020EC00012283F8632000BF0C37BD465DF8047BEA
:1020FC00704700BF7C02072080B58CB000AF002376
:10210C00FB62604B1B78002B02D10423FB620CE0BA
:10211C005C4B1B78012B02D10223FB6205E0594B6F
:10212C001B78022B01D10123FB621F233B623B6A0C
:10213C00DBB2184600F0A2FA3A6AFB6A92FBF3F3A0
:10214C00FB613B6AFA6A93FBF2F2F96A01FB02F259
:10215C009B1ABB610023BB624FF48072FB6A92FB3B
:10216C00F3F3BA6902FB03F37B6276E000224FF4CF
:10217C008051454802F046FA06233B7507F11401DD
:10218C004FF47A730122414804F0D9FA01224FF43A
:10219C0080513D4802F036FA0A2000F067FD00221B
:1021AC004FF48051384802F02DFA02233B7407F1AA
:1021BC0010014FF47A730122344804F0C0FAFB6921
:1021CC00DBB23B7307F10C014FF47A7301222F48F9
:1021DC0004F0B5FA7B6ADBB23B7207F108014FF4ED
:1021EC007A730122294804F0AAFA00233B71391DA5
:1021FC004FF47A730122254804F0A1FA4FF47A7354
:10220C006E222349214804F09AFA01224FF480519E
:10221C001D4802F0F7F90A2000F028FD00224FF4C7
:10222C008051194802F0EEF904233B7039464FF403
:10223C007A730122154804F082FA01224FF480517E
:10224C00114802F0DFF94FF47A7000F00FFDBB6A11
:10225C000133BB627B6A01337B62BB6901334FF490
:10226C008071FA6A91FBF2F202FB03F31A467B6A65
:10227C009342FFF47BAFFFF79BFD00BF3037BD46A9
:10228C0080BD00BF0B00002000040048100100209E
:10229C007C02072080B58AB000AF00237B62404BE4
:1022AC001B78002B02D104237B620CE03C4B1B7887
:1022BC00012B02D102237B6205E0394B1B78022BE8
:1022CC0001D101237B621F23FB61FA697B6A92FBBC
:1022DC00F3F3BB61FB697A6A93FBF2F2796A01FB57
:1022EC0002F29B1A7B6100233B614FF480727B6A84
:1022FC0092FBF3F37A6902FB03F33B623DE00022AD
:10230C004FF48051274802F07DF903233B7307F10A
:10231C000C014FF47A730122234804F010FABB69C4
:10232C00DBB23B7207F108014FF47A7301221E48AD
:10233C0004F005FA3B6ADBB23B71391D4FF47A733A
:10234C000122194804F0FBF900233B7039464FF485
:10235C007A730122144804F0F2F94FF47A736E2266
:10236C001249114804F060FB01224FF480510D48D2
:10237C0002F048F93B6A01333B627B6901334FF44D
:10238C0080717A6A91FBF2F202FB03F31A463B6A04
:10239C009342B4D300BF00BF2837BD4680BD00BFF9
:1023AC000B00002000040048100100207C020720D4
:1023BC0080B58EB000AF78600B46FB7000237B635A
:1023CC00604B1B78002B02D104237B630CE05D4B2C
:1023DC001B78012B02D102237B6305E0594B1B7840
:1023EC00022B01D101237B63FA787B6B92FBF3F315
:1023FC00BB62FB787A6B93FBF2F2796B01FB02F216
:10240C009B1A7B6200233B634FF480727B6B92FBC5
:10241C00F3F37A6A02FB03F3FB627EE000224FF4D3
:10242C008051494802F0EEF8062387F8203007F176
:10243C0020014FF47A730122444804F080F9012200
:10244C004FF48051404802F0DDF80A2000F00EFCF9
:10245C0000224FF480513C4802F0D4F802233B7721
:10246C0007F11C014FF47A730122384804F067F924
:10247C00BB6ADBB23B7607F118014FF47A73012289
:10248C00324804F05CF9FB6ADBB23B7507F11401CE
:10249C004FF47A7301222D4804F051F900233B7458
:1024AC0007F110014FF47A730122284804F047F920
:1024BC003B6B1B021A467B6899184FF47A734FF4E6
:1024CC008072224804F03BF901224FF480511E48DF
:1024DC0002F098F80A2000F0C9FB00224FF480515A
:1024EC00194802F08FF804233B7307F10C014FF4E9
:1024FC007A730122154804F022F901224FF480511D
:10250C00114802F07FF84FF47A7000F0AFFB3B6B90
:10251C0001333B63FB6A0133FB627B6A01334FF48B
:10252C0080717A6B91FBF2F202FB03F31A46FB6AA1
:10253C009342FFF473AFFFF73BFC00BF3837BD4647
:10254C0080BD00BF0B0000200004004810010020DB
:10255C0080B58CB000AF78600B46FB700023FB623B
:10256C00434B1B78002B02D10423FB620CE0404B45
:10257C001B78012B02D10223FB6205E03C4B1B783C
:10258C00022B01D10123FB62FA78FB6A92FBF3F375
:10259C003B62FB78FA6A93FBF2F2F96A01FB02F2F6
:1025AC009B1AFB610023BB624FF48072FB6A92FBA7
:1025BC00F3F3FA6902FB03F37B6247E000224FF46A
:1025CC0080512C4802F01EF803233B7607F11801CA
:1025DC004FF47A730122284804F0B1F83B6ADBB25D
:1025EC003B7507F114014FF47A730122224804F071
:1025FC00A6F87B6ADBB23B7407F110014FF47A73D7
:10260C0001221D4804F09BF800233B7307F10C01D9
:10261C004FF47A730122184804F091F8BB6A1B023C
:10262C001A467B6899184FF47A734FF480721248EB
:10263C0004F0FAF901224FF480510E4801F0E2FF48
:10264C00BB6A0133BB627B6A01337B62FB6901337A
:10265C004FF48071FA6A91FBF2F202FB03F31A4613
:10266C007B6A9342AAD300BF00BF3037BD4680BD02
:10267C000B000020000400481001002080B58CB035
:10268C0000AF0346FB710023FB62644B1B78002BED
:10269C0002D10423FB620CE0604B1B78012B02D1AE
:1026AC000223FB6205E05D4B1B78022B01D1012359
:1026BC00FB62002387F82B30584B1B78002B03D17F
:1026CC00042387F82B300EE0544B1B78012B03D1DD
:1026DC00082387F82B3006E0504B1B78022B02D1D5
:1026EC00102387F82B30FA79FB6A92FBF3F37B62A9
:1026FC00FB79FA6A93FBF2F2F96A01FB02F29B1A7C
:10270C003B6200F091F8002387F82A307AE000222F
:10271C004FF48051424801F075FF06233B7707F1D7
:10272C001C014FF47A7301223E4804F008F8012290
:10273C004FF480513A4801F065FF0A2000F096FAF8
:10274C0000224FF48051364801F05CFF20233B7689
:10275C0007F118014FF47A730122324803F0EFFFAE
:10276C007B6ADBB23B7507F114014FF47A730122DB
:10277C002C4803F0E4FF97F82B303A6A03FB02F283
:10278C0097F82A301344DBB21B01DBB23B7407F120
:10279C0010014FF47A730122224803F0D0FF00237A
:1027AC003B7307F10C014FF47A7301221D4803F0BF
:1027BC00C6FF01224FF48051194801F023FF0A2073
:1027CC0000F054FA00224FF48051154801F01AFF22
:1027DC0004233B7207F108014FF47A73012211486C
:1027EC0003F0ADFF01224FF480510D4801F00AFFB8
:1027FC000A2000F03BFAFFF7DBFA97F82A30013396
:10280C0087F82A3097F82A2097F82B309A42FFF451
:10281C007EAF00BF00BF3037BD4680BD0B0000202F
:10282C00000400481001002080B582B000AF0022E7
:10283C004FF480511A4801F0E5FE66233B71391DB7
:10284C004FF47A730122174803F079FF01224FF4F9
:10285C008051134801F0D6FE012000F022FA00222C
:10286C004FF480510E4801F0CDFE99233B70394650
:10287C004FF47A7301220B4803F061FF01224FF4ED
:10288C008051074801F0BEFE012000F00AFA4FF417
:10289C007A7000F0EBF900BF0837BD4680BD00BF71
:1028AC00000400481001002080B5AEB000AF07F165
:1028BC00AC0300221A605A609A6007F18803242244
:1028CC000021184606F032F907F1700300221A6055
:1028DC005A609A60DA601A615A613B1D6C220021C1
:1028EC00184606F023F96D4B6D4A1A606B4B0022AB
:1028FC005A606A4B02229A60684B0022DA603223DB
:10290C00C7F8AC300123C7F8B0300123C7F8B43096
:10291C0007F1AC031946614800F06EFE0346002B2C
:10292C0001D000F003FA0123C7F888300023C7F860
:10293C008C300023C7F890300023C7F89430002364
:10294C00C7F898300023C7F89C300023C7F8A03094
:10295C000023C7F8A4300023C7F8A83007F1880378
:10296C0019464E4801F0BBFA0346002B01D000F08B
:10297C00DDF913233B670F237B670923BB670A230E
:10298C00FB670023C7F880300023C7F8843007F1B9
:10299C0070031946414801F038FA0346002B01D068
:1029AC0000F0C4F942F210713C4801F054FC0346AB
:1029BC00002B01D000F0BAF90021384800F038FFA4
:1029CC000346002B01D000F0B1F900237B600523F6
:1029DC00BB600023FB6001233B6178237B610123F7
:1029EC00BB610023FB6100233B6200237B6200235D
:1029FC00BB622C4B1B88FB622B4B1B883B63294B0C
:102A0C001B881A46284B1B8813441A46274B1B68F5
:102A1C001344274A128813447B63264B1B88BB63E1
:102A2C00254B1B88FB63254B1B883B64244B1B6885
:102A3C007B644FF40043BB641C23FB6450233B6555
:102A4C004FF400537B654FF48053BB654FF4006328
:102A5C00FB654FF480633B664FF400737B664FF469
:102A6C008073BB660023FB663B1D19460B4800F0C8
:102A7C00C4FF0346002B01D000F058F90021074891
:102A8C0000F093FF0346002B01D000F04FF9FEF746
:102A9C00CBFC00BFB837BD4680BD00BF4C0000204A
:102AAC00006C0140100000201200002000000020EB
:102ABC001400002016000020180000201A0000202E
:102ACC000400002080B58EB000AF3B1D34220021E5
:102ADC00184606F02BF85A4B5A4A1A60584B4FF0CE
:102AEC0000425A60564B4FF080429A60544B002281
:102AFC00DA60534B00221A61534B1B88013B1A4678
:102B0C004F4B5A61514B1B88013B1A464C4B9A61F7
:102B1C004D4B1B881A464E4B1B881344013B1A46DF
:102B2C00474BDA61494B1B881A464A4B1B881344A6
:102B3C00013B1A46424B1A62434B1B881A46444BC4
:102B4C001B8813441A46444B1B681344013B3C4AF4
:102B5C0053623E4B1B881A463E4B1B8813441A4645
:102B6C003E4B1B681344013B354A9362364B1B8822
:102B7C001A46374B1B8813441A46374B1B681344B1
:102B8C00374A12881344013B2D4AD3622F4B1B88C2
:102B9C001A46304B1B8813441A46304B1B6813449F
:102BAC00304A12881344013B254A1363244BFF22FD
:102BBC0083F83420224BFF2283F83520204BFF2250
:102BCC0083F836201E4801F04DFD0346002B01D042
:102BDC0000F0ACF800237B601F4B1B68BB6000232C
:102BEC00FB601E4B1B683B6101237B61FF23BB61B8
:102BFC000023FB614FF480633B6205237B621A4B1D
:102C0C00BB62154B1B68FB62144B1B683B63FF23B9
:102C1C0087F83430FF2387F83530FF2387F83630B8
:102C2C003B1D00221946064801F0ECFD0346002B23
:102C3C0001D000F07BF800BF3837BD4680BD00BF27
:102C4C0068000020006801401000002016000020E1
:102C5C0012000020180000200000002004000020BA
:102C6C00140000201A0000207402042080B485B0E7
:102C7C0000AF78600023FB6007E00D23FB6000BF12
:102C8C00FB685A1EFA60002BFAD17B685A1E7A60D8
:102C9C00002BF2D100BF00BF1437BD465DF8047B9A
:102CAC00704780B485B000AF78600023FB6007E00C
:102CBC000123FB6000BFFB685A1EFA60002BFAD19F
:102CCC007B685A1E7A60002BF2D100BF00BF14370C
:102CDC00BD465DF8047B704780B483B000AF0346FB
:102CEC00FB80FB88B3F5805F15D10E4B1B78012B55
:102CFC0003D00C4B1B78022B03D10A4B00221A7009
:102D0C0006E0084B1B78002B02D1064B01221A70EF
:102D1C00054B00221A6000BF0C37BD465DF8047BE2
:102D2C00704700BF70020420F802072080B400AF87
:102D3C0072B600BFFEE7000080B483B000AF0F4B4B
:102D4C001B6E0E4A43F0010313660C4B1B6E03F013
:102D5C0001037B607B68094B9B6D084A43F08053F1
:102D6C009365064B9B6D03F080533B603B6800BF43
:102D7C000C37BD465DF8047B704700BF0010024065
:102D8C0080B5AAB000AF786007F10C039C2200213B
:102D9C00184605F0CBFE7B681B68114A93421BD189
:102DAC004FF40003FB600023C7F89C3007F10C03C1
:102DBC00184602F0A9FE0346002B01D0FFF7B6FF20
:102DCC00084B1B6E074A43F000631366054B1B6EE2
:102DDC0003F00063BB60BB6800BFA837BD4680BD75
:102DEC00006C01400010024080B5AAB000AF7860C2
:102DFC0007F10C039C220021184605F097FE7B6816
:102E0C001B68194A93422BD14FF48003FB604FF49B
:102E1C008033C7F898300323FB6201233B630823FC
:102E2C007B630223BB6302233B640223FB634FF0EF
:102E3C0080737B6407F10C03184602F065FE0346B1
:102E4C00002B01D0FFF772FF084B1B6E074A43F0B3
:102E5C0080631366054B1B6E03F08063BB60BB681D
:102E6C0000BFA837BD4680BD00680140001002407D
:102E7C0080B58CB000AF786007F11C0300221A609B
:102E8C005A609A60DA601A617B681B68424A934206
:102E9C0028D1424B9B6D414A43F4804393653F4B91
:102EAC009B6D03F48043BB61BB693C4BDB6C3B4AC1
:102EBC0043F00803D364394BDB6C03F008037B61EC
:102ECC007B691A23FB6102233B6200237B62032391
:102EDC00BB620523FB6207F11C031946304801F065
:102EEC00E7F954E07B681B682E4A93424FD12B4B79
:102EFC009B6D2A4A43F400439365284B9B6D03F466
:102F0C0000433B613B69254BDB6C244A43F0400397
:102F1C00D364224BDB6C03F04003FB60FB6801F0D5
:102F2C000BFF1E4BDB6C1D4A43F00403D3641B4B9D
:102F3C00DB6C03F00403BB60BB684FF4A053FB6174
:102F4C0002233B6200237B620323BB620623FB62EA
:102F5C0007F11C031946144801F0AAF94FF4A053C9
:102F6C00FB6102233B6200237B620323BB620623CB
:102F7C00FB6207F11C0319460C4801F099F9002279
:102F8C000021332000F05BFA332000F074FA00BF0C
:102F9C003037BD4680BD00BF0038004000100240F5
:102FAC00000C0048003C0040001800480008004895
:102FBC0080B5B0B000AF786007F1AC0300221A60A6
:102FCC005A609A60DA601A6107F110039C220021A2
:102FDC00184605F0ABFD7B681B68214A93423BD138
:102FEC0008233B610023BB6507F11003184602F070
:102FFC008BFD0346002B01D0FFF798FE194B9B6D00
:10300C00184A43F400239365164B9B6D03F400237D
:10301C00FB60FB68134BDB6C124A43F00103D36477
:10302C00104BDB6C03F00103BB60BB680323C7F8D8
:10303C00AC300223C7F8B0300023C7F8B4300323F8
:10304C00C7F8B8300823C7F8BC3007F1AC031946F1
:10305C004FF0904001F02CF900BFC037BD4680BD49
:10306C00004C00400010024080B400AFFEE780B47A
:10307C0000AFFEE780B400AFFEE780B400AFFEE720
:10308C0080B400AFFEE780B400AF00BFBD465DF872
:10309C00047B704780B400AF00BFBD465DF8047B75
:1030AC00704780B400AF00BFBD465DF8047B70472D
:1030BC0080B500AF00F0A4F800BF80BD80B500AFB4
:1030CC004FF4805001F0B6FA00BF80BD80B500AF60
:1030DC00024804F05FF900BF80BD00BF74010020FE
:1030EC0080B400AF064BD3F88830054A43F4700324
:1030FC00C2F8883000BFBD465DF8047B704700BF46
:10310C0000ED00E0DFF834D0FFF7EAFF0C480D4982
:10311C000D4A002302E0D458C4500433C4188C4226
:10312C00F9D30A4A0A4C002301E013600432A2428C
:10313C00FBD305F0D7FCFDF7DDF9FEE700000A2014
:10314C000000002030000020608C000830000020BF
:10315C0000030720FEE780B582B000AF0023FB71AF
:10316C00032000F061F9022000F00EF80346002B5A
:10317C0002D00123FB7101E0FFF7DEFDFB7918465D
:10318C000837BD4680BD000080B584B000AF7860C4
:10319C000023FB73174B1B78002B23D0164B1A689C
:1031AC00144B1B7819464FF47A73B3FBF1F3B2FB53
:1031BC00F3F3184600F06DF90346002B0FD17B6832
:1031CC000F2B09D8002279684FF0FF3000F037F947
:1031DC000A4A7B68136007E00123FB7304E00123B8
:1031EC00FB7301E00123FB73FB7B18461037BD46D4
:1031FC0080BD00BF2C0000202400002028000020EF
:10320C0080B400AF064B1B781A46064B1B68134460
:10321C00044A136000BFBD465DF8047B704700BFD5
:10322C002C000020FC02072080B400AF034B1B686D
:10323C001846BD465DF8047B704700BFFC020720B2
:10324C0080B584B000AF7860FFF7EEFFB8607B68A4
:10325C00FB60FB68B3F1FF3F05D00A4B1B781A46A5
:10326C00FB681344FB6000BFFFF7DEFF0246BB6840
:10327C00D31AFA689A42F7D800BF00BF1037BD4680
:10328C0080BD00BF2C00002080B485B000AF7860FA
:10329C007B6803F00703FB600C4BDB68BB60BA6810
:1032AC004FF6FF031340BB60FB681A02BB68134365
:1032BC0043F0BF6343F40033BB60044ABB68D36084
:1032CC0000BF1437BD465DF8047B704700ED00E08D
:1032DC0080B400AF044BDB681B0A03F007031846ED
:1032EC00BD465DF8047B704700ED00E080B483B010
:1032FC0000AF0346FB7197F90730002B0BDBFB7912
:10330C0003F01F02074997F907305B09012000FA07
:10331C0002F241F8232000BF0C37BD465DF8047B58
:10332C00704700BF00E100E080B483B000AF0346FB
:10333C003960FB7197F90730002B0ADB3B68DAB276
:10334C000C4997F907301201D2B20B4483F80023D1
:10335C000AE03B68DAB20849FB7903F00F03043B3F
:10336C001201D2B20B441A7600BF0C37BD465DF881
:10337C00047B704700E100E000ED00E080B489B010
:10338C0000AFF860B9607A60FB6803F00703FB617B
:10339C00FB69C3F10703042B28BF0423BB61FB6942
:1033AC000433062B02D9FB69033B00E000237B614D
:1033BC004FF0FF32BB6902FA03F3DA43BB681A40E1
:1033CC007B699A404FF0FF317B6901FA03F3D943D3
:1033DC007B680B40134318462437BD465DF8047BCD
:1033EC007047000080B582B000AF78607B68013B0D
:1033FC00B3F1807F01D301230FE00A4A7B68013BC4
:10340C0053600F214FF0FF30FFF78EFF054B00226A
:10341C009A60044B07221A60002318460837BD46F1
:10342C0080BD00BF10E000E080B582B000AF7860D6
:10343C007868FFF729FF00BF0837BD4680BD80B50F
:10344C0086B000AF0346B9607A60FB7300237B61E2
:10345C00FFF73EFF78617A68B9687869FFF78EFFED
:10346C00024697F90F3011461846FFF75DFF00BF73
:10347C001837BD4680BD80B582B000AF0346FB71E6
:10348C0097F907301846FFF731FF00BF0837BD46E4
:10349C0080BD80B582B000AF78607868FFF7A2FF7E
:1034AC00034618460837BD4680BD80B584B000AFD2
:1034BC0078600023FB737B6893F82530DBB2022B1A
:1034CC0005D07B680422DA630123FB7347E07B6839
:1034DC001B681A687B681B6822F00E021A607B68F6
:1034EC001B681A687B681B6822F001021A607B68F3
:1034FC009B6C1A687B689B6C22F480721A607B68E8
:10350C005B6C03F01C027B681B6C012101FA02F25C
:10351C005A607B68DB6C7A68126D5A607B685B6DF5
:10352C00002B0CD07B685B6D1A687B685B6D22F49A
:10353C0080721A607B689B6D7A68D26D5A607B686A
:10354C00012283F825207B68002283F824207B68E5
:10355C009B6B002B03D07B689B6B78689847FB7B3D
:10356C0018461037BD4680BD80B485B000AFF860FA
:10357C00B9607A603B60BB689A017B681A433B6810
:10358C001B021A43BB691B041A43FB68DA6600BFB3
:10359C001437BD465DF8047B704780B586B000AF2C
:1035AC00F860B9607A603B60FFF73EFE786109E035
:1035BC00FFF73AFE02467B69D31AB3F57A7F01D93D
:1035CC00032315E0FB681B685B6F03F00103002B02
:1035DC00EED0BB689A017B681A433B681B0242EA37
:1035EC0003013B6A1A04FB681B680A43DA66002372
:1035FC0018461837BD4680BD80B588B000AF7860DE
:10360C0039607B68002B01D101230BE17B685B7C6B
:10361C00DBB2002B02D17868FFF7B2FB7B68032288
:10362C005A7400233B617B681B68D3F830247B6899
:10363C001B6842F08072C3F830247B681B68D3F897
:10364C00303403F080733B613B69FFF7EDFDF861AB
:10365C0009E0FFF7E9FD0246FB69D31AB3F57A7F5F
:10366C0001D90323DEE07B681B68D3F80C3403F428
:10367C008053002BEDD07B681B68D3F830347A680C
:10368C00126823F45E3323F4FE73C2F830347B6883
:10369C001B68D3F830143B681B689A003B685B6866
:1036AC00DB021A433B689B681B041A437B681B684C
:1036BC000A43C3F830240023FB607B681B68D3F8F3
:1036CC0030247B681B6842F00102C3F830247B680D
:1036DC001B68D3F8303403F00103FB60FB68012056
:1036EC00FFF7AEFDFFF7A0FDF86109E0FFF79CFDC9
:1036FC000246FB69D31AB3F57A7F01D9032391E013
:10370C007B681B68D3F80C3403F48073002BEDD06A
:10371C007B681B68D3F8A0207B681B6842F006020C
:10372C00C3F8A0207B681B68D3F894207B681B68C7
:10373C0022F00302C3F894207B681B68D3F8942012
:10374C007B685B681A437B681B6842F00102C3F814
:10375C0094207B681B68D3F8A4207B681B6822F03C
:10376C000302C3F8A4207B681B68D3F8A4107B6801
:10377C00DA687B681B680A43C3F8A4207B681B6863
:10378C009A687B681B6822F0FF029A607B681B6852
:10379C0099687B689A687B681B680A439A603B68E7
:1037AC005B68002B02D03B685B6800E00123BB61C7
:1037BC00BB691E4A03FB02F23B689B6803F00303E0
:1037CC009A403B681B684FF4FA5101FB03F3B2FBC0
:1037DC00F3F37B617B681B68D3F818247B681B6848
:1037EC0022F03F02C3F818247B681B68D3F8181426
:1037FC007B681B687A690A43C3F818247B681B68CA
:10380C000022C3F8C4207B681B680022C3F8C820C0
:10381C007B6800229A617B6800225A617B680122D6
:10382C005A74002318462037BD4680BD00093D0060
:10383C0080B483B000AF786039607B681B7C012B4F
:10384C0001D10223ABE07B6801221A747B681B68F0
:10385C000022C3F8C4207B681B680022C3F8C82070
:10386C007B683A689A613B6803F00103002B0BD02C
:10387C007B681B68D3F8C4307A6812686FEA13430C
:10388C006FEA0343C2F8C4303B6803F00203002B19
:10389C0009D07B681B68D3F8C4207B681B6842F492
:1038AC00F812C3F8C4203B6803F00403002B09D0C2
:1038BC007B681B68D3F8C8207B681B6842F0010248
:1038CC00C3F8C8203B6803F00803002B09D07B68C1
:1038DC001B68D3F8C8207B681B6842F00202C3F84F
:1038EC00C8203B6803F01003002B09D07B681B68D1
:1038FC00D3F8C8207B681B6842F00C02C3F8C820C0
:10390C003B6803F02003002B09D07B681B68D3F8BD
:10391C00C8207B681B6842F01002C3F8C8203B68C3
:10392C0003F04003002B09D07B681B68D3F8C82038
:10393C007B681B6842F02002C3F8C8203B6803F088
:10394C008003002B09D07B681B68D3F8C8207B68E8
:10395C001B6842F04002C3F8C8203B6803F4807334
:10396C00002B09D07B681B68D3F8C8207B681B68C8
:10397C0042F08002C3F8C8203B6803F40073002BAC
:10398C0009D07B681B68D3F8C8207B681B6842F49D
:10399C00F852C3F8C8207B6800221A74002318461A
:1039AC000C37BD465DF8047B704780B483B000AF24
:1039BC00786039607B681B7C012B01D1022316E0F7
:1039CC007B6801221A747B681B681A6B7B681B6806
:1039DC0022F003021A637B681B68196B7B681B68F7
:1039EC003A680A431A637B6800221A74002318464B
:1039FC000C37BD465DF8047B704780B483B000AFD4
:103A0C00786039607B681B7C012B01D10223F6E1C5
:103A1C007B6801221A747B681B685A6B7B681B6875
:103A2C0022F001025A637B681B68D3F800247B6880
:103A3C001B6822F00102C3F800247B681B689A6B98
:103A4C007B681B6822F003029A637B681B68996B86
:103A5C003B68DA687B681B680A439A637B681B685F
:103A6C00DB6B7A68126823F47F5323F03F03D36334
:103A7C007B681B68D96B3B681A697B681B680A43B7
:103A8C00DA637B681B681B6C7A68126823F4FF533B
:103A9C0023F01F0313647B681B68196C3B685A691D
:103AAC007B681B680A431A647B681B685B6C7A68CA
:103ABC00126823F4FF5323F01F0353647B681B68C5
:103ACC00596C3B689A697B681B680A435A647B682B
:103ADC001B68DA687B681B6822F00302DA607B687B
:103AEC001B68D9683B681A687B681B680A43DA60F4
:103AFC007B681B685A697B681B6822F007025A6155
:103B0C007B681B6859693B685A6A3B681B6A1A4395
:103B1C003B68DB691A437B681B680A435A617B6804
:103B2C001B681A697B681B6822F00F021A617B689C
:103B3C001B6819693B685A687B681B680A431A61E1
:103B4C007B681B68D3F800247B681B6822F00E028C
:103B5C00C3F800247B681B68D3F800143B685B68CF
:103B6C005A007B681B680A43C3F800243B685B68F7
:103B7C00032B10D17B681B681A697B681B6822F4C5
:103B8C0080721A617B681B6819693B689A687B684C
:103B9C001B680A431A617B681B689B6C7A68126805
:103BAC0023F47F6323F00F0393647B681B68996C89
:103BBC003B689A6A7B681B680A439A647B681B683B
:103BCC00DB6C7A68126823F47F6323F00F03D364F1
:103BDC007B681B68D96C3B68DA6A7B681B680A4394
:103BEC00DA647B681B681B6D7A68126823F4FF43E8
:103BFC0023F07F0313657B681B68196D3B681A6B98
:103C0C007B681B680A431A657B681B685B6D7A6866
:103C1C00126823F47F7323F0030353657B681B68DE
:103C2C00596D3B685A6B7B681B680A435A657B6805
:103C3C001B689B6D7A68126823F47F7323F003036F
:103C4C0093657B681B68996D3B689A6B7B681B68F6
:103C5C000A439A657B681B68DB6D7A68126823F4EB
:103C6C007F7323F00303D3657B681B68D96D3B68B6
:103C7C00DA6B7B681B680A43DA657B681B681B6E12
:103C8C007A68126823F47F5323F03F0313667B6832
:103C9C001B68196E3B681A6C7B681B680A431A66B2
:103CAC007B681B689A6B7B681B6822F400429A63E2
:103CBC007B681B68996B3B685A6C7B681B680A4372
:103CCC009A637B681B689A697B681B6822F47F0285
:103CDC009A617B681B6899693B689B6C1A047B68CA
:103CEC001B680A439A617B681B689A697B681B682E
:103CFC0022F0FF029A617B681B6899693B68DA6C59
:103D0C007B681B680A439A617B681B689A6B7B68AB
:103D1C001B6822F400529A637B681B68996B3B68A2
:103D2C001A6D7B681B680A439A637B681B689A6BE5
:103D3C007B681B6822F480529A637B681B68996BC2
:103D4C003B685A6D7B681B680A439A637B681B68E7
:103D5C009A6B7B681B6822F400629A637B681B6811
:103D6C00996B3B689A6D7B681B680A439A637B6806
:103D7C001B689A6B7B681B6822F480629A637B6871
:103D8C001B68996B3B68DA6D7B681B680A439A6306
:103D9C007B681B689A6B7B681B6822F400729A63C1
:103DAC007B681B68996B3B681A6E7B681B680A43BF
:103DBC009A637B681B689A6B7B681B6822F4807221
:103DCC009A637B681B68996B3B685A6E7B681B68AF
:103DDC000A439A637B681B689A6B7B681B6822F4A6
:103DEC0080429A637B681B68996B3B689A6E7B6810
:103DFC001B680A439A637B6800221A7400231846D6
:103E0C000C37BD465DF8047B704780B485B000AFBD
:103E1C00786039607B681B7C012B01D1022358E050
:103E2C007B6801221A743B681A683B685B68934292
:103E3C0038BF1346FB607B681B68D3F898207B68FF
:103E4C001B6802F0FC22C3F898207B681B68D3F82F
:103E5C009810FB681A04FB681A437B681B680A43BA
:103E6C00C3F898207B681B68D3F89C207B681B6880
:103E7C0002F40042C3F89C207B681B68D3F89C10AA
:103E8C003B681A693B68DB681B041A433B689B68F8
:103E9C001B061A437B681B680A43C3F89C207B688B
:103EAC001B68D3F8A4207B681B6822F47F42C3F8FC
:103EBC00A4207B681B68D3F8A4103B685B691A02CA
:103ECC007B681B680A43C3F8A4207B6800221A7421
:103EDC00002318461437BD465DF8047B704780B448
:103EEC0083B000AF786039607B681B7C012B01D1FB
:103EFC000223B4E07B6801221A747B681B689A6801
:103F0C007B681B6822F47F429A607B681B68996807
:103F1C003B681B681A027B681B680A439A607B68C3
:103F2C001B689A6F7B681B6892B29A677B681B68E8
:103F3C00996F3B685B681A047B681B680A439A6735
:103F4C007B681B689B6F7A6812681B0C1B04936759
:103F5C007B681B68996F3B689A687B681B680A438F
:103F6C009A677B681B68DB6F7A6812681B0C1B04F2
:103F7C00D3677B681B68D96F3B68DA687B681B6802
:103F8C000A43DA677B681B68D3F880307A6812685A
:103F9C001B0C1B04C2F880307B681B68D3F88010A4
:103FAC003B681A697B681B680A43C3F880207B68EE
:103FBC001B68D3F884307A6812681B0C1B04C2F897
:103FCC0084307B681B68D3F884103B685A697B6823
:103FDC001B680A43C3F884207B681B68D3F88420D1
:103FEC007B681B6822F08072C3F884207B681B6896
:103FFC00D3F884103B689A697B681B680A43C3F842
:10400C0084207B681B68D3F888307A6812681B0C94
:10401C001B04C2F888307B681B68D3F888103B6897
:10402C00DA697B681B680A43C3F888207B681B68C5
:10403C00D3F88C307A6812681B0C1B04C2F88C30D5
:10404C007B681B68D3F88C103B681A6A7B681B680A
:10405C000A43C3F88C207B6800221A74002318468C
:10406C000C37BD465DF8047B704780B485B000AF5B
:10407C0078607B681B7C012B01D102232BE07B68D1
:10408C0001221A740023FB607B681B685A687B68EA
:10409C001B6842F001025A607B681B685B6803F086
:1040AC000103FB60FB680023BB607B681B68D3F8D3
:1040BC0004247B681B6842F00802C3F804247B6864
:1040CC001B68D3F8043403F00803BB60BB687B683F
:1040DC0000221A74002318461437BD465DF8047B81
:1040EC00704780B588B002AFF860B9607A603B6009
:1040FC00FB681B7C012B01D1022310E0FB68012221
:10410C001A743B6A00933B687A68B968F868FFF7E1
:10411C0044FA0346FB75FB6800221A74FB7D1846B3
:10412C001837BD4680BD80B58CB002AFF860B96061
:10413C007A603B607B6BBB61FB681B7C012B01D104
:10414C00022384E0FB6801221A74FFF76DF8786192
:10415C000CE0FFF769F802467B69D31AB3F57A7F56
:10416C0004D9FB6800221A74032370E0FB681B68F7
:10417C005B6F03F00103002BEBD03B6BFB613B68E7
:10418C00032B28BF03233B6100233B620FE0BA697A
:10419C003B6A13441B781A463B6A0133DB0002FA74
:1041AC0003F3FA691343FB613B6A01333B623A6ADE
:1041BC003B699A42EBD3FB681B68FA691A673A6849
:1041CC003B69D31A7B62BA693B691344BB6128E033
:1041DC007B6A042B28BF04233B610023FB61002373
:1041EC003B620EE0BA693B6A13441B781A463B6A81
:1041FC00DB0002FA03F3FA691343FB613B6A0133F8
:10420C003B623A6A3B699A42ECD3FB681B68FA69D9
:10421C001A677A6A3B69D31A7B62BA693B691344A1
:10422C00BB617B6A002BD3D1FB6818683B680133F8
:10423C00DAB23B6801331B0ADBB2009313467A688F
:10424C00B968FFF791F9FB6800221A74002318462D
:10425C002837BD4680BD80B483B000AF786039602C
:10426C007B681B7C012B01D102231BE07B680122A4
:10427C001A747B681B68D3F81C247B681B6822F0BB
:10428C00C062C3F81C247B681B68D3F81C143B6801
:10429C005A067B681B680A43C3F81C247B680022FF
:1042AC001A74002318460C37BD465DF8047B704722
:1042BC0080B487B000AF7860396000237B6166E121
:1042CC003B681A6801217B6901FA03F31340FB6018
:1042DC00FB68002B00F058813B685B6803F003031C
:1042EC00012B05D03B685B6803F00303022B30D134
:1042FC007B689B683B617B695B00032202FA03F3DA
:10430C00DB433A6913403B613B68DA687B695B00CD
:10431C0002FA03F33A6913433B617B683A699A608A
:10432C007B685B683B6101227B6902FA03F3DB4328
:10433C003A6913403B613B685B681B0903F001025F
:10434C007B6902FA03F33A6913433B617B683A6970
:10435C005A603B685B6803F00303032B17D07B6840
:10436C00DB683B617B695B00032202FA03F3DB43EE
:10437C003A6913403B613B689A687B695B0002FABF
:10438C0003F33A6913433B617B683A69DA603B6833
:10439C005B6803F00303022B23D17B69DA087B688B
:1043AC00083253F822303B617B6903F007039B0012
:1043BC000F2202FA03F3DB433A6913403B613B687B
:1043CC001A697B6903F007039B0002FA03F33A694D
:1043DC0013433B617B69DA087B680832396943F81F
:1043EC0022107B681B683B617B695B00032202FA2D
:1043FC0003F3DB433A6913403B613B685B6803F0B2
:10440C0003027B695B0002FA03F33A6913433B61D5
:10441C007B683A691A603B685B6803F44033002B95
:10442C0000F0B280614B1B6E604A43F001031366CF
:10443C005E4B1B6E03F00103BB60BB685C4A7B697F
:10444C009B08023352F823303B617B6903F0030372
:10445C009B000F2202FA03F3DB433A6913403B61E2
:10446C007B68B3F1904F2BD07B68524A934225D096
:10447C007B68514A93421FD07B68504A934219D0B3
:10448C007B684F4A934213D07B684E4A93420DD0BF
:10449C007B684D4A934207D07B684C4A934201D1CA
:1044AC0007230EE008230CE006230AE0052308E0AE
:1044BC00042306E0032304E0022302E0012300E0CE
:1044CC0000237A6902F00302920093403A69134385
:1044DC003B6137497B699B0802333A6941F82320D9
:1044EC003B4B9B683B61FB68DB433A6913403B6188
:1044FC003B685B6803F48013002B03D03A69FB68BC
:10450C0013433B61324A3B699360314BDB683B613F
:10451C00FB68DB433A6913403B613B685B6803F41F
:10452C000013002B03D03A69FB6813433B61284A04
:10453C003B69D360264B5B683B61FB68DB433A69A4
:10454C0013403B613B685B6803F40033002B03D0E2
:10455C003A69FB6813433B611D4A3B6953601C4B32
:10456C001B683B61FB68DB433A6913403B613B686A
:10457C005B6803F48033002B03D03A69FB68134368
:10458C003B61134A3B6913607B6901337B613B6878
:10459C001A687B6922FA03F3002B7FF491AE00BFFB
:1045AC0000BF1C37BD465DF8047B7047001002400D
:1045BC00000001400004004800080048000C0048BE
:1045CC00001000480014004800180048001C004867
:1045DC000004014080B485B000AF78600B467B804E
:1045EC007B681A697B881340002B02D00123FB7374
:1045FC0001E00023FB73FB7B18461437BD465DF8C6
:10460C00047B704780B483B000AF78600B467B802E
:10461C0013467B707B78002B03D07A887B689A6179
:10462C0002E07A887B689A6200BF0C37BD465DF861
:10463C00047B704780B582B000AF0346FB80084B0B
:10464C005A69FB881340002B06D0054AFB8853613E
:10465C00FB881846FEF740FB00BF0837BD4680BDFF
:10466C000004014080B584B000AF78607B68002BFB
:10467C0001D10123BFE07B6893F8A130DBB2002BA2
:10468C0006D17B68002283F8A0207868FEF7ACFB8B
:10469C007B68022283F8A1207B681B689A697B687F
:1046AC001B6822F070429A617B681B6899697B6871
:1046BC005A687B689B681A437B68DB681A437B6883
:1046CC001B691A437B681B680A439A617B681B68E9
:1046DC0099687B681A684A4B0B4093607B685B69EE
:1046EC001B04FB607B681B6899687B689A69FB6894
:1046FC001A437B681B680A439A607B681B68D968FD
:10470C007B681A683E4B0B40D3607B68DB691B04EB
:10471C00FB607B681B68D9687B681A6AFB681A4364
:10472C007B681B680A43DA607B681B6819697B68C5
:10473C001A68334B0B4013617B685B6A1B04FB608C
:10474C007B681B6819697B689A6AFB681A437B68EB
:10475C001B680A431A617B681B6859697B681A6875
:10476C00274B0B4053617B68DB6A1B04FB607B6847
:10477C001B6859697B681A6BFB681A437B681B685A
:10478C000A435A617B6893F835301B02FB607B68E7
:10479C0093F836301B04BB607B681B68DA6A7B6855
:1047AC001B6802F07F42DA627B681B68D96ABA68C0
:1047BC00FB6813437A6892F834201A437B681B68B1
:1047CC000A43DA627B681B685A6B7B681B6842F091
:1047DC0006025A637B681B689A697B681B6842F007
:1047EC0001029A617B680022C3F8A4207B68012235
:1047FC0083F8A120002318461037BD4680BD00BFAA
:10480C0000F800F0B0B584B000AFF860B9607A6021
:10481C00FB6893F8A030012B01D102232CE0FB683C
:10482C00012283F8A020FB68022283F8A120FA68F9
:10483C007B68342101FB03F3134403F13802BB689A
:10484C0014461D460FCD0FC40FCD0FC40FCD0FC492
:10485C002B6823607A68B968F86800F011F8FB6877
:10486C001B6801225A62FB68012283F8A120FB68B5
:10487C00002283F8A020002318461037BD46B0BD97
:10488C0080B489B000AFF860B9607A60BB685A68D0
:10489C00FB681B68DB681B0CC3F30B0313441B0482
:1048AC00FB61FB681B681A467B68DB01134484338D
:1048BC005B68FA68126811467A68D2010A4484323D
:1048CC0003F0F0235360BB681A68FB681B68DB6855
:1048DC001B0CC3F30B0313445A1CFB681B681946CF
:1048EC007B68DB010B4484331946FB6913434B6033
:1048FC00BB68DA68FB681B68DB68C3F30A03134404
:10490C001B04FB61FB681B681A467B68DB011344C4
:10491C0084339B68FA68126811467A68D2010A449B
:10492C00843203F0F0239360BB689A68FB681B68C1
:10493C00DB68C3F30A0313445A1CFB681B68194653
:10494C007B68DB010B4484331946FB6913438B6092
:10495C00FB681B681A467B68DB01134484331B69B4
:10496C00FA68126811467A68D2010A44843223F03C
:10497C0007031361FB681B681A467B68DB01134451
:10498C0084331A46BB681B691361BB6893F83130DA
:10499C001B02FB61BB6893F832301B04BB61BB6824
:1049AC009B691B067B61FB681B681A467B68DB01F5
:1049BC00134484339B69FB681B681A467B68DB01D4
:1049CC00134484331A4600239361BB6893F8303048
:1049DC001A46FB691A43BB691A43FB681B681946E4
:1049EC007B68DB010B44843319467B6913438B6171
:1049FC00FB681B681A467B68DB01134484335B69D4
:104A0C00FA68126811467A68D2010A44843223F09B
:104A1C00FF035361FB681B681A467B68DB01134478
:104A2C0084331A46BB685B695361FB681B681A4682
:104A3C007B68DB0113448433DB69FA681268114626
:104A4C007A68D2010A44843223F4E06323F007032A
:104A5C00D361BB68DA69BB681B6AF96809680846E8
:104A6C007968C901014484311343CB61FB681B682D
:104A7C001A467B68DB01134484339B6AFB681B6812
:104A8C001A467B68DB01134484331A460023936275
:104A9C00FB681B681A467B68DB01134484331A4697
:104AAC00BB685B6A9362BB681B69002B02D1042351
:104ABC00FB611BE0BB681B69012B02D10323FB616B
:104ACC0014E0BB681B69042B0BD0BB681B69022B61
:104ADC0007D0BB681B69032B03D0BB681B69072B72
:104AEC0002D10223FB6101E00123FB61FB681B681F
:104AFC001A467B68DB0113448433DB6AFA6812685C
:104B0C0011467A68D2010A44843203F0E023D3625E
:104B1C00BB689B6AFA6902FB03F31A04BB68596809
:104B2C00BB681B68CB1AF96901FB03F30333F96803
:104B3C00096808467968C901014484311343CB6282
:104B4C00FB681B681A467B68DB01134484331B6BC0
:104B5C00FA68126811467A68D2010A44843223F446
:104B6C00FF6323F007031363FB681B681A467B681B
:104B7C00DB01134484331A46BB68DB6A1363FB689E
:104B8C001B681A467B68DB01134484331B68FA6884
:104B9C00126811467A68D2010A44843243F0010348
:104BAC00136000BF2437BD465DF8047B70470000DE
:104BBC0080B400AF0D4B1B6803F4C063B3F5806F7A
:104BCC0002D14FF480630BE0084BD3F8803003F430
:104BDC008073B3F5807F02D14FF4007300E00023A3
:104BEC001846BD465DF8047B704700BF007000405E
:104BFC0080B485B000AF78607B68002B41D14B4B03
:104C0C001B6803F4C063B3F5806F31D1474BD3F805
:104C1C008030464A23F48073C2F88030434B1B68C3
:104C2C0023F4C063414A43F400731360404B1B6888
:104C3C00322202FB03F33F4AA2FB03239B0C0133FA
:104C4C00FB6002E0FB68013BFB60384B5B6903F4E3
:104C5C008063B3F5806F02D1FB68002BF2D1334B2C
:104C6C005B6903F48063B3F5806F58D1032357E07D
:104C7C002E4BD3F880302D4A23F48073C2F8803049
:104C8C004DE07B68B3F5007F41D1284B1B6803F4E2
:104C9C00C063B3F5806F31D1244BD3F88030234AF5
:104CAC0043F48073C2F88030204B1B6823F4C0633C
:104CBC001E4A43F4007313601D4B1B68322202FB27
:104CCC0003F31C4AA2FB03239B0C0133FB6002E0A1
:104CDC00FB68013BFB60154B5B6903F48063B3F528
:104CEC00806F02D1FB68002BF2D1104B5B6903F48F
:104CFC008063B3F5806F12D1032311E00B4BD3F813
:104D0C0080300A4A43F48073C2F8803007E0074BC6
:104D1C001B6823F4C063054A43F4806313600023CB
:104D2C0018461437BD465DF8047B70470070004090
:104D3C002400002083DE1B4380B400AF054B5B686E
:104D4C00044A43F40073536000BFBD465DF8047B16
:104D5C00704700BF0070004080B588B000AF78602D
:104D6C007B68002B02D1012300F008BC964B9B689A
:104D7C0003F00C03BB61944BDB6803F003037B6112
:104D8C007B681B6803F01003002B00F0E480BB6908
:104D9C00002B07D0BB690C2B40F08B807B69012B5F
:104DAC0040F08780884B1B6803F00203002B05D072
:104DBC007B689B69002B01D10123DFE37B681A6AB6
:104DCC00814B1B6803F00803002B04D07E4B1B683F
:104DDC0003F0F00305E07C4BD3F894301B0903F08F
:104DEC00F003934223D27B681B6A184600F0CCFD7B
:104DFC000346002B01D00123C0E3734B1B68724A9E
:104E0C0043F008031360704B1B6823F0F0027B68BF
:104E1C001B6A6D4913430B606B4B5B6823F47F4239
:104E2C007B68DB691B02684913434B6025E0664BCA
:104E3C001B68654A43F008031360634B1B6823F03F
:104E4C00F0027B681B6A604913430B605E4B5B6826
:104E5C0023F47F427B68DB691B025B4913434B6085
:104E6C00BB69002B09D17B681B6A184600F08CFDCE
:104E7C000346002B01D0012380E300F0C1FC024665
:104E8C00514B9B681B0903F00F035049CB5C03F09B
:104E9C001F0322FA03F34E4A13604E4B1B6818464D
:104EAC00FEF772F90346FB73FB7B002B52D0FB7BA6
:104EBC0064E37B689B69002B32D0434B1B68424AEE
:104ECC0043F001031360FEF7AFF9386108E0FEF719
:104EDC00ABF902463B69D31A022B01D903234DE3EC
:104EEC00394B1B6803F00203002BF0D0364B1B68C8
:104EFC00354A43F008031360334B1B6823F0F00270
:104F0C007B681B6A304913430B602F4B5B6823F49F
:104F1C007F427B68DB691B022B4913434B601AE011
:104F2C00294B1B68284A23F001031360FEF77CF918
:104F3C00386108E0FEF778F902463B69D31A022B78
:104F4C0001D903231AE3204B1B6803F00203002B47
:104F5C00F0D100E000BF7B681B6803F00103002B5D
:104F6C0073D0BB69082B05D0BB690C2B0ED17B69A8
:104F7C00032B0BD1144B1B6803F40033002B63D0B1
:104F8C007B685B68002B5FD10123F7E27B685B6871
:104F9C00B3F5803F06D10C4B1B680B4A43F48033AE
:104FAC00136025E07B685B68B3F5A02F14D1064B2A
:104FBC001B68054A43F480231360034B1B68024AA9
:104FCC0043F48033136013E000100240E08B0008C0
:104FDC002400002028000020A04B1B689F4A23F4CB
:104FEC00803313609D4B1B689C4A23F48023136011
:104FFC007B685B68002B13D0FEF716F9386108E06C
:10500C00FEF712F902463B69D31A642B01D903232C
:10501C00B4E2924B1B6803F40033002BF0D014E085
:10502C00FEF702F9386108E0FEF7FEF802463B692C
:10503C00D31A642B01D90323A0E2884B1B6803F419
:10504C000033002BF0D100E000BF7B681B6803F03D
:10505C000203002B60D0BB69042B05D0BB690C2B61
:10506C0019D17B69022B16D17C4B1B6803F480632E
:10507C00002B05D07B68DB68002B01D101237DE27E
:10508C00764B5B6823F0FE427B681B691B067349F9
:10509C0013434B6040E07B68DB68002B23D06F4BE5
:1050AC001B686E4A43F480731360FEF7BDF83861D9
:1050BC0008E0FEF7B9F802463B69D31A022B01D976
:1050CC0003235BE2654B1B6803F48063002BF0D079
:1050DC00624B5B6823F0FE427B681B691B065F49D1
:1050EC0013434B6018E05D4B1B685C4A23F48073E0
:1050FC001360FEF799F8386108E0FEF795F8024660
:10510C003B69D31A022B01D9032337E2534B1B689B
:10511C0003F48063002BF0D17B681B6803F0080359
:10512C00002B3CD07B685B69002B1CD04B4BD3F81D
:10513C0094304A4A43F00103C2F89430FEF774F8F5
:10514C00386108E0FEF770F802463B69D31A022B6F
:10515C0001D9032312E2414BD3F8943003F002033C
:10516C00002BEFD01BE03D4BD3F894303B4A23F09F
:10517C000103C2F89430FEF757F8386108E0FEF7E7
:10518C0053F802463B69D31A022B01D90323F5E1EC
:10519C00324BD3F8943003F00203002BEFD17B6831
:1051AC001B6803F00403002B00F0A6800023FB77A0
:1051BC002A4B9B6D03F08053002B0DD1274B9B6D1D
:1051CC00264A43F080539365244B9B6D03F0805328
:1051DC00BB60BB680123FB77214B1B6803F4807316
:1051EC00002B18D11E4B1B681D4A43F480731360AF
:1051FC00FEF71AF8386108E0FEF716F802463B692C
:10520C00D31A022B01D90323B8E1154B1B6803F405
:10521C008073002BF0D07B689B68012B08D10F4B5F
:10522C00D3F890300D4A43F00103C2F8903029E0D6
:10523C007B689B68052B15D1084BD3F89030074A37
:10524C0043F00403C2F89030044BD3F89030034A77
:10525C0043F00103C2F8903014E000BF001002408C
:10526C00007000409D4BD3F890309C4A23F0010312
:10527C00C2F89030994BD3F89030984A23F004033D
:10528C00C2F890307B689B68002B16D0FDF7CCFFE2
:10529C0038610AE0FDF7C8FF02463B69D31A41F2B8
:1052AC008832934201D9032368E18C4BD3F89030B8
:1052BC0003F00203002BEDD015E0FDF7B5FF3861CC
:1052CC000AE0FDF7B1FF02463B69D31A41F288327E
:1052DC00934201D9032351E1804BD3F8903003F072
:1052EC000203002BEDD1FB7F012B05D17B4B9B6D7A
:1052FC007A4A23F0805393657B681B6803F0200384
:10530C00002B3CD07B685B6A002B1CD0734BD3F812
:10531C009830724A43F00103C2F89830FDF784FFCD
:10532C00386108E0FDF780FF02463B69D31A022B77
:10533C0001D9032322E1694BD3F8983003F002031F
:10534C00002BEFD01BE0654BD3F89830634A23F069
:10535C000103C2F89830FDF767FF386108E0FDF7EC
:10536C0063FF02463B69D31A022B01D9032305E1E3
:10537C005A4BD3F8983003F00203002BEFD17B6823
:10538C009B6A002B00F0F9807B689B6A022B40F033
:10539C00CF80524BDB687B617B6903F003027B6837
:1053AC00DB6A9A422CD17B6903F0F0027B681B6BA1
:1053BC00013B1B019A4223D17B6903F4FE427B68BB
:1053CC005B6B1B029A421BD17B6903F078427B68B2
:1053DC009B6BDB069A4213D17B6903F4C0027B689A
:1053EC00DB6B5B08013B5B059A4209D17B6903F0DF
:1053FC00C0627B681B6C5B08013B5B069A4271D0F8
:10540C00BB690C2B68D0354B1B6803F08063002BF9
:10541C0005D1324B1B6803F08053002B01D00123C4
:10542C00ACE02E4B1B682D4A23F080731360FDF704
:10543C00FBFE386108E0FDF7F7FE02463B69D31A24
:10544C00022B01D9032399E0244B1B6803F0007352
:10545C00002BF0D1214BDA68214B13407A68D16ACA
:10546C007A68126B013A120111437A68526B12027C
:10547C0011437A68D26B5208013A520511437A688B
:10548C00126C5208013A520611437A68926BD2069A
:10549C000A4312491343CB60104B1B680F4A43F06D
:1054AC00807313600D4BDB680C4A43F08073D36040
:1054BC00FDF7BAFE386108E0FDF7B6FE02463B691F
:1054CC00D31A022B01D9032358E0044B1B6803F0B9
:1054DC000073002BF0D050E001234FE0001002408D
:1054EC000C809D01274B1B6803F00073002B44D1EB
:1054FC00244B1B68234A43F080731360214BDB68F9
:10550C00204A43F08073D360FDF78EFE386108E0CB
:10551C00FDF78AFE02463B69D31A022B01D90323FD
:10552C002CE0184B1B6803F00073002BF0D024E028
:10553C00BB690C2B1FD0134B1B68124A23F08073D2
:10554C001360FDF771FE386108E0FDF76DFE024651
:10555C003B69D31A022B01D903230FE0094B1B68BB
:10556C0003F00073002BF0D1064BDA680549064BAB
:10557C001340CB6001E0012300E0002318462037E4
:10558C00BD4680BD00100240FCFFEEFE80B586B02B
:10559C0000AF7860396000237B617B68002B01D100
:1055AC0001231DE1904B1B6803F00F033A689A42EC
:1055BC0010D98D4B1B6823F00F028B493B681343AA
:1055CC000B60894B1B6803F00F033A689A4201D0B9
:1055DC00012305E17B681B6803F00203002B10D04C
:1055EC007B689A68814B9B6803F0F0039A4208D958
:1055FC007E4B9B6823F0F0027B689B687B491343CE
:10560C008B607B681B6803F00103002B79D07B68EF
:10561C005B68032B1ED1754B1B6803F00073002BCA
:10562C0001D10123DCE000F009FA0346704A9342F1
:10563C0046D96E4B9B6803F0F003002B40D16B4BAB
:10564C009B6823F0F003694A43F080039360802346
:10565C007B6135E07B685B68022B07D1634B1B6871
:10566C0003F40033002B15D10123B9E07B685B6890
:10567C00002B07D15D4B1B6803F00203002B09D1F3
:10568C000123ADE0594B1B6803F48063002B01D15F
:10569C000123A5E000F0B4F80346554A93420FD914
:1056AC00524B9B6803F0F003002B09D14F4B9B68C6
:1056BC0023F0F0034D4A43F08003936080237B6119
:1056CC004A4B9B6823F003027B685B684749134392
:1056DC008B60FDF7A9FD38610AE0FDF7A5FD0246D8
:1056EC003B69D31A41F28832934201D9032377E004
:1056FC003E4B9B6803F00C027B685B689B009A42F4
:10570C00EBD17B69802B05D1384B9B68374A23F052
:10571C00F00393607B681B6803F00203002B10D02E
:10572C007B689A68314B9B6803F0F0039A4208D26D
:10573C002E4B9B6823F0F0027B689B682B4913432C
:10574C008B60294B1B6803F00F033A689A4210D206
:10575C00254B1B6823F00F0223493B6813430B6056
:10576C00214B1B6803F00F033A689A4201D00123C6
:10577C0036E07B681B6803F00403002B08D01B4B3E
:10578C009B6823F4E0627B68DB68184913438B60E9
:10579C007B681B6803F00803002B09D0134B9B6834
:1057AC0023F460527B681B69DB00104913438B6048
:1057BC0000F026F802460D4B9B681B0903F00F0303
:1057CC000C49CB5C03F01F0322FA03F30A4A136063
:1057DC000A4B1B681846FDF7D7FC0346FB73FB7B93
:1057EC0018461837BD4680BD00200240001002400C
:1057FC0000B4C404E08B0008240000202800002022
:10580C0080B489B000AF0023FB610023BB613E4B29
:10581C009B6803F00C033B613B4BDB6803F0030319
:10582C00FB603B69002B05D03B690C2B21D1FB683D
:10583C00012B1ED1344B1B6803F00803002B07D13E
:10584C00314BD3F894301B0A03F00F03FB6105E0D6
:10585C002D4B1B681B0903F00F03FB612B4AFB69E3
:10586C0052F82330FB613B69002B0DD1FB69BB6106
:10587C000AE03B69042B02D1254BBB6104E03B6978
:10588C00082B01D1234BBB613B690C2B34D11E4B34
:10589C00DB6803F00303BB60BB68022B03D0BB685F
:1058AC00032B03D005E01A4B7B6105E0194B7B61A0
:1058BC0002E0FB697B6100BF134BDB681B0903F043
:1058CC000F0301337B60104BDB681B0A03F07F0373
:1058DC007A6903FB02F27B68B2FBF3F37B610A4B40
:1058EC00DB685B0E03F0030301335B003B607A69FA
:1058FC003B68B2FBF3F3BB61BB6918462437BD466A
:10590C005DF8047B704700BF00100240F88B000864
:10591C000024F40000127A0080B400AF034B1B6823
:10592C001846BD465DF8047B704700BF240000207C
:10593C0080B500AFFFF7F0FF0246064B9B681B0AD1
:10594C0003F007030449CB5C03F01F0322FA03F3B3
:10595C00184680BD00100240F08B000880B500AFE7
:10596C00FFF7DAFF0246064B9B68DB0A03F00703DE
:10597C000449CB5C03F01F0322FA03F3184680BDE5
:10598C0000100240F08B000880B586B000AF786044
:10599C0000233B61274B9B6D03F08053002B03D0FE
:1059AC00FFF706F9786114E0224B9B6D214A43F016
:1059BC00805393651F4B9B6D03F08053FB60FB681A
:1059CC00FFF7F6F878611B4B9B6D1A4A23F0805356
:1059DC0093657B69B3F5007F0BD17B68802B13D962
:1059EC007B68A02B02D902233B610DE001233B61B4
:1059FC000AE07B687F2B02D902233B6104E07B68C1
:105A0C00702B01D101233B610B4B1B6823F00F0260
:105A1C0009493B6913430B60074B1B6803F00F03E9
:105A2C003A699A4201D0012300E000231846183746
:105A3C00BD4680BD001002400020024080B487B0FB
:105A4C0000AF2D4BDB6803F00303FB60FB68032BFB
:105A5C000BD0FB68032B25D8FB68012B08D0FB6807
:105A6C00022B1FD1254B3B611FE0254B3B611CE0FA
:105A7C00214B1B6803F00803002B07D11E4BD3F8F6
:105A8C0094301B0A03F00F037B6105E01A4B1B6873
:105A9C001B0903F00F037B611A4A7B6952F8233010
:105AAC003B6102E000233B6100BF134BDB681B0929
:105ABC0003F00F030133BB600F4BDB681B0A03F0D1
:105ACC007F033A6903FB02F2BB68B2FBF3F33B6161
